
HelloWord_STM32L476RG_STM32CubeIDE_v1.elf:     file format elf32-littlearm

Sections:
Idx Name          Size      VMA       LMA       File off  Algn
  0 .isr_vector   00000188  08000000  08000000  00010000  2**0
                  CONTENTS, ALLOC, LOAD, READONLY, DATA
  1 .text         000015c4  08000188  08000188  00010188  2**2
                  CONTENTS, ALLOC, LOAD, READONLY, CODE
  2 .rodata       00000040  0800174c  0800174c  0001174c  2**2
                  CONTENTS, ALLOC, LOAD, READONLY, DATA
  3 .ARM.extab    00000000  0800178c  0800178c  0002000c  2**0
                  CONTENTS
  4 .ARM          00000000  0800178c  0800178c  0002000c  2**0
                  CONTENTS
  5 .preinit_array 00000000  0800178c  0800178c  0002000c  2**0
                  CONTENTS, ALLOC, LOAD, DATA
  6 .init_array   00000004  0800178c  0800178c  0001178c  2**2
                  CONTENTS, ALLOC, LOAD, DATA
  7 .fini_array   00000004  08001790  08001790  00011790  2**2
                  CONTENTS, ALLOC, LOAD, DATA
  8 .data         0000000c  20000000  08001794  00020000  2**2
                  CONTENTS, ALLOC, LOAD, DATA
  9 .bss          00000020  2000000c  080017a0  0002000c  2**2
                  ALLOC
 10 ._user_heap_stack 00000604  2000002c  080017a0  0002002c  2**0
                  ALLOC
 11 .ARM.attributes 00000030  00000000  00000000  0002000c  2**0
                  CONTENTS, READONLY
 12 .debug_info   00005a65  00000000  00000000  0002003c  2**0
                  CONTENTS, READONLY, DEBUGGING, OCTETS
 13 .debug_abbrev 00001112  00000000  00000000  00025aa1  2**0
                  CONTENTS, READONLY, DEBUGGING, OCTETS
 14 .debug_aranges 00000598  00000000  00000000  00026bb8  2**3
                  CONTENTS, READONLY, DEBUGGING, OCTETS
 15 .debug_ranges 00000500  00000000  00000000  00027150  2**3
                  CONTENTS, READONLY, DEBUGGING, OCTETS
 16 .debug_macro  00024564  00000000  00000000  00027650  2**0
                  CONTENTS, READONLY, DEBUGGING, OCTETS
 17 .debug_line   000059d6  00000000  00000000  0004bbb4  2**0
                  CONTENTS, READONLY, DEBUGGING, OCTETS
 18 .debug_str    000dffb0  00000000  00000000  0005158a  2**0
                  CONTENTS, READONLY, DEBUGGING, OCTETS
 19 .comment      00000053  00000000  00000000  0013153a  2**0
                  CONTENTS, READONLY
 20 .debug_frame  00001488  00000000  00000000  00131590  2**2
                  CONTENTS, READONLY, DEBUGGING, OCTETS

Disassembly of section .text:

08000188 <__do_global_dtors_aux>:
 8000188:	b510      	push	{r4, lr}
 800018a:	4c05      	ldr	r4, [pc, #20]	; (80001a0 <__do_global_dtors_aux+0x18>)
 800018c:	7823      	ldrb	r3, [r4, #0]
 800018e:	b933      	cbnz	r3, 800019e <__do_global_dtors_aux+0x16>
 8000190:	4b04      	ldr	r3, [pc, #16]	; (80001a4 <__do_global_dtors_aux+0x1c>)
 8000192:	b113      	cbz	r3, 800019a <__do_global_dtors_aux+0x12>
 8000194:	4804      	ldr	r0, [pc, #16]	; (80001a8 <__do_global_dtors_aux+0x20>)
 8000196:	f3af 8000 	nop.w
 800019a:	2301      	movs	r3, #1
 800019c:	7023      	strb	r3, [r4, #0]
 800019e:	bd10      	pop	{r4, pc}
 80001a0:	2000000c 	.word	0x2000000c
 80001a4:	00000000 	.word	0x00000000
 80001a8:	08001734 	.word	0x08001734

080001ac <frame_dummy>:
 80001ac:	b508      	push	{r3, lr}
 80001ae:	4b03      	ldr	r3, [pc, #12]	; (80001bc <frame_dummy+0x10>)
 80001b0:	b11b      	cbz	r3, 80001ba <frame_dummy+0xe>
 80001b2:	4903      	ldr	r1, [pc, #12]	; (80001c0 <frame_dummy+0x14>)
 80001b4:	4803      	ldr	r0, [pc, #12]	; (80001c4 <frame_dummy+0x18>)
 80001b6:	f3af 8000 	nop.w
 80001ba:	bd08      	pop	{r3, pc}
 80001bc:	00000000 	.word	0x00000000
 80001c0:	20000010 	.word	0x20000010
 80001c4:	08001734 	.word	0x08001734

080001c8 <main>:
/**
  * @brief  The application entry point.
  * @retval int
  */
int main(void)
{
 80001c8:	b580      	push	{r7, lr}
 80001ca:	af00      	add	r7, sp, #0
  /* USER CODE END 1 */

  /* MCU Configuration--------------------------------------------------------*/

  /* Reset of all peripherals, Initializes the Flash interface and the Systick. */
  HAL_Init();
 80001cc:	f000 f913 	bl	80003f6 <HAL_Init>
  /* USER CODE BEGIN Init */

  /* USER CODE END Init */

  /* Configure the system clock */
  SystemClock_Config();
 80001d0:	f000 f80c 	bl	80001ec <SystemClock_Config>
  /* USER CODE BEGIN SysInit */

  /* USER CODE END SysInit */

  /* Initialize all configured peripherals */
  MX_GPIO_Init();
 80001d4:	f000 f850 	bl	8000278 <MX_GPIO_Init>
  while (1)
  {
    /* USER CODE END WHILE */
	//  HAL_GPIO_Write (GPIOA, GPIO_PIN_5, HIGH);

	  HAL_GPIO_TogglePin(GPIOA, GPIO_PIN_5);
 80001d8:	2120      	movs	r1, #32
 80001da:	f04f 4090 	mov.w	r0, #1207959552	; 0x48000000
 80001de:	f000 fc4b 	bl	8000a78 <HAL_GPIO_TogglePin>
	  HAL_Delay (1000);
 80001e2:	f44f 707a 	mov.w	r0, #1000	; 0x3e8
 80001e6:	f000 f97b 	bl	80004e0 <HAL_Delay>
	  HAL_GPIO_TogglePin(GPIOA, GPIO_PIN_5);
 80001ea:	e7f5      	b.n	80001d8 <main+0x10>

080001ec <SystemClock_Config>:
/**
  * @brief System Clock Configuration
  * @retval None
  */
void SystemClock_Config(void)
{
 80001ec:	b580      	push	{r7, lr}
 80001ee:	b096      	sub	sp, #88	; 0x58
 80001f0:	af00      	add	r7, sp, #0
  RCC_OscInitTypeDef RCC_OscInitStruct = {0};
 80001f2:	f107 0314 	add.w	r3, r7, #20
 80001f6:	2244      	movs	r2, #68	; 0x44
 80001f8:	2100      	movs	r1, #0
 80001fa:	4618      	mov	r0, r3
 80001fc:	f001 fa92 	bl	8001724 <memset>
  RCC_ClkInitTypeDef RCC_ClkInitStruct = {0};
 8000200:	463b      	mov	r3, r7
 8000202:	2200      	movs	r2, #0
 8000204:	601a      	str	r2, [r3, #0]
 8000206:	605a      	str	r2, [r3, #4]
 8000208:	609a      	str	r2, [r3, #8]
 800020a:	60da      	str	r2, [r3, #12]
 800020c:	611a      	str	r2, [r3, #16]

  /** Configure the main internal regulator output voltage
  */
  if (HAL_PWREx_ControlVoltageScaling(PWR_REGULATOR_VOLTAGE_SCALE1) != HAL_OK)
 800020e:	f44f 7000 	mov.w	r0, #512	; 0x200
 8000212:	f000 fc59 	bl	8000ac8 <HAL_PWREx_ControlVoltageScaling>
 8000216:	4603      	mov	r3, r0
 8000218:	2b00      	cmp	r3, #0
 800021a:	d001      	beq.n	8000220 <SystemClock_Config+0x34>
  {
    Error_Handler();
 800021c:	f000 f85c 	bl	80002d8 <Error_Handler>
  }
  /** Initializes the RCC Oscillators according to the specified parameters
  * in the RCC_OscInitTypeDef structure.
  */
  RCC_OscInitStruct.OscillatorType = RCC_OSCILLATORTYPE_MSI;
 8000220:	2310      	movs	r3, #16
 8000222:	617b      	str	r3, [r7, #20]
  RCC_OscInitStruct.MSIState = RCC_MSI_ON;
 8000224:	2301      	movs	r3, #1
 8000226:	62fb      	str	r3, [r7, #44]	; 0x2c
  RCC_OscInitStruct.MSICalibrationValue = 0;
 8000228:	2300      	movs	r3, #0
 800022a:	633b      	str	r3, [r7, #48]	; 0x30
  RCC_OscInitStruct.MSIClockRange = RCC_MSIRANGE_6;
 800022c:	2360      	movs	r3, #96	; 0x60
 800022e:	637b      	str	r3, [r7, #52]	; 0x34
  RCC_OscInitStruct.PLL.PLLState = RCC_PLL_NONE;
 8000230:	2300      	movs	r3, #0
 8000232:	63fb      	str	r3, [r7, #60]	; 0x3c
  if (HAL_RCC_OscConfig(&RCC_OscInitStruct) != HAL_OK)
 8000234:	f107 0314 	add.w	r3, r7, #20
 8000238:	4618      	mov	r0, r3
 800023a:	f000 fc9b 	bl	8000b74 <HAL_RCC_OscConfig>
 800023e:	4603      	mov	r3, r0
 8000240:	2b00      	cmp	r3, #0
 8000242:	d001      	beq.n	8000248 <SystemClock_Config+0x5c>
  {
    Error_Handler();
 8000244:	f000 f848 	bl	80002d8 <Error_Handler>
  }
  /** Initializes the CPU, AHB and APB buses clocks
  */
  RCC_ClkInitStruct.ClockType = RCC_CLOCKTYPE_HCLK|RCC_CLOCKTYPE_SYSCLK
 8000248:	230f      	movs	r3, #15
 800024a:	603b      	str	r3, [r7, #0]
                              |RCC_CLOCKTYPE_PCLK1|RCC_CLOCKTYPE_PCLK2;
  RCC_ClkInitStruct.SYSCLKSource = RCC_SYSCLKSOURCE_MSI;
 800024c:	2300      	movs	r3, #0
 800024e:	607b      	str	r3, [r7, #4]
  RCC_ClkInitStruct.AHBCLKDivider = RCC_SYSCLK_DIV1;
 8000250:	2300      	movs	r3, #0
 8000252:	60bb      	str	r3, [r7, #8]
  RCC_ClkInitStruct.APB1CLKDivider = RCC_HCLK_DIV1;
 8000254:	2300      	movs	r3, #0
 8000256:	60fb      	str	r3, [r7, #12]
  RCC_ClkInitStruct.APB2CLKDivider = RCC_HCLK_DIV1;
 8000258:	2300      	movs	r3, #0
 800025a:	613b      	str	r3, [r7, #16]

  if (HAL_RCC_ClockConfig(&RCC_ClkInitStruct, FLASH_LATENCY_0) != HAL_OK)
 800025c:	463b      	mov	r3, r7
 800025e:	2100      	movs	r1, #0
 8000260:	4618      	mov	r0, r3
 8000262:	f001 f86d 	bl	8001340 <HAL_RCC_ClockConfig>
 8000266:	4603      	mov	r3, r0
 8000268:	2b00      	cmp	r3, #0
 800026a:	d001      	beq.n	8000270 <SystemClock_Config+0x84>
  {
    Error_Handler();
 800026c:	f000 f834 	bl	80002d8 <Error_Handler>
  }
}
 8000270:	bf00      	nop
 8000272:	3758      	adds	r7, #88	; 0x58
 8000274:	46bd      	mov	sp, r7
 8000276:	bd80      	pop	{r7, pc}

08000278 <MX_GPIO_Init>:
  * @brief GPIO Initialization Function
  * @param None
  * @retval None
  */
static void MX_GPIO_Init(void)
{
 8000278:	b580      	push	{r7, lr}
 800027a:	b086      	sub	sp, #24
 800027c:	af00      	add	r7, sp, #0
  GPIO_InitTypeDef GPIO_InitStruct = {0};
 800027e:	1d3b      	adds	r3, r7, #4
 8000280:	2200      	movs	r2, #0
 8000282:	601a      	str	r2, [r3, #0]
 8000284:	605a      	str	r2, [r3, #4]
 8000286:	609a      	str	r2, [r3, #8]
 8000288:	60da      	str	r2, [r3, #12]
 800028a:	611a      	str	r2, [r3, #16]

  /* GPIO Ports Clock Enable */
  __HAL_RCC_GPIOA_CLK_ENABLE();
 800028c:	4b11      	ldr	r3, [pc, #68]	; (80002d4 <MX_GPIO_Init+0x5c>)
 800028e:	6cdb      	ldr	r3, [r3, #76]	; 0x4c
 8000290:	4a10      	ldr	r2, [pc, #64]	; (80002d4 <MX_GPIO_Init+0x5c>)
 8000292:	f043 0301 	orr.w	r3, r3, #1
 8000296:	64d3      	str	r3, [r2, #76]	; 0x4c
 8000298:	4b0e      	ldr	r3, [pc, #56]	; (80002d4 <MX_GPIO_Init+0x5c>)
 800029a:	6cdb      	ldr	r3, [r3, #76]	; 0x4c
 800029c:	f003 0301 	and.w	r3, r3, #1
 80002a0:	603b      	str	r3, [r7, #0]
 80002a2:	683b      	ldr	r3, [r7, #0]

  /*Configure GPIO pin Output Level */
  HAL_GPIO_WritePin(LED1_GPIO_Port, LED1_Pin, GPIO_PIN_RESET);
 80002a4:	2200      	movs	r2, #0
 80002a6:	2120      	movs	r1, #32
 80002a8:	f04f 4090 	mov.w	r0, #1207959552	; 0x48000000
 80002ac:	f000 fbcc 	bl	8000a48 <HAL_GPIO_WritePin>

  /*Configure GPIO pin : LED1_Pin */
  GPIO_InitStruct.Pin = LED1_Pin;
 80002b0:	2320      	movs	r3, #32
 80002b2:	607b      	str	r3, [r7, #4]
  GPIO_InitStruct.Mode = GPIO_MODE_OUTPUT_PP;
 80002b4:	2301      	movs	r3, #1
 80002b6:	60bb      	str	r3, [r7, #8]
  GPIO_InitStruct.Pull = GPIO_NOPULL;
 80002b8:	2300      	movs	r3, #0
 80002ba:	60fb      	str	r3, [r7, #12]
  GPIO_InitStruct.Speed = GPIO_SPEED_FREQ_LOW;
 80002bc:	2300      	movs	r3, #0
 80002be:	613b      	str	r3, [r7, #16]
  HAL_GPIO_Init(LED1_GPIO_Port, &GPIO_InitStruct);
 80002c0:	1d3b      	adds	r3, r7, #4
 80002c2:	4619      	mov	r1, r3
 80002c4:	f04f 4090 	mov.w	r0, #1207959552	; 0x48000000
 80002c8:	f000 fa14 	bl	80006f4 <HAL_GPIO_Init>

}
 80002cc:	bf00      	nop
 80002ce:	3718      	adds	r7, #24
 80002d0:	46bd      	mov	sp, r7
 80002d2:	bd80      	pop	{r7, pc}
 80002d4:	40021000 	.word	0x40021000

080002d8 <Error_Handler>:
/**
  * @brief  This function is executed in case of error occurrence.
  * @retval None
  */
void Error_Handler(void)
{
 80002d8:	b480      	push	{r7}
 80002da:	af00      	add	r7, sp, #0
  \details Disables IRQ interrupts by setting the I-bit in the CPSR.
           Can only be executed in Privileged modes.
 */
__STATIC_FORCEINLINE void __disable_irq(void)
{
  __ASM volatile ("cpsid i" : : : "memory");
 80002dc:	b672      	cpsid	i
}
 80002de:	bf00      	nop
  /* USER CODE BEGIN Error_Handler_Debug */
  /* User can add his own implementation to report the HAL error return state */
  __disable_irq();
  while (1)
 80002e0:	e7fe      	b.n	80002e0 <Error_Handler+0x8>
	...

080002e4 <HAL_MspInit>:
/* USER CODE END 0 */
/**
  * Initializes the Global MSP.
  */
void HAL_MspInit(void)
{
 80002e4:	b480      	push	{r7}
 80002e6:	b083      	sub	sp, #12
 80002e8:	af00      	add	r7, sp, #0
  /* USER CODE BEGIN MspInit 0 */

  /* USER CODE END MspInit 0 */

  __HAL_RCC_SYSCFG_CLK_ENABLE();
 80002ea:	4b0f      	ldr	r3, [pc, #60]	; (8000328 <HAL_MspInit+0x44>)
 80002ec:	6e1b      	ldr	r3, [r3, #96]	; 0x60
 80002ee:	4a0e      	ldr	r2, [pc, #56]	; (8000328 <HAL_MspInit+0x44>)
 80002f0:	f043 0301 	orr.w	r3, r3, #1
 80002f4:	6613      	str	r3, [r2, #96]	; 0x60
 80002f6:	4b0c      	ldr	r3, [pc, #48]	; (8000328 <HAL_MspInit+0x44>)
 80002f8:	6e1b      	ldr	r3, [r3, #96]	; 0x60
 80002fa:	f003 0301 	and.w	r3, r3, #1
 80002fe:	607b      	str	r3, [r7, #4]
 8000300:	687b      	ldr	r3, [r7, #4]
  __HAL_RCC_PWR_CLK_ENABLE();
 8000302:	4b09      	ldr	r3, [pc, #36]	; (8000328 <HAL_MspInit+0x44>)
 8000304:	6d9b      	ldr	r3, [r3, #88]	; 0x58
 8000306:	4a08      	ldr	r2, [pc, #32]	; (8000328 <HAL_MspInit+0x44>)
 8000308:	f043 5380 	orr.w	r3, r3, #268435456	; 0x10000000
 800030c:	6593      	str	r3, [r2, #88]	; 0x58
 800030e:	4b06      	ldr	r3, [pc, #24]	; (8000328 <HAL_MspInit+0x44>)
 8000310:	6d9b      	ldr	r3, [r3, #88]	; 0x58
 8000312:	f003 5380 	and.w	r3, r3, #268435456	; 0x10000000
 8000316:	603b      	str	r3, [r7, #0]
 8000318:	683b      	ldr	r3, [r7, #0]
  /* System interrupt init*/

  /* USER CODE BEGIN MspInit 1 */

  /* USER CODE END MspInit 1 */
}
 800031a:	bf00      	nop
 800031c:	370c      	adds	r7, #12
 800031e:	46bd      	mov	sp, r7
 8000320:	f85d 7b04 	ldr.w	r7, [sp], #4
 8000324:	4770      	bx	lr
 8000326:	bf00      	nop
 8000328:	40021000 	.word	0x40021000

0800032c <NMI_Handler>:
/******************************************************************************/
/**
  * @brief This function handles Non maskable interrupt.
  */
void NMI_Handler(void)
{
 800032c:	b480      	push	{r7}
 800032e:	af00      	add	r7, sp, #0
  /* USER CODE BEGIN NonMaskableInt_IRQn 0 */

  /* USER CODE END NonMaskableInt_IRQn 0 */
  /* USER CODE BEGIN NonMaskableInt_IRQn 1 */
  while (1)
 8000330:	e7fe      	b.n	8000330 <NMI_Handler+0x4>

08000332 <HardFault_Handler>:

/**
  * @brief This function handles Hard fault interrupt.
  */
void HardFault_Handler(void)
{
 8000332:	b480      	push	{r7}
 8000334:	af00      	add	r7, sp, #0
  /* USER CODE BEGIN HardFault_IRQn 0 */

  /* USER CODE END HardFault_IRQn 0 */
  while (1)
 8000336:	e7fe      	b.n	8000336 <HardFault_Handler+0x4>

08000338 <MemManage_Handler>:

/**
  * @brief This function handles Memory management fault.
  */
void MemManage_Handler(void)
{
 8000338:	b480      	push	{r7}
 800033a:	af00      	add	r7, sp, #0
  /* USER CODE BEGIN MemoryManagement_IRQn 0 */

  /* USER CODE END MemoryManagement_IRQn 0 */
  while (1)
 800033c:	e7fe      	b.n	800033c <MemManage_Handler+0x4>

0800033e <BusFault_Handler>:

/**
  * @brief This function handles Prefetch fault, memory access fault.
  */
void BusFault_Handler(void)
{
 800033e:	b480      	push	{r7}
 8000340:	af00      	add	r7, sp, #0
  /* USER CODE BEGIN BusFault_IRQn 0 */

  /* USER CODE END BusFault_IRQn 0 */
  while (1)
 8000342:	e7fe      	b.n	8000342 <BusFault_Handler+0x4>

08000344 <UsageFault_Handler>:

/**
  * @brief This function handles Undefined instruction or illegal state.
  */
void UsageFault_Handler(void)
{
 8000344:	b480      	push	{r7}
 8000346:	af00      	add	r7, sp, #0
  /* USER CODE BEGIN UsageFault_IRQn 0 */

  /* USER CODE END UsageFault_IRQn 0 */
  while (1)
 8000348:	e7fe      	b.n	8000348 <UsageFault_Handler+0x4>

0800034a <SVC_Handler>:

/**
  * @brief This function handles System service call via SWI instruction.
  */
void SVC_Handler(void)
{
 800034a:	b480      	push	{r7}
 800034c:	af00      	add	r7, sp, #0

  /* USER CODE END SVCall_IRQn 0 */
  /* USER CODE BEGIN SVCall_IRQn 1 */

  /* USER CODE END SVCall_IRQn 1 */
}
 800034e:	bf00      	nop
 8000350:	46bd      	mov	sp, r7
 8000352:	f85d 7b04 	ldr.w	r7, [sp], #4
 8000356:	4770      	bx	lr

08000358 <DebugMon_Handler>:

/**
  * @brief This function handles Debug monitor.
  */
void DebugMon_Handler(void)
{
 8000358:	b480      	push	{r7}
 800035a:	af00      	add	r7, sp, #0

  /* USER CODE END DebugMonitor_IRQn 0 */
  /* USER CODE BEGIN DebugMonitor_IRQn 1 */

  /* USER CODE END DebugMonitor_IRQn 1 */
}
 800035c:	bf00      	nop
 800035e:	46bd      	mov	sp, r7
 8000360:	f85d 7b04 	ldr.w	r7, [sp], #4
 8000364:	4770      	bx	lr

08000366 <PendSV_Handler>:

/**
  * @brief This function handles Pendable request for system service.
  */
void PendSV_Handler(void)
{
 8000366:	b480      	push	{r7}
 8000368:	af00      	add	r7, sp, #0

  /* USER CODE END PendSV_IRQn 0 */
  /* USER CODE BEGIN PendSV_IRQn 1 */

  /* USER CODE END PendSV_IRQn 1 */
}
 800036a:	bf00      	nop
 800036c:	46bd      	mov	sp, r7
 800036e:	f85d 7b04 	ldr.w	r7, [sp], #4
 8000372:	4770      	bx	lr

08000374 <SysTick_Handler>:

/**
  * @brief This function handles System tick timer.
  */
void SysTick_Handler(void)
{
 8000374:	b580      	push	{r7, lr}
 8000376:	af00      	add	r7, sp, #0
  /* USER CODE BEGIN SysTick_IRQn 0 */

  /* USER CODE END SysTick_IRQn 0 */
  HAL_IncTick();
 8000378:	f000 f892 	bl	80004a0 <HAL_IncTick>
  /* USER CODE BEGIN SysTick_IRQn 1 */

  /* USER CODE END SysTick_IRQn 1 */
}
 800037c:	bf00      	nop
 800037e:	bd80      	pop	{r7, pc}

08000380 <SystemInit>:
  * @brief  Setup the microcontroller system.
  * @retval None
  */

void SystemInit(void)
{
 8000380:	b480      	push	{r7}
 8000382:	af00      	add	r7, sp, #0
  SCB->VTOR = VECT_TAB_BASE_ADDRESS | VECT_TAB_OFFSET;
#endif

  /* FPU settings ------------------------------------------------------------*/
#if (__FPU_PRESENT == 1) && (__FPU_USED == 1)
  SCB->CPACR |= ((3UL << 20U)|(3UL << 22U));  /* set CP10 and CP11 Full Access */
 8000384:	4b06      	ldr	r3, [pc, #24]	; (80003a0 <SystemInit+0x20>)
 8000386:	f8d3 3088 	ldr.w	r3, [r3, #136]	; 0x88
 800038a:	4a05      	ldr	r2, [pc, #20]	; (80003a0 <SystemInit+0x20>)
 800038c:	f443 0370 	orr.w	r3, r3, #15728640	; 0xf00000
 8000390:	f8c2 3088 	str.w	r3, [r2, #136]	; 0x88
#endif
}
 8000394:	bf00      	nop
 8000396:	46bd      	mov	sp, r7
 8000398:	f85d 7b04 	ldr.w	r7, [sp], #4
 800039c:	4770      	bx	lr
 800039e:	bf00      	nop
 80003a0:	e000ed00 	.word	0xe000ed00

080003a4 <Reset_Handler>:

    .section	.text.Reset_Handler
	.weak	Reset_Handler
	.type	Reset_Handler, %function
Reset_Handler:
  ldr   sp, =_estack    /* Set stack pointer */
 80003a4:	f8df d034 	ldr.w	sp, [pc, #52]	; 80003dc <LoopForever+0x2>

/* Call the clock system initialization function.*/
    bl  SystemInit
 80003a8:	f7ff ffea 	bl	8000380 <SystemInit>

/* Copy the data segment initializers from flash to SRAM */
  ldr r0, =_sdata
 80003ac:	480c      	ldr	r0, [pc, #48]	; (80003e0 <LoopForever+0x6>)
  ldr r1, =_edata
 80003ae:	490d      	ldr	r1, [pc, #52]	; (80003e4 <LoopForever+0xa>)
  ldr r2, =_sidata
 80003b0:	4a0d      	ldr	r2, [pc, #52]	; (80003e8 <LoopForever+0xe>)
  movs r3, #0
 80003b2:	2300      	movs	r3, #0
  b LoopCopyDataInit
 80003b4:	e002      	b.n	80003bc <LoopCopyDataInit>

080003b6 <CopyDataInit>:

CopyDataInit:
  ldr r4, [r2, r3]
 80003b6:	58d4      	ldr	r4, [r2, r3]
  str r4, [r0, r3]
 80003b8:	50c4      	str	r4, [r0, r3]
  adds r3, r3, #4
 80003ba:	3304      	adds	r3, #4

080003bc <LoopCopyDataInit>:

LoopCopyDataInit:
  adds r4, r0, r3
 80003bc:	18c4      	adds	r4, r0, r3
  cmp r4, r1
 80003be:	428c      	cmp	r4, r1
  bcc CopyDataInit
 80003c0:	d3f9      	bcc.n	80003b6 <CopyDataInit>
  
/* Zero fill the bss segment. */
  ldr r2, =_sbss
 80003c2:	4a0a      	ldr	r2, [pc, #40]	; (80003ec <LoopForever+0x12>)
  ldr r4, =_ebss
 80003c4:	4c0a      	ldr	r4, [pc, #40]	; (80003f0 <LoopForever+0x16>)
  movs r3, #0
 80003c6:	2300      	movs	r3, #0
  b LoopFillZerobss
 80003c8:	e001      	b.n	80003ce <LoopFillZerobss>

080003ca <FillZerobss>:

FillZerobss:
  str  r3, [r2]
 80003ca:	6013      	str	r3, [r2, #0]
  adds r2, r2, #4
 80003cc:	3204      	adds	r2, #4

080003ce <LoopFillZerobss>:

LoopFillZerobss:
  cmp r2, r4
 80003ce:	42a2      	cmp	r2, r4
  bcc FillZerobss
 80003d0:	d3fb      	bcc.n	80003ca <FillZerobss>

/* Call static constructors */
    bl __libc_init_array
 80003d2:	f001 f983 	bl	80016dc <__libc_init_array>
/* Call the application's entry point.*/
	bl	main
 80003d6:	f7ff fef7 	bl	80001c8 <main>

080003da <LoopForever>:

LoopForever:
    b LoopForever
 80003da:	e7fe      	b.n	80003da <LoopForever>
  ldr   sp, =_estack    /* Set stack pointer */
 80003dc:	20018000 	.word	0x20018000
  ldr r0, =_sdata
 80003e0:	20000000 	.word	0x20000000
  ldr r1, =_edata
 80003e4:	2000000c 	.word	0x2000000c
  ldr r2, =_sidata
 80003e8:	08001794 	.word	0x08001794
  ldr r2, =_sbss
 80003ec:	2000000c 	.word	0x2000000c
  ldr r4, =_ebss
 80003f0:	2000002c 	.word	0x2000002c

080003f4 <ADC1_2_IRQHandler>:
 * @retval : None
*/
    .section	.text.Default_Handler,"ax",%progbits
Default_Handler:
Infinite_Loop:
	b	Infinite_Loop
 80003f4:	e7fe      	b.n	80003f4 <ADC1_2_IRQHandler>

080003f6 <HAL_Init>:
  *         each 1ms in the SysTick_Handler() interrupt handler.
  *
  * @retval HAL status
  */
HAL_StatusTypeDef HAL_Init(void)
{
 80003f6:	b580      	push	{r7, lr}
 80003f8:	b082      	sub	sp, #8
 80003fa:	af00      	add	r7, sp, #0
  HAL_StatusTypeDef  status = HAL_OK;
 80003fc:	2300      	movs	r3, #0
 80003fe:	71fb      	strb	r3, [r7, #7]
#if (PREFETCH_ENABLE != 0)
  __HAL_FLASH_PREFETCH_BUFFER_ENABLE();
#endif /* PREFETCH_ENABLE */

  /* Set Interrupt Group Priority */
  HAL_NVIC_SetPriorityGrouping(NVIC_PRIORITYGROUP_4);
 8000400:	2003      	movs	r0, #3
 8000402:	f000 f943 	bl	800068c <HAL_NVIC_SetPriorityGrouping>

  /* Use SysTick as time base source and configure 1ms tick (default clock after Reset is MSI) */
  if (HAL_InitTick(TICK_INT_PRIORITY) != HAL_OK)
 8000406:	200f      	movs	r0, #15
 8000408:	f000 f80e 	bl	8000428 <HAL_InitTick>
 800040c:	4603      	mov	r3, r0
 800040e:	2b00      	cmp	r3, #0
 8000410:	d002      	beq.n	8000418 <HAL_Init+0x22>
  {
    status = HAL_ERROR;
 8000412:	2301      	movs	r3, #1
 8000414:	71fb      	strb	r3, [r7, #7]
 8000416:	e001      	b.n	800041c <HAL_Init+0x26>
  }
  else
  {
    /* Init the low level hardware */
    HAL_MspInit();
 8000418:	f7ff ff64 	bl	80002e4 <HAL_MspInit>
  }

  /* Return function status */
  return status;
 800041c:	79fb      	ldrb	r3, [r7, #7]
}
 800041e:	4618      	mov	r0, r3
 8000420:	3708      	adds	r7, #8
 8000422:	46bd      	mov	sp, r7
 8000424:	bd80      	pop	{r7, pc}
	...

08000428 <HAL_InitTick>:
  *       implementation  in user file.
  * @param TickPriority  Tick interrupt priority.
  * @retval HAL status
  */
__weak HAL_StatusTypeDef HAL_InitTick(uint32_t TickPriority)
{
 8000428:	b580      	push	{r7, lr}
 800042a:	b084      	sub	sp, #16
 800042c:	af00      	add	r7, sp, #0
 800042e:	6078      	str	r0, [r7, #4]
  HAL_StatusTypeDef  status = HAL_OK;
 8000430:	2300      	movs	r3, #0
 8000432:	73fb      	strb	r3, [r7, #15]

  /* Check uwTickFreq for MisraC 2012 (even if uwTickFreq is a enum type that doesn't take the value zero)*/
  if ((uint32_t)uwTickFreq != 0U)
 8000434:	4b17      	ldr	r3, [pc, #92]	; (8000494 <HAL_InitTick+0x6c>)
 8000436:	781b      	ldrb	r3, [r3, #0]
 8000438:	2b00      	cmp	r3, #0
 800043a:	d023      	beq.n	8000484 <HAL_InitTick+0x5c>
  {
    /*Configure the SysTick to have interrupt in 1ms time basis*/
    if (HAL_SYSTICK_Config(SystemCoreClock / (1000U / (uint32_t)uwTickFreq)) == 0U)
 800043c:	4b16      	ldr	r3, [pc, #88]	; (8000498 <HAL_InitTick+0x70>)
 800043e:	681a      	ldr	r2, [r3, #0]
 8000440:	4b14      	ldr	r3, [pc, #80]	; (8000494 <HAL_InitTick+0x6c>)
 8000442:	781b      	ldrb	r3, [r3, #0]
 8000444:	4619      	mov	r1, r3
 8000446:	f44f 737a 	mov.w	r3, #1000	; 0x3e8
 800044a:	fbb3 f3f1 	udiv	r3, r3, r1
 800044e:	fbb2 f3f3 	udiv	r3, r2, r3
 8000452:	4618      	mov	r0, r3
 8000454:	f000 f941 	bl	80006da <HAL_SYSTICK_Config>
 8000458:	4603      	mov	r3, r0
 800045a:	2b00      	cmp	r3, #0
 800045c:	d10f      	bne.n	800047e <HAL_InitTick+0x56>
    {
      /* Configure the SysTick IRQ priority */
      if (TickPriority < (1UL << __NVIC_PRIO_BITS))
 800045e:	687b      	ldr	r3, [r7, #4]
 8000460:	2b0f      	cmp	r3, #15
 8000462:	d809      	bhi.n	8000478 <HAL_InitTick+0x50>
      {
        HAL_NVIC_SetPriority(SysTick_IRQn, TickPriority, 0U);
 8000464:	2200      	movs	r2, #0
 8000466:	6879      	ldr	r1, [r7, #4]
 8000468:	f04f 30ff 	mov.w	r0, #4294967295
 800046c:	f000 f919 	bl	80006a2 <HAL_NVIC_SetPriority>
        uwTickPrio = TickPriority;
 8000470:	4a0a      	ldr	r2, [pc, #40]	; (800049c <HAL_InitTick+0x74>)
 8000472:	687b      	ldr	r3, [r7, #4]
 8000474:	6013      	str	r3, [r2, #0]
 8000476:	e007      	b.n	8000488 <HAL_InitTick+0x60>
      }
      else
      {
        status = HAL_ERROR;
 8000478:	2301      	movs	r3, #1
 800047a:	73fb      	strb	r3, [r7, #15]
 800047c:	e004      	b.n	8000488 <HAL_InitTick+0x60>
      }
    }
    else
    {
      status = HAL_ERROR;
 800047e:	2301      	movs	r3, #1
 8000480:	73fb      	strb	r3, [r7, #15]
 8000482:	e001      	b.n	8000488 <HAL_InitTick+0x60>
    }
  }
  else
  {
    status = HAL_ERROR;
 8000484:	2301      	movs	r3, #1
 8000486:	73fb      	strb	r3, [r7, #15]
  }

  /* Return function status */
  return status;
 8000488:	7bfb      	ldrb	r3, [r7, #15]
}
 800048a:	4618      	mov	r0, r3
 800048c:	3710      	adds	r7, #16
 800048e:	46bd      	mov	sp, r7
 8000490:	bd80      	pop	{r7, pc}
 8000492:	bf00      	nop
 8000494:	20000008 	.word	0x20000008
 8000498:	20000000 	.word	0x20000000
 800049c:	20000004 	.word	0x20000004

080004a0 <HAL_IncTick>:
 * @note This function is declared as __weak to be overwritten in case of other
  *      implementations in user file.
  * @retval None
  */
__weak void HAL_IncTick(void)
{
 80004a0:	b480      	push	{r7}
 80004a2:	af00      	add	r7, sp, #0
  uwTick += (uint32_t)uwTickFreq;
 80004a4:	4b06      	ldr	r3, [pc, #24]	; (80004c0 <HAL_IncTick+0x20>)
 80004a6:	781b      	ldrb	r3, [r3, #0]
 80004a8:	461a      	mov	r2, r3
 80004aa:	4b06      	ldr	r3, [pc, #24]	; (80004c4 <HAL_IncTick+0x24>)
 80004ac:	681b      	ldr	r3, [r3, #0]
 80004ae:	4413      	add	r3, r2
 80004b0:	4a04      	ldr	r2, [pc, #16]	; (80004c4 <HAL_IncTick+0x24>)
 80004b2:	6013      	str	r3, [r2, #0]
}
 80004b4:	bf00      	nop
 80004b6:	46bd      	mov	sp, r7
 80004b8:	f85d 7b04 	ldr.w	r7, [sp], #4
 80004bc:	4770      	bx	lr
 80004be:	bf00      	nop
 80004c0:	20000008 	.word	0x20000008
 80004c4:	20000028 	.word	0x20000028

080004c8 <HAL_GetTick>:
  * @note This function is declared as __weak to be overwritten in case of other
  *       implementations in user file.
  * @retval tick value
  */
__weak uint32_t HAL_GetTick(void)
{
 80004c8:	b480      	push	{r7}
 80004ca:	af00      	add	r7, sp, #0
  return uwTick;
 80004cc:	4b03      	ldr	r3, [pc, #12]	; (80004dc <HAL_GetTick+0x14>)
 80004ce:	681b      	ldr	r3, [r3, #0]
}
 80004d0:	4618      	mov	r0, r3
 80004d2:	46bd      	mov	sp, r7
 80004d4:	f85d 7b04 	ldr.w	r7, [sp], #4
 80004d8:	4770      	bx	lr
 80004da:	bf00      	nop
 80004dc:	20000028 	.word	0x20000028

080004e0 <HAL_Delay>:
  *       implementations in user file.
  * @param Delay  specifies the delay time length, in milliseconds.
  * @retval None
  */
__weak void HAL_Delay(uint32_t Delay)
{
 80004e0:	b580      	push	{r7, lr}
 80004e2:	b084      	sub	sp, #16
 80004e4:	af00      	add	r7, sp, #0
 80004e6:	6078      	str	r0, [r7, #4]
  uint32_t tickstart = HAL_GetTick();
 80004e8:	f7ff ffee 	bl	80004c8 <HAL_GetTick>
 80004ec:	60b8      	str	r0, [r7, #8]
  uint32_t wait = Delay;
 80004ee:	687b      	ldr	r3, [r7, #4]
 80004f0:	60fb      	str	r3, [r7, #12]

  /* Add a period to guaranty minimum wait */
  if (wait < HAL_MAX_DELAY)
 80004f2:	68fb      	ldr	r3, [r7, #12]
 80004f4:	f1b3 3fff 	cmp.w	r3, #4294967295
 80004f8:	d005      	beq.n	8000506 <HAL_Delay+0x26>
  {
    wait += (uint32_t)uwTickFreq;
 80004fa:	4b0a      	ldr	r3, [pc, #40]	; (8000524 <HAL_Delay+0x44>)
 80004fc:	781b      	ldrb	r3, [r3, #0]
 80004fe:	461a      	mov	r2, r3
 8000500:	68fb      	ldr	r3, [r7, #12]
 8000502:	4413      	add	r3, r2
 8000504:	60fb      	str	r3, [r7, #12]
  }

  while ((HAL_GetTick() - tickstart) < wait)
 8000506:	bf00      	nop
 8000508:	f7ff ffde 	bl	80004c8 <HAL_GetTick>
 800050c:	4602      	mov	r2, r0
 800050e:	68bb      	ldr	r3, [r7, #8]
 8000510:	1ad3      	subs	r3, r2, r3
 8000512:	68fa      	ldr	r2, [r7, #12]
 8000514:	429a      	cmp	r2, r3
 8000516:	d8f7      	bhi.n	8000508 <HAL_Delay+0x28>
  {
  }
}
 8000518:	bf00      	nop
 800051a:	bf00      	nop
 800051c:	3710      	adds	r7, #16
 800051e:	46bd      	mov	sp, r7
 8000520:	bd80      	pop	{r7, pc}
 8000522:	bf00      	nop
 8000524:	20000008 	.word	0x20000008

08000528 <__NVIC_SetPriorityGrouping>:
           In case of a conflict between priority grouping and available
           priority bits (__NVIC_PRIO_BITS), the smallest possible priority group is set.
  \param [in]      PriorityGroup  Priority grouping field.
 */
__STATIC_INLINE void __NVIC_SetPriorityGrouping(uint32_t PriorityGroup)
{
 8000528:	b480      	push	{r7}
 800052a:	b085      	sub	sp, #20
 800052c:	af00      	add	r7, sp, #0
 800052e:	6078      	str	r0, [r7, #4]
  uint32_t reg_value;
  uint32_t PriorityGroupTmp = (PriorityGroup & (uint32_t)0x07UL);             /* only values 0..7 are used          */
 8000530:	687b      	ldr	r3, [r7, #4]
 8000532:	f003 0307 	and.w	r3, r3, #7
 8000536:	60fb      	str	r3, [r7, #12]

  reg_value  =  SCB->AIRCR;                                                   /* read old register configuration    */
 8000538:	4b0c      	ldr	r3, [pc, #48]	; (800056c <__NVIC_SetPriorityGrouping+0x44>)
 800053a:	68db      	ldr	r3, [r3, #12]
 800053c:	60bb      	str	r3, [r7, #8]
  reg_value &= ~((uint32_t)(SCB_AIRCR_VECTKEY_Msk | SCB_AIRCR_PRIGROUP_Msk)); /* clear bits to change               */
 800053e:	68ba      	ldr	r2, [r7, #8]
 8000540:	f64f 03ff 	movw	r3, #63743	; 0xf8ff
 8000544:	4013      	ands	r3, r2
 8000546:	60bb      	str	r3, [r7, #8]
  reg_value  =  (reg_value                                   |
                ((uint32_t)0x5FAUL << SCB_AIRCR_VECTKEY_Pos) |
                (PriorityGroupTmp << SCB_AIRCR_PRIGROUP_Pos)  );              /* Insert write key and priority group */
 8000548:	68fb      	ldr	r3, [r7, #12]
 800054a:	021a      	lsls	r2, r3, #8
                ((uint32_t)0x5FAUL << SCB_AIRCR_VECTKEY_Pos) |
 800054c:	68bb      	ldr	r3, [r7, #8]
 800054e:	4313      	orrs	r3, r2
  reg_value  =  (reg_value                                   |
 8000550:	f043 63bf 	orr.w	r3, r3, #100139008	; 0x5f80000
 8000554:	f443 3300 	orr.w	r3, r3, #131072	; 0x20000
 8000558:	60bb      	str	r3, [r7, #8]
  SCB->AIRCR =  reg_value;
 800055a:	4a04      	ldr	r2, [pc, #16]	; (800056c <__NVIC_SetPriorityGrouping+0x44>)
 800055c:	68bb      	ldr	r3, [r7, #8]
 800055e:	60d3      	str	r3, [r2, #12]
}
 8000560:	bf00      	nop
 8000562:	3714      	adds	r7, #20
 8000564:	46bd      	mov	sp, r7
 8000566:	f85d 7b04 	ldr.w	r7, [sp], #4
 800056a:	4770      	bx	lr
 800056c:	e000ed00 	.word	0xe000ed00

08000570 <__NVIC_GetPriorityGrouping>:
  \brief   Get Priority Grouping
  \details Reads the priority grouping field from the NVIC Interrupt Controller.
  \return                Priority grouping field (SCB->AIRCR [10:8] PRIGROUP field).
 */
__STATIC_INLINE uint32_t __NVIC_GetPriorityGrouping(void)
{
 8000570:	b480      	push	{r7}
 8000572:	af00      	add	r7, sp, #0
  return ((uint32_t)((SCB->AIRCR & SCB_AIRCR_PRIGROUP_Msk) >> SCB_AIRCR_PRIGROUP_Pos));
 8000574:	4b04      	ldr	r3, [pc, #16]	; (8000588 <__NVIC_GetPriorityGrouping+0x18>)
 8000576:	68db      	ldr	r3, [r3, #12]
 8000578:	0a1b      	lsrs	r3, r3, #8
 800057a:	f003 0307 	and.w	r3, r3, #7
}
 800057e:	4618      	mov	r0, r3
 8000580:	46bd      	mov	sp, r7
 8000582:	f85d 7b04 	ldr.w	r7, [sp], #4
 8000586:	4770      	bx	lr
 8000588:	e000ed00 	.word	0xe000ed00

0800058c <__NVIC_SetPriority>:
  \param [in]      IRQn  Interrupt number.
  \param [in]  priority  Priority to set.
  \note    The priority cannot be set for every processor exception.
 */
__STATIC_INLINE void __NVIC_SetPriority(IRQn_Type IRQn, uint32_t priority)
{
 800058c:	b480      	push	{r7}
 800058e:	b083      	sub	sp, #12
 8000590:	af00      	add	r7, sp, #0
 8000592:	4603      	mov	r3, r0
 8000594:	6039      	str	r1, [r7, #0]
 8000596:	71fb      	strb	r3, [r7, #7]
  if ((int32_t)(IRQn) >= 0)
 8000598:	f997 3007 	ldrsb.w	r3, [r7, #7]
 800059c:	2b00      	cmp	r3, #0
 800059e:	db0a      	blt.n	80005b6 <__NVIC_SetPriority+0x2a>
  {
    NVIC->IP[((uint32_t)IRQn)]               = (uint8_t)((priority << (8U - __NVIC_PRIO_BITS)) & (uint32_t)0xFFUL);
 80005a0:	683b      	ldr	r3, [r7, #0]
 80005a2:	b2da      	uxtb	r2, r3
 80005a4:	490c      	ldr	r1, [pc, #48]	; (80005d8 <__NVIC_SetPriority+0x4c>)
 80005a6:	f997 3007 	ldrsb.w	r3, [r7, #7]
 80005aa:	0112      	lsls	r2, r2, #4
 80005ac:	b2d2      	uxtb	r2, r2
 80005ae:	440b      	add	r3, r1
 80005b0:	f883 2300 	strb.w	r2, [r3, #768]	; 0x300
  }
  else
  {
    SCB->SHP[(((uint32_t)IRQn) & 0xFUL)-4UL] = (uint8_t)((priority << (8U - __NVIC_PRIO_BITS)) & (uint32_t)0xFFUL);
  }
}
 80005b4:	e00a      	b.n	80005cc <__NVIC_SetPriority+0x40>
    SCB->SHP[(((uint32_t)IRQn) & 0xFUL)-4UL] = (uint8_t)((priority << (8U - __NVIC_PRIO_BITS)) & (uint32_t)0xFFUL);
 80005b6:	683b      	ldr	r3, [r7, #0]
 80005b8:	b2da      	uxtb	r2, r3
 80005ba:	4908      	ldr	r1, [pc, #32]	; (80005dc <__NVIC_SetPriority+0x50>)
 80005bc:	79fb      	ldrb	r3, [r7, #7]
 80005be:	f003 030f 	and.w	r3, r3, #15
 80005c2:	3b04      	subs	r3, #4
 80005c4:	0112      	lsls	r2, r2, #4
 80005c6:	b2d2      	uxtb	r2, r2
 80005c8:	440b      	add	r3, r1
 80005ca:	761a      	strb	r2, [r3, #24]
}
 80005cc:	bf00      	nop
 80005ce:	370c      	adds	r7, #12
 80005d0:	46bd      	mov	sp, r7
 80005d2:	f85d 7b04 	ldr.w	r7, [sp], #4
 80005d6:	4770      	bx	lr
 80005d8:	e000e100 	.word	0xe000e100
 80005dc:	e000ed00 	.word	0xe000ed00

080005e0 <NVIC_EncodePriority>:
  \param [in]   PreemptPriority  Preemptive priority value (starting from 0).
  \param [in]       SubPriority  Subpriority value (starting from 0).
  \return                        Encoded priority. Value can be used in the function \ref NVIC_SetPriority().
 */
__STATIC_INLINE uint32_t NVIC_EncodePriority (uint32_t PriorityGroup, uint32_t PreemptPriority, uint32_t SubPriority)
{
 80005e0:	b480      	push	{r7}
 80005e2:	b089      	sub	sp, #36	; 0x24
 80005e4:	af00      	add	r7, sp, #0
 80005e6:	60f8      	str	r0, [r7, #12]
 80005e8:	60b9      	str	r1, [r7, #8]
 80005ea:	607a      	str	r2, [r7, #4]
  uint32_t PriorityGroupTmp = (PriorityGroup & (uint32_t)0x07UL);   /* only values 0..7 are used          */
 80005ec:	68fb      	ldr	r3, [r7, #12]
 80005ee:	f003 0307 	and.w	r3, r3, #7
 80005f2:	61fb      	str	r3, [r7, #28]
  uint32_t PreemptPriorityBits;
  uint32_t SubPriorityBits;

  PreemptPriorityBits = ((7UL - PriorityGroupTmp) > (uint32_t)(__NVIC_PRIO_BITS)) ? (uint32_t)(__NVIC_PRIO_BITS) : (uint32_t)(7UL - PriorityGroupTmp);
 80005f4:	69fb      	ldr	r3, [r7, #28]
 80005f6:	f1c3 0307 	rsb	r3, r3, #7
 80005fa:	2b04      	cmp	r3, #4
 80005fc:	bf28      	it	cs
 80005fe:	2304      	movcs	r3, #4
 8000600:	61bb      	str	r3, [r7, #24]
  SubPriorityBits     = ((PriorityGroupTmp + (uint32_t)(__NVIC_PRIO_BITS)) < (uint32_t)7UL) ? (uint32_t)0UL : (uint32_t)((PriorityGroupTmp - 7UL) + (uint32_t)(__NVIC_PRIO_BITS));
 8000602:	69fb      	ldr	r3, [r7, #28]
 8000604:	3304      	adds	r3, #4
 8000606:	2b06      	cmp	r3, #6
 8000608:	d902      	bls.n	8000610 <NVIC_EncodePriority+0x30>
 800060a:	69fb      	ldr	r3, [r7, #28]
 800060c:	3b03      	subs	r3, #3
 800060e:	e000      	b.n	8000612 <NVIC_EncodePriority+0x32>
 8000610:	2300      	movs	r3, #0
 8000612:	617b      	str	r3, [r7, #20]

  return (
           ((PreemptPriority & (uint32_t)((1UL << (PreemptPriorityBits)) - 1UL)) << SubPriorityBits) |
 8000614:	f04f 32ff 	mov.w	r2, #4294967295
 8000618:	69bb      	ldr	r3, [r7, #24]
 800061a:	fa02 f303 	lsl.w	r3, r2, r3
 800061e:	43da      	mvns	r2, r3
 8000620:	68bb      	ldr	r3, [r7, #8]
 8000622:	401a      	ands	r2, r3
 8000624:	697b      	ldr	r3, [r7, #20]
 8000626:	409a      	lsls	r2, r3
           ((SubPriority     & (uint32_t)((1UL << (SubPriorityBits    )) - 1UL)))
 8000628:	f04f 31ff 	mov.w	r1, #4294967295
 800062c:	697b      	ldr	r3, [r7, #20]
 800062e:	fa01 f303 	lsl.w	r3, r1, r3
 8000632:	43d9      	mvns	r1, r3
 8000634:	687b      	ldr	r3, [r7, #4]
 8000636:	400b      	ands	r3, r1
           ((PreemptPriority & (uint32_t)((1UL << (PreemptPriorityBits)) - 1UL)) << SubPriorityBits) |
 8000638:	4313      	orrs	r3, r2
         );
}
 800063a:	4618      	mov	r0, r3
 800063c:	3724      	adds	r7, #36	; 0x24
 800063e:	46bd      	mov	sp, r7
 8000640:	f85d 7b04 	ldr.w	r7, [sp], #4
 8000644:	4770      	bx	lr
	...

08000648 <SysTick_Config>:
  \note    When the variable <b>__Vendor_SysTickConfig</b> is set to 1, then the
           function <b>SysTick_Config</b> is not included. In this case, the file <b><i>device</i>.h</b>
           must contain a vendor-specific implementation of this function.
 */
__STATIC_INLINE uint32_t SysTick_Config(uint32_t ticks)
{
 8000648:	b580      	push	{r7, lr}
 800064a:	b082      	sub	sp, #8
 800064c:	af00      	add	r7, sp, #0
 800064e:	6078      	str	r0, [r7, #4]
  if ((ticks - 1UL) > SysTick_LOAD_RELOAD_Msk)
 8000650:	687b      	ldr	r3, [r7, #4]
 8000652:	3b01      	subs	r3, #1
 8000654:	f1b3 7f80 	cmp.w	r3, #16777216	; 0x1000000
 8000658:	d301      	bcc.n	800065e <SysTick_Config+0x16>
  {
    return (1UL);                                                   /* Reload value impossible */
 800065a:	2301      	movs	r3, #1
 800065c:	e00f      	b.n	800067e <SysTick_Config+0x36>
  }

  SysTick->LOAD  = (uint32_t)(ticks - 1UL);                         /* set reload register */
 800065e:	4a0a      	ldr	r2, [pc, #40]	; (8000688 <SysTick_Config+0x40>)
 8000660:	687b      	ldr	r3, [r7, #4]
 8000662:	3b01      	subs	r3, #1
 8000664:	6053      	str	r3, [r2, #4]
  NVIC_SetPriority (SysTick_IRQn, (1UL << __NVIC_PRIO_BITS) - 1UL); /* set Priority for Systick Interrupt */
 8000666:	210f      	movs	r1, #15
 8000668:	f04f 30ff 	mov.w	r0, #4294967295
 800066c:	f7ff ff8e 	bl	800058c <__NVIC_SetPriority>
  SysTick->VAL   = 0UL;                                             /* Load the SysTick Counter Value */
 8000670:	4b05      	ldr	r3, [pc, #20]	; (8000688 <SysTick_Config+0x40>)
 8000672:	2200      	movs	r2, #0
 8000674:	609a      	str	r2, [r3, #8]
  SysTick->CTRL  = SysTick_CTRL_CLKSOURCE_Msk |
 8000676:	4b04      	ldr	r3, [pc, #16]	; (8000688 <SysTick_Config+0x40>)
 8000678:	2207      	movs	r2, #7
 800067a:	601a      	str	r2, [r3, #0]
                   SysTick_CTRL_TICKINT_Msk   |
                   SysTick_CTRL_ENABLE_Msk;                         /* Enable SysTick IRQ and SysTick Timer */
  return (0UL);                                                     /* Function successful */
 800067c:	2300      	movs	r3, #0
}
 800067e:	4618      	mov	r0, r3
 8000680:	3708      	adds	r7, #8
 8000682:	46bd      	mov	sp, r7
 8000684:	bd80      	pop	{r7, pc}
 8000686:	bf00      	nop
 8000688:	e000e010 	.word	0xe000e010

0800068c <HAL_NVIC_SetPriorityGrouping>:
  * @note   When the NVIC_PriorityGroup_0 is selected, IRQ pre-emption is no more possible.
  *         The pending IRQ priority will be managed only by the subpriority.
  * @retval None
  */
void HAL_NVIC_SetPriorityGrouping(uint32_t PriorityGroup)
{
 800068c:	b580      	push	{r7, lr}
 800068e:	b082      	sub	sp, #8
 8000690:	af00      	add	r7, sp, #0
 8000692:	6078      	str	r0, [r7, #4]
  /* Check the parameters */
  assert_param(IS_NVIC_PRIORITY_GROUP(PriorityGroup));

  /* Set the PRIGROUP[10:8] bits according to the PriorityGroup parameter value */
  NVIC_SetPriorityGrouping(PriorityGroup);
 8000694:	6878      	ldr	r0, [r7, #4]
 8000696:	f7ff ff47 	bl	8000528 <__NVIC_SetPriorityGrouping>
}
 800069a:	bf00      	nop
 800069c:	3708      	adds	r7, #8
 800069e:	46bd      	mov	sp, r7
 80006a0:	bd80      	pop	{r7, pc}

080006a2 <HAL_NVIC_SetPriority>:
  *         This parameter can be a value between 0 and 15
  *         A lower priority value indicates a higher priority.
  * @retval None
  */
void HAL_NVIC_SetPriority(IRQn_Type IRQn, uint32_t PreemptPriority, uint32_t SubPriority)
{
 80006a2:	b580      	push	{r7, lr}
 80006a4:	b086      	sub	sp, #24
 80006a6:	af00      	add	r7, sp, #0
 80006a8:	4603      	mov	r3, r0
 80006aa:	60b9      	str	r1, [r7, #8]
 80006ac:	607a      	str	r2, [r7, #4]
 80006ae:	73fb      	strb	r3, [r7, #15]
  uint32_t prioritygroup = 0x00;
 80006b0:	2300      	movs	r3, #0
 80006b2:	617b      	str	r3, [r7, #20]

  /* Check the parameters */
  assert_param(IS_NVIC_SUB_PRIORITY(SubPriority));
  assert_param(IS_NVIC_PREEMPTION_PRIORITY(PreemptPriority));

  prioritygroup = NVIC_GetPriorityGrouping();
 80006b4:	f7ff ff5c 	bl	8000570 <__NVIC_GetPriorityGrouping>
 80006b8:	6178      	str	r0, [r7, #20]

  NVIC_SetPriority(IRQn, NVIC_EncodePriority(prioritygroup, PreemptPriority, SubPriority));
 80006ba:	687a      	ldr	r2, [r7, #4]
 80006bc:	68b9      	ldr	r1, [r7, #8]
 80006be:	6978      	ldr	r0, [r7, #20]
 80006c0:	f7ff ff8e 	bl	80005e0 <NVIC_EncodePriority>
 80006c4:	4602      	mov	r2, r0
 80006c6:	f997 300f 	ldrsb.w	r3, [r7, #15]
 80006ca:	4611      	mov	r1, r2
 80006cc:	4618      	mov	r0, r3
 80006ce:	f7ff ff5d 	bl	800058c <__NVIC_SetPriority>
}
 80006d2:	bf00      	nop
 80006d4:	3718      	adds	r7, #24
 80006d6:	46bd      	mov	sp, r7
 80006d8:	bd80      	pop	{r7, pc}

080006da <HAL_SYSTICK_Config>:
  * @param  TicksNumb: Specifies the ticks Number of ticks between two interrupts.
  * @retval status:  - 0  Function succeeded.
  *                  - 1  Function failed.
  */
uint32_t HAL_SYSTICK_Config(uint32_t TicksNumb)
{
 80006da:	b580      	push	{r7, lr}
 80006dc:	b082      	sub	sp, #8
 80006de:	af00      	add	r7, sp, #0
 80006e0:	6078      	str	r0, [r7, #4]
   return SysTick_Config(TicksNumb);
 80006e2:	6878      	ldr	r0, [r7, #4]
 80006e4:	f7ff ffb0 	bl	8000648 <SysTick_Config>
 80006e8:	4603      	mov	r3, r0
}
 80006ea:	4618      	mov	r0, r3
 80006ec:	3708      	adds	r7, #8
 80006ee:	46bd      	mov	sp, r7
 80006f0:	bd80      	pop	{r7, pc}
	...

080006f4 <HAL_GPIO_Init>:
  * @param  GPIO_Init pointer to a GPIO_InitTypeDef structure that contains
  *         the configuration information for the specified GPIO peripheral.
  * @retval None
  */
void HAL_GPIO_Init(GPIO_TypeDef  *GPIOx, GPIO_InitTypeDef *GPIO_Init)
{
 80006f4:	b480      	push	{r7}
 80006f6:	b087      	sub	sp, #28
 80006f8:	af00      	add	r7, sp, #0
 80006fa:	6078      	str	r0, [r7, #4]
 80006fc:	6039      	str	r1, [r7, #0]
  uint32_t position = 0x00u;
 80006fe:	2300      	movs	r3, #0
 8000700:	617b      	str	r3, [r7, #20]
  assert_param(IS_GPIO_ALL_INSTANCE(GPIOx));
  assert_param(IS_GPIO_PIN(GPIO_Init->Pin));
  assert_param(IS_GPIO_MODE(GPIO_Init->Mode));

  /* Configure the port pins */
  while (((GPIO_Init->Pin) >> position) != 0x00u)
 8000702:	e17f      	b.n	8000a04 <HAL_GPIO_Init+0x310>
  {
    /* Get current io position */
    iocurrent = (GPIO_Init->Pin) & (1uL << position);
 8000704:	683b      	ldr	r3, [r7, #0]
 8000706:	681a      	ldr	r2, [r3, #0]
 8000708:	2101      	movs	r1, #1
 800070a:	697b      	ldr	r3, [r7, #20]
 800070c:	fa01 f303 	lsl.w	r3, r1, r3
 8000710:	4013      	ands	r3, r2
 8000712:	60fb      	str	r3, [r7, #12]

    if (iocurrent != 0x00u)
 8000714:	68fb      	ldr	r3, [r7, #12]
 8000716:	2b00      	cmp	r3, #0
 8000718:	f000 8171 	beq.w	80009fe <HAL_GPIO_Init+0x30a>
    {
      /*--------------------- GPIO Mode Configuration ------------------------*/
      /* In case of Output or Alternate function mode selection */
      if (((GPIO_Init->Mode & GPIO_MODE) == MODE_OUTPUT) || ((GPIO_Init->Mode & GPIO_MODE) == MODE_AF))
 800071c:	683b      	ldr	r3, [r7, #0]
 800071e:	685b      	ldr	r3, [r3, #4]
 8000720:	f003 0303 	and.w	r3, r3, #3
 8000724:	2b01      	cmp	r3, #1
 8000726:	d005      	beq.n	8000734 <HAL_GPIO_Init+0x40>
 8000728:	683b      	ldr	r3, [r7, #0]
 800072a:	685b      	ldr	r3, [r3, #4]
 800072c:	f003 0303 	and.w	r3, r3, #3
 8000730:	2b02      	cmp	r3, #2
 8000732:	d130      	bne.n	8000796 <HAL_GPIO_Init+0xa2>
      {
        /* Check the Speed parameter */
        assert_param(IS_GPIO_SPEED(GPIO_Init->Speed));

        /* Configure the IO Speed */
        temp = GPIOx->OSPEEDR;
 8000734:	687b      	ldr	r3, [r7, #4]
 8000736:	689b      	ldr	r3, [r3, #8]
 8000738:	613b      	str	r3, [r7, #16]
        temp &= ~(GPIO_OSPEEDR_OSPEED0 << (position * 2u));
 800073a:	697b      	ldr	r3, [r7, #20]
 800073c:	005b      	lsls	r3, r3, #1
 800073e:	2203      	movs	r2, #3
 8000740:	fa02 f303 	lsl.w	r3, r2, r3
 8000744:	43db      	mvns	r3, r3
 8000746:	693a      	ldr	r2, [r7, #16]
 8000748:	4013      	ands	r3, r2
 800074a:	613b      	str	r3, [r7, #16]
        temp |= (GPIO_Init->Speed << (position * 2u));
 800074c:	683b      	ldr	r3, [r7, #0]
 800074e:	68da      	ldr	r2, [r3, #12]
 8000750:	697b      	ldr	r3, [r7, #20]
 8000752:	005b      	lsls	r3, r3, #1
 8000754:	fa02 f303 	lsl.w	r3, r2, r3
 8000758:	693a      	ldr	r2, [r7, #16]
 800075a:	4313      	orrs	r3, r2
 800075c:	613b      	str	r3, [r7, #16]
        GPIOx->OSPEEDR = temp;
 800075e:	687b      	ldr	r3, [r7, #4]
 8000760:	693a      	ldr	r2, [r7, #16]
 8000762:	609a      	str	r2, [r3, #8]

        /* Configure the IO Output Type */
        temp = GPIOx->OTYPER;
 8000764:	687b      	ldr	r3, [r7, #4]
 8000766:	685b      	ldr	r3, [r3, #4]
 8000768:	613b      	str	r3, [r7, #16]
        temp &= ~(GPIO_OTYPER_OT0 << position) ;
 800076a:	2201      	movs	r2, #1
 800076c:	697b      	ldr	r3, [r7, #20]
 800076e:	fa02 f303 	lsl.w	r3, r2, r3
 8000772:	43db      	mvns	r3, r3
 8000774:	693a      	ldr	r2, [r7, #16]
 8000776:	4013      	ands	r3, r2
 8000778:	613b      	str	r3, [r7, #16]
        temp |= (((GPIO_Init->Mode & OUTPUT_TYPE) >> OUTPUT_TYPE_Pos) << position);
 800077a:	683b      	ldr	r3, [r7, #0]
 800077c:	685b      	ldr	r3, [r3, #4]
 800077e:	091b      	lsrs	r3, r3, #4
 8000780:	f003 0201 	and.w	r2, r3, #1
 8000784:	697b      	ldr	r3, [r7, #20]
 8000786:	fa02 f303 	lsl.w	r3, r2, r3
 800078a:	693a      	ldr	r2, [r7, #16]
 800078c:	4313      	orrs	r3, r2
 800078e:	613b      	str	r3, [r7, #16]
        GPIOx->OTYPER = temp;
 8000790:	687b      	ldr	r3, [r7, #4]
 8000792:	693a      	ldr	r2, [r7, #16]
 8000794:	605a      	str	r2, [r3, #4]
      }

#if defined(STM32L471xx) || defined(STM32L475xx) || defined(STM32L476xx) || defined(STM32L485xx) || defined(STM32L486xx)

      /* In case of Analog mode, check if ADC control mode is selected */
      if((GPIO_Init->Mode & GPIO_MODE_ANALOG) == GPIO_MODE_ANALOG)
 8000796:	683b      	ldr	r3, [r7, #0]
 8000798:	685b      	ldr	r3, [r3, #4]
 800079a:	f003 0303 	and.w	r3, r3, #3
 800079e:	2b03      	cmp	r3, #3
 80007a0:	d118      	bne.n	80007d4 <HAL_GPIO_Init+0xe0>
      {
        /* Configure the IO Output Type */
        temp = GPIOx->ASCR;
 80007a2:	687b      	ldr	r3, [r7, #4]
 80007a4:	6adb      	ldr	r3, [r3, #44]	; 0x2c
 80007a6:	613b      	str	r3, [r7, #16]
        temp &= ~(GPIO_ASCR_ASC0 << position) ;
 80007a8:	2201      	movs	r2, #1
 80007aa:	697b      	ldr	r3, [r7, #20]
 80007ac:	fa02 f303 	lsl.w	r3, r2, r3
 80007b0:	43db      	mvns	r3, r3
 80007b2:	693a      	ldr	r2, [r7, #16]
 80007b4:	4013      	ands	r3, r2
 80007b6:	613b      	str	r3, [r7, #16]
        temp |= (((GPIO_Init->Mode & GPIO_MODE_ANALOG_ADC_CONTROL) >> 3) << position);
 80007b8:	683b      	ldr	r3, [r7, #0]
 80007ba:	685b      	ldr	r3, [r3, #4]
 80007bc:	08db      	lsrs	r3, r3, #3
 80007be:	f003 0201 	and.w	r2, r3, #1
 80007c2:	697b      	ldr	r3, [r7, #20]
 80007c4:	fa02 f303 	lsl.w	r3, r2, r3
 80007c8:	693a      	ldr	r2, [r7, #16]
 80007ca:	4313      	orrs	r3, r2
 80007cc:	613b      	str	r3, [r7, #16]
        GPIOx->ASCR = temp;
 80007ce:	687b      	ldr	r3, [r7, #4]
 80007d0:	693a      	ldr	r2, [r7, #16]
 80007d2:	62da      	str	r2, [r3, #44]	; 0x2c
      }

#endif /* STM32L471xx || STM32L475xx || STM32L476xx || STM32L485xx || STM32L486xx */

      /* Activate the Pull-up or Pull down resistor for the current IO */
      if ((GPIO_Init->Mode & GPIO_MODE) != MODE_ANALOG)
 80007d4:	683b      	ldr	r3, [r7, #0]
 80007d6:	685b      	ldr	r3, [r3, #4]
 80007d8:	f003 0303 	and.w	r3, r3, #3
 80007dc:	2b03      	cmp	r3, #3
 80007de:	d017      	beq.n	8000810 <HAL_GPIO_Init+0x11c>
      {
        /* Check the Pull parameter */
        assert_param(IS_GPIO_PULL(GPIO_Init->Pull));

        temp = GPIOx->PUPDR;
 80007e0:	687b      	ldr	r3, [r7, #4]
 80007e2:	68db      	ldr	r3, [r3, #12]
 80007e4:	613b      	str	r3, [r7, #16]
        temp &= ~(GPIO_PUPDR_PUPD0 << (position * 2U));
 80007e6:	697b      	ldr	r3, [r7, #20]
 80007e8:	005b      	lsls	r3, r3, #1
 80007ea:	2203      	movs	r2, #3
 80007ec:	fa02 f303 	lsl.w	r3, r2, r3
 80007f0:	43db      	mvns	r3, r3
 80007f2:	693a      	ldr	r2, [r7, #16]
 80007f4:	4013      	ands	r3, r2
 80007f6:	613b      	str	r3, [r7, #16]
        temp |= ((GPIO_Init->Pull) << (position * 2U));
 80007f8:	683b      	ldr	r3, [r7, #0]
 80007fa:	689a      	ldr	r2, [r3, #8]
 80007fc:	697b      	ldr	r3, [r7, #20]
 80007fe:	005b      	lsls	r3, r3, #1
 8000800:	fa02 f303 	lsl.w	r3, r2, r3
 8000804:	693a      	ldr	r2, [r7, #16]
 8000806:	4313      	orrs	r3, r2
 8000808:	613b      	str	r3, [r7, #16]
        GPIOx->PUPDR = temp;
 800080a:	687b      	ldr	r3, [r7, #4]
 800080c:	693a      	ldr	r2, [r7, #16]
 800080e:	60da      	str	r2, [r3, #12]
      }

      /* In case of Alternate function mode selection */
      if ((GPIO_Init->Mode & GPIO_MODE) == MODE_AF)
 8000810:	683b      	ldr	r3, [r7, #0]
 8000812:	685b      	ldr	r3, [r3, #4]
 8000814:	f003 0303 	and.w	r3, r3, #3
 8000818:	2b02      	cmp	r3, #2
 800081a:	d123      	bne.n	8000864 <HAL_GPIO_Init+0x170>
        /* Check the Alternate function parameters */
        assert_param(IS_GPIO_AF_INSTANCE(GPIOx));
        assert_param(IS_GPIO_AF(GPIO_Init->Alternate));

        /* Configure Alternate function mapped with the current IO */
        temp = GPIOx->AFR[position >> 3u];
 800081c:	697b      	ldr	r3, [r7, #20]
 800081e:	08da      	lsrs	r2, r3, #3
 8000820:	687b      	ldr	r3, [r7, #4]
 8000822:	3208      	adds	r2, #8
 8000824:	f853 3022 	ldr.w	r3, [r3, r2, lsl #2]
 8000828:	613b      	str	r3, [r7, #16]
        temp &= ~(0xFu << ((position & 0x07u) * 4u));
 800082a:	697b      	ldr	r3, [r7, #20]
 800082c:	f003 0307 	and.w	r3, r3, #7
 8000830:	009b      	lsls	r3, r3, #2
 8000832:	220f      	movs	r2, #15
 8000834:	fa02 f303 	lsl.w	r3, r2, r3
 8000838:	43db      	mvns	r3, r3
 800083a:	693a      	ldr	r2, [r7, #16]
 800083c:	4013      	ands	r3, r2
 800083e:	613b      	str	r3, [r7, #16]
        temp |= ((GPIO_Init->Alternate) << ((position & 0x07u) * 4u));
 8000840:	683b      	ldr	r3, [r7, #0]
 8000842:	691a      	ldr	r2, [r3, #16]
 8000844:	697b      	ldr	r3, [r7, #20]
 8000846:	f003 0307 	and.w	r3, r3, #7
 800084a:	009b      	lsls	r3, r3, #2
 800084c:	fa02 f303 	lsl.w	r3, r2, r3
 8000850:	693a      	ldr	r2, [r7, #16]
 8000852:	4313      	orrs	r3, r2
 8000854:	613b      	str	r3, [r7, #16]
        GPIOx->AFR[position >> 3u] = temp;
 8000856:	697b      	ldr	r3, [r7, #20]
 8000858:	08da      	lsrs	r2, r3, #3
 800085a:	687b      	ldr	r3, [r7, #4]
 800085c:	3208      	adds	r2, #8
 800085e:	6939      	ldr	r1, [r7, #16]
 8000860:	f843 1022 	str.w	r1, [r3, r2, lsl #2]
      }

      /* Configure IO Direction mode (Input, Output, Alternate or Analog) */
      temp = GPIOx->MODER;
 8000864:	687b      	ldr	r3, [r7, #4]
 8000866:	681b      	ldr	r3, [r3, #0]
 8000868:	613b      	str	r3, [r7, #16]
      temp &= ~(GPIO_MODER_MODE0 << (position * 2u));
 800086a:	697b      	ldr	r3, [r7, #20]
 800086c:	005b      	lsls	r3, r3, #1
 800086e:	2203      	movs	r2, #3
 8000870:	fa02 f303 	lsl.w	r3, r2, r3
 8000874:	43db      	mvns	r3, r3
 8000876:	693a      	ldr	r2, [r7, #16]
 8000878:	4013      	ands	r3, r2
 800087a:	613b      	str	r3, [r7, #16]
      temp |= ((GPIO_Init->Mode & GPIO_MODE) << (position * 2u));
 800087c:	683b      	ldr	r3, [r7, #0]
 800087e:	685b      	ldr	r3, [r3, #4]
 8000880:	f003 0203 	and.w	r2, r3, #3
 8000884:	697b      	ldr	r3, [r7, #20]
 8000886:	005b      	lsls	r3, r3, #1
 8000888:	fa02 f303 	lsl.w	r3, r2, r3
 800088c:	693a      	ldr	r2, [r7, #16]
 800088e:	4313      	orrs	r3, r2
 8000890:	613b      	str	r3, [r7, #16]
      GPIOx->MODER = temp;
 8000892:	687b      	ldr	r3, [r7, #4]
 8000894:	693a      	ldr	r2, [r7, #16]
 8000896:	601a      	str	r2, [r3, #0]

      /*--------------------- EXTI Mode Configuration ------------------------*/
      /* Configure the External Interrupt or event for the current IO */
      if ((GPIO_Init->Mode & EXTI_MODE) != 0x00u)
 8000898:	683b      	ldr	r3, [r7, #0]
 800089a:	685b      	ldr	r3, [r3, #4]
 800089c:	f403 3340 	and.w	r3, r3, #196608	; 0x30000
 80008a0:	2b00      	cmp	r3, #0
 80008a2:	f000 80ac 	beq.w	80009fe <HAL_GPIO_Init+0x30a>
      {
        /* Enable SYSCFG Clock */
        __HAL_RCC_SYSCFG_CLK_ENABLE();
 80008a6:	4b5f      	ldr	r3, [pc, #380]	; (8000a24 <HAL_GPIO_Init+0x330>)
 80008a8:	6e1b      	ldr	r3, [r3, #96]	; 0x60
 80008aa:	4a5e      	ldr	r2, [pc, #376]	; (8000a24 <HAL_GPIO_Init+0x330>)
 80008ac:	f043 0301 	orr.w	r3, r3, #1
 80008b0:	6613      	str	r3, [r2, #96]	; 0x60
 80008b2:	4b5c      	ldr	r3, [pc, #368]	; (8000a24 <HAL_GPIO_Init+0x330>)
 80008b4:	6e1b      	ldr	r3, [r3, #96]	; 0x60
 80008b6:	f003 0301 	and.w	r3, r3, #1
 80008ba:	60bb      	str	r3, [r7, #8]
 80008bc:	68bb      	ldr	r3, [r7, #8]

        temp = SYSCFG->EXTICR[position >> 2u];
 80008be:	4a5a      	ldr	r2, [pc, #360]	; (8000a28 <HAL_GPIO_Init+0x334>)
 80008c0:	697b      	ldr	r3, [r7, #20]
 80008c2:	089b      	lsrs	r3, r3, #2
 80008c4:	3302      	adds	r3, #2
 80008c6:	f852 3023 	ldr.w	r3, [r2, r3, lsl #2]
 80008ca:	613b      	str	r3, [r7, #16]
        temp &= ~(0x0FuL << (4u * (position & 0x03u)));
 80008cc:	697b      	ldr	r3, [r7, #20]
 80008ce:	f003 0303 	and.w	r3, r3, #3
 80008d2:	009b      	lsls	r3, r3, #2
 80008d4:	220f      	movs	r2, #15
 80008d6:	fa02 f303 	lsl.w	r3, r2, r3
 80008da:	43db      	mvns	r3, r3
 80008dc:	693a      	ldr	r2, [r7, #16]
 80008de:	4013      	ands	r3, r2
 80008e0:	613b      	str	r3, [r7, #16]
        temp |= (GPIO_GET_INDEX(GPIOx) << (4u * (position & 0x03u)));
 80008e2:	687b      	ldr	r3, [r7, #4]
 80008e4:	f1b3 4f90 	cmp.w	r3, #1207959552	; 0x48000000
 80008e8:	d025      	beq.n	8000936 <HAL_GPIO_Init+0x242>
 80008ea:	687b      	ldr	r3, [r7, #4]
 80008ec:	4a4f      	ldr	r2, [pc, #316]	; (8000a2c <HAL_GPIO_Init+0x338>)
 80008ee:	4293      	cmp	r3, r2
 80008f0:	d01f      	beq.n	8000932 <HAL_GPIO_Init+0x23e>
 80008f2:	687b      	ldr	r3, [r7, #4]
 80008f4:	4a4e      	ldr	r2, [pc, #312]	; (8000a30 <HAL_GPIO_Init+0x33c>)
 80008f6:	4293      	cmp	r3, r2
 80008f8:	d019      	beq.n	800092e <HAL_GPIO_Init+0x23a>
 80008fa:	687b      	ldr	r3, [r7, #4]
 80008fc:	4a4d      	ldr	r2, [pc, #308]	; (8000a34 <HAL_GPIO_Init+0x340>)
 80008fe:	4293      	cmp	r3, r2
 8000900:	d013      	beq.n	800092a <HAL_GPIO_Init+0x236>
 8000902:	687b      	ldr	r3, [r7, #4]
 8000904:	4a4c      	ldr	r2, [pc, #304]	; (8000a38 <HAL_GPIO_Init+0x344>)
 8000906:	4293      	cmp	r3, r2
 8000908:	d00d      	beq.n	8000926 <HAL_GPIO_Init+0x232>
 800090a:	687b      	ldr	r3, [r7, #4]
 800090c:	4a4b      	ldr	r2, [pc, #300]	; (8000a3c <HAL_GPIO_Init+0x348>)
 800090e:	4293      	cmp	r3, r2
 8000910:	d007      	beq.n	8000922 <HAL_GPIO_Init+0x22e>
 8000912:	687b      	ldr	r3, [r7, #4]
 8000914:	4a4a      	ldr	r2, [pc, #296]	; (8000a40 <HAL_GPIO_Init+0x34c>)
 8000916:	4293      	cmp	r3, r2
 8000918:	d101      	bne.n	800091e <HAL_GPIO_Init+0x22a>
 800091a:	2306      	movs	r3, #6
 800091c:	e00c      	b.n	8000938 <HAL_GPIO_Init+0x244>
 800091e:	2307      	movs	r3, #7
 8000920:	e00a      	b.n	8000938 <HAL_GPIO_Init+0x244>
 8000922:	2305      	movs	r3, #5
 8000924:	e008      	b.n	8000938 <HAL_GPIO_Init+0x244>
 8000926:	2304      	movs	r3, #4
 8000928:	e006      	b.n	8000938 <HAL_GPIO_Init+0x244>
 800092a:	2303      	movs	r3, #3
 800092c:	e004      	b.n	8000938 <HAL_GPIO_Init+0x244>
 800092e:	2302      	movs	r3, #2
 8000930:	e002      	b.n	8000938 <HAL_GPIO_Init+0x244>
 8000932:	2301      	movs	r3, #1
 8000934:	e000      	b.n	8000938 <HAL_GPIO_Init+0x244>
 8000936:	2300      	movs	r3, #0
 8000938:	697a      	ldr	r2, [r7, #20]
 800093a:	f002 0203 	and.w	r2, r2, #3
 800093e:	0092      	lsls	r2, r2, #2
 8000940:	4093      	lsls	r3, r2
 8000942:	693a      	ldr	r2, [r7, #16]
 8000944:	4313      	orrs	r3, r2
 8000946:	613b      	str	r3, [r7, #16]
        SYSCFG->EXTICR[position >> 2u] = temp;
 8000948:	4937      	ldr	r1, [pc, #220]	; (8000a28 <HAL_GPIO_Init+0x334>)
 800094a:	697b      	ldr	r3, [r7, #20]
 800094c:	089b      	lsrs	r3, r3, #2
 800094e:	3302      	adds	r3, #2
 8000950:	693a      	ldr	r2, [r7, #16]
 8000952:	f841 2023 	str.w	r2, [r1, r3, lsl #2]

        /* Clear Rising Falling edge configuration */
        temp = EXTI->RTSR1;
 8000956:	4b3b      	ldr	r3, [pc, #236]	; (8000a44 <HAL_GPIO_Init+0x350>)
 8000958:	689b      	ldr	r3, [r3, #8]
 800095a:	613b      	str	r3, [r7, #16]
        temp &= ~(iocurrent);
 800095c:	68fb      	ldr	r3, [r7, #12]
 800095e:	43db      	mvns	r3, r3
 8000960:	693a      	ldr	r2, [r7, #16]
 8000962:	4013      	ands	r3, r2
 8000964:	613b      	str	r3, [r7, #16]
        if ((GPIO_Init->Mode & TRIGGER_RISING) != 0x00u)
 8000966:	683b      	ldr	r3, [r7, #0]
 8000968:	685b      	ldr	r3, [r3, #4]
 800096a:	f403 1380 	and.w	r3, r3, #1048576	; 0x100000
 800096e:	2b00      	cmp	r3, #0
 8000970:	d003      	beq.n	800097a <HAL_GPIO_Init+0x286>
        {
          temp |= iocurrent;
 8000972:	693a      	ldr	r2, [r7, #16]
 8000974:	68fb      	ldr	r3, [r7, #12]
 8000976:	4313      	orrs	r3, r2
 8000978:	613b      	str	r3, [r7, #16]
        }
        EXTI->RTSR1 = temp;
 800097a:	4a32      	ldr	r2, [pc, #200]	; (8000a44 <HAL_GPIO_Init+0x350>)
 800097c:	693b      	ldr	r3, [r7, #16]
 800097e:	6093      	str	r3, [r2, #8]

        temp = EXTI->FTSR1;
 8000980:	4b30      	ldr	r3, [pc, #192]	; (8000a44 <HAL_GPIO_Init+0x350>)
 8000982:	68db      	ldr	r3, [r3, #12]
 8000984:	613b      	str	r3, [r7, #16]
        temp &= ~(iocurrent);
 8000986:	68fb      	ldr	r3, [r7, #12]
 8000988:	43db      	mvns	r3, r3
 800098a:	693a      	ldr	r2, [r7, #16]
 800098c:	4013      	ands	r3, r2
 800098e:	613b      	str	r3, [r7, #16]
        if ((GPIO_Init->Mode & TRIGGER_FALLING) != 0x00u)
 8000990:	683b      	ldr	r3, [r7, #0]
 8000992:	685b      	ldr	r3, [r3, #4]
 8000994:	f403 1300 	and.w	r3, r3, #2097152	; 0x200000
 8000998:	2b00      	cmp	r3, #0
 800099a:	d003      	beq.n	80009a4 <HAL_GPIO_Init+0x2b0>
        {
          temp |= iocurrent;
 800099c:	693a      	ldr	r2, [r7, #16]
 800099e:	68fb      	ldr	r3, [r7, #12]
 80009a0:	4313      	orrs	r3, r2
 80009a2:	613b      	str	r3, [r7, #16]
        }
        EXTI->FTSR1 = temp;
 80009a4:	4a27      	ldr	r2, [pc, #156]	; (8000a44 <HAL_GPIO_Init+0x350>)
 80009a6:	693b      	ldr	r3, [r7, #16]
 80009a8:	60d3      	str	r3, [r2, #12]

        /* Clear EXTI line configuration */
        temp = EXTI->EMR1;
 80009aa:	4b26      	ldr	r3, [pc, #152]	; (8000a44 <HAL_GPIO_Init+0x350>)
 80009ac:	685b      	ldr	r3, [r3, #4]
 80009ae:	613b      	str	r3, [r7, #16]
        temp &= ~(iocurrent);
 80009b0:	68fb      	ldr	r3, [r7, #12]
 80009b2:	43db      	mvns	r3, r3
 80009b4:	693a      	ldr	r2, [r7, #16]
 80009b6:	4013      	ands	r3, r2
 80009b8:	613b      	str	r3, [r7, #16]
        if ((GPIO_Init->Mode & EXTI_EVT) != 0x00u)
 80009ba:	683b      	ldr	r3, [r7, #0]
 80009bc:	685b      	ldr	r3, [r3, #4]
 80009be:	f403 3300 	and.w	r3, r3, #131072	; 0x20000
 80009c2:	2b00      	cmp	r3, #0
 80009c4:	d003      	beq.n	80009ce <HAL_GPIO_Init+0x2da>
        {
          temp |= iocurrent;
 80009c6:	693a      	ldr	r2, [r7, #16]
 80009c8:	68fb      	ldr	r3, [r7, #12]
 80009ca:	4313      	orrs	r3, r2
 80009cc:	613b      	str	r3, [r7, #16]
        }
        EXTI->EMR1 = temp;
 80009ce:	4a1d      	ldr	r2, [pc, #116]	; (8000a44 <HAL_GPIO_Init+0x350>)
 80009d0:	693b      	ldr	r3, [r7, #16]
 80009d2:	6053      	str	r3, [r2, #4]

        temp = EXTI->IMR1;
 80009d4:	4b1b      	ldr	r3, [pc, #108]	; (8000a44 <HAL_GPIO_Init+0x350>)
 80009d6:	681b      	ldr	r3, [r3, #0]
 80009d8:	613b      	str	r3, [r7, #16]
        temp &= ~(iocurrent);
 80009da:	68fb      	ldr	r3, [r7, #12]
 80009dc:	43db      	mvns	r3, r3
 80009de:	693a      	ldr	r2, [r7, #16]
 80009e0:	4013      	ands	r3, r2
 80009e2:	613b      	str	r3, [r7, #16]
        if ((GPIO_Init->Mode & EXTI_IT) != 0x00u)
 80009e4:	683b      	ldr	r3, [r7, #0]
 80009e6:	685b      	ldr	r3, [r3, #4]
 80009e8:	f403 3380 	and.w	r3, r3, #65536	; 0x10000
 80009ec:	2b00      	cmp	r3, #0
 80009ee:	d003      	beq.n	80009f8 <HAL_GPIO_Init+0x304>
        {
          temp |= iocurrent;
 80009f0:	693a      	ldr	r2, [r7, #16]
 80009f2:	68fb      	ldr	r3, [r7, #12]
 80009f4:	4313      	orrs	r3, r2
 80009f6:	613b      	str	r3, [r7, #16]
        }
        EXTI->IMR1 = temp;
 80009f8:	4a12      	ldr	r2, [pc, #72]	; (8000a44 <HAL_GPIO_Init+0x350>)
 80009fa:	693b      	ldr	r3, [r7, #16]
 80009fc:	6013      	str	r3, [r2, #0]
      }
    }

    position++;
 80009fe:	697b      	ldr	r3, [r7, #20]
 8000a00:	3301      	adds	r3, #1
 8000a02:	617b      	str	r3, [r7, #20]
  while (((GPIO_Init->Pin) >> position) != 0x00u)
 8000a04:	683b      	ldr	r3, [r7, #0]
 8000a06:	681a      	ldr	r2, [r3, #0]
 8000a08:	697b      	ldr	r3, [r7, #20]
 8000a0a:	fa22 f303 	lsr.w	r3, r2, r3
 8000a0e:	2b00      	cmp	r3, #0
 8000a10:	f47f ae78 	bne.w	8000704 <HAL_GPIO_Init+0x10>
  }
}
 8000a14:	bf00      	nop
 8000a16:	bf00      	nop
 8000a18:	371c      	adds	r7, #28
 8000a1a:	46bd      	mov	sp, r7
 8000a1c:	f85d 7b04 	ldr.w	r7, [sp], #4
 8000a20:	4770      	bx	lr
 8000a22:	bf00      	nop
 8000a24:	40021000 	.word	0x40021000
 8000a28:	40010000 	.word	0x40010000
 8000a2c:	48000400 	.word	0x48000400
 8000a30:	48000800 	.word	0x48000800
 8000a34:	48000c00 	.word	0x48000c00
 8000a38:	48001000 	.word	0x48001000
 8000a3c:	48001400 	.word	0x48001400
 8000a40:	48001800 	.word	0x48001800
 8000a44:	40010400 	.word	0x40010400

08000a48 <HAL_GPIO_WritePin>:
  *            @arg GPIO_PIN_RESET: to clear the port pin
  *            @arg GPIO_PIN_SET: to set the port pin
  * @retval None
  */
void HAL_GPIO_WritePin(GPIO_TypeDef* GPIOx, uint16_t GPIO_Pin, GPIO_PinState PinState)
{
 8000a48:	b480      	push	{r7}
 8000a4a:	b083      	sub	sp, #12
 8000a4c:	af00      	add	r7, sp, #0
 8000a4e:	6078      	str	r0, [r7, #4]
 8000a50:	460b      	mov	r3, r1
 8000a52:	807b      	strh	r3, [r7, #2]
 8000a54:	4613      	mov	r3, r2
 8000a56:	707b      	strb	r3, [r7, #1]
  /* Check the parameters */
  assert_param(IS_GPIO_PIN(GPIO_Pin));
  assert_param(IS_GPIO_PIN_ACTION(PinState));

  if(PinState != GPIO_PIN_RESET)
 8000a58:	787b      	ldrb	r3, [r7, #1]
 8000a5a:	2b00      	cmp	r3, #0
 8000a5c:	d003      	beq.n	8000a66 <HAL_GPIO_WritePin+0x1e>
  {
    GPIOx->BSRR = (uint32_t)GPIO_Pin;
 8000a5e:	887a      	ldrh	r2, [r7, #2]
 8000a60:	687b      	ldr	r3, [r7, #4]
 8000a62:	619a      	str	r2, [r3, #24]
  }
  else
  {
    GPIOx->BRR = (uint32_t)GPIO_Pin;
  }
}
 8000a64:	e002      	b.n	8000a6c <HAL_GPIO_WritePin+0x24>
    GPIOx->BRR = (uint32_t)GPIO_Pin;
 8000a66:	887a      	ldrh	r2, [r7, #2]
 8000a68:	687b      	ldr	r3, [r7, #4]
 8000a6a:	629a      	str	r2, [r3, #40]	; 0x28
}
 8000a6c:	bf00      	nop
 8000a6e:	370c      	adds	r7, #12
 8000a70:	46bd      	mov	sp, r7
 8000a72:	f85d 7b04 	ldr.w	r7, [sp], #4
 8000a76:	4770      	bx	lr

08000a78 <HAL_GPIO_TogglePin>:
  * @param  GPIOx where x can be (A..H) to select the GPIO peripheral for STM32L4 family
  * @param  GPIO_Pin specifies the pin to be toggled.
  * @retval None
  */
void HAL_GPIO_TogglePin(GPIO_TypeDef* GPIOx, uint16_t GPIO_Pin)
{
 8000a78:	b480      	push	{r7}
 8000a7a:	b085      	sub	sp, #20
 8000a7c:	af00      	add	r7, sp, #0
 8000a7e:	6078      	str	r0, [r7, #4]
 8000a80:	460b      	mov	r3, r1
 8000a82:	807b      	strh	r3, [r7, #2]

  /* Check the parameters */
  assert_param(IS_GPIO_PIN(GPIO_Pin));

  /* get current Output Data Register value */
  odr = GPIOx->ODR;
 8000a84:	687b      	ldr	r3, [r7, #4]
 8000a86:	695b      	ldr	r3, [r3, #20]
 8000a88:	60fb      	str	r3, [r7, #12]

  /* Set selected pins that were at low level, and reset ones that were high */
  GPIOx->BSRR = ((odr & GPIO_Pin) << GPIO_NUMBER) | (~odr & GPIO_Pin);
 8000a8a:	887a      	ldrh	r2, [r7, #2]
 8000a8c:	68fb      	ldr	r3, [r7, #12]
 8000a8e:	4013      	ands	r3, r2
 8000a90:	041a      	lsls	r2, r3, #16
 8000a92:	68fb      	ldr	r3, [r7, #12]
 8000a94:	43d9      	mvns	r1, r3
 8000a96:	887b      	ldrh	r3, [r7, #2]
 8000a98:	400b      	ands	r3, r1
 8000a9a:	431a      	orrs	r2, r3
 8000a9c:	687b      	ldr	r3, [r7, #4]
 8000a9e:	619a      	str	r2, [r3, #24]
}
 8000aa0:	bf00      	nop
 8000aa2:	3714      	adds	r7, #20
 8000aa4:	46bd      	mov	sp, r7
 8000aa6:	f85d 7b04 	ldr.w	r7, [sp], #4
 8000aaa:	4770      	bx	lr

08000aac <HAL_PWREx_GetVoltageRange>:
  * @brief Return Voltage Scaling Range.
  * @retval VOS bit field (PWR_REGULATOR_VOLTAGE_SCALE1 or PWR_REGULATOR_VOLTAGE_SCALE2
  *         or PWR_REGULATOR_VOLTAGE_SCALE1_BOOST when applicable)
  */
uint32_t HAL_PWREx_GetVoltageRange(void)
{
 8000aac:	b480      	push	{r7}
 8000aae:	af00      	add	r7, sp, #0
    else
    {
      return PWR_REGULATOR_VOLTAGE_SCALE1_BOOST;
    }
#else
  return  (PWR->CR1 & PWR_CR1_VOS);
 8000ab0:	4b04      	ldr	r3, [pc, #16]	; (8000ac4 <HAL_PWREx_GetVoltageRange+0x18>)
 8000ab2:	681b      	ldr	r3, [r3, #0]
 8000ab4:	f403 63c0 	and.w	r3, r3, #1536	; 0x600
#endif
}
 8000ab8:	4618      	mov	r0, r3
 8000aba:	46bd      	mov	sp, r7
 8000abc:	f85d 7b04 	ldr.w	r7, [sp], #4
 8000ac0:	4770      	bx	lr
 8000ac2:	bf00      	nop
 8000ac4:	40007000 	.word	0x40007000

08000ac8 <HAL_PWREx_ControlVoltageScaling>:
  *        cleared before returning the status. If the flag is not cleared within
  *        50 microseconds, HAL_TIMEOUT status is reported.
  * @retval HAL Status
  */
HAL_StatusTypeDef HAL_PWREx_ControlVoltageScaling(uint32_t VoltageScaling)
{
 8000ac8:	b480      	push	{r7}
 8000aca:	b085      	sub	sp, #20
 8000acc:	af00      	add	r7, sp, #0
 8000ace:	6078      	str	r0, [r7, #4]
  }

#else

  /* If Set Range 1 */
  if (VoltageScaling == PWR_REGULATOR_VOLTAGE_SCALE1)
 8000ad0:	687b      	ldr	r3, [r7, #4]
 8000ad2:	f5b3 7f00 	cmp.w	r3, #512	; 0x200
 8000ad6:	d130      	bne.n	8000b3a <HAL_PWREx_ControlVoltageScaling+0x72>
  {
    if (READ_BIT(PWR->CR1, PWR_CR1_VOS) != PWR_REGULATOR_VOLTAGE_SCALE1)
 8000ad8:	4b23      	ldr	r3, [pc, #140]	; (8000b68 <HAL_PWREx_ControlVoltageScaling+0xa0>)
 8000ada:	681b      	ldr	r3, [r3, #0]
 8000adc:	f403 63c0 	and.w	r3, r3, #1536	; 0x600
 8000ae0:	f5b3 7f00 	cmp.w	r3, #512	; 0x200
 8000ae4:	d038      	beq.n	8000b58 <HAL_PWREx_ControlVoltageScaling+0x90>
    {
      /* Set Range 1 */
      MODIFY_REG(PWR->CR1, PWR_CR1_VOS, PWR_REGULATOR_VOLTAGE_SCALE1);
 8000ae6:	4b20      	ldr	r3, [pc, #128]	; (8000b68 <HAL_PWREx_ControlVoltageScaling+0xa0>)
 8000ae8:	681b      	ldr	r3, [r3, #0]
 8000aea:	f423 63c0 	bic.w	r3, r3, #1536	; 0x600
 8000aee:	4a1e      	ldr	r2, [pc, #120]	; (8000b68 <HAL_PWREx_ControlVoltageScaling+0xa0>)
 8000af0:	f443 7300 	orr.w	r3, r3, #512	; 0x200
 8000af4:	6013      	str	r3, [r2, #0]

      /* Wait until VOSF is cleared */
      wait_loop_index = ((PWR_FLAG_SETTING_DELAY_US * SystemCoreClock) / 1000000U) + 1U;
 8000af6:	4b1d      	ldr	r3, [pc, #116]	; (8000b6c <HAL_PWREx_ControlVoltageScaling+0xa4>)
 8000af8:	681b      	ldr	r3, [r3, #0]
 8000afa:	2232      	movs	r2, #50	; 0x32
 8000afc:	fb02 f303 	mul.w	r3, r2, r3
 8000b00:	4a1b      	ldr	r2, [pc, #108]	; (8000b70 <HAL_PWREx_ControlVoltageScaling+0xa8>)
 8000b02:	fba2 2303 	umull	r2, r3, r2, r3
 8000b06:	0c9b      	lsrs	r3, r3, #18
 8000b08:	3301      	adds	r3, #1
 8000b0a:	60fb      	str	r3, [r7, #12]
      while ((HAL_IS_BIT_SET(PWR->SR2, PWR_SR2_VOSF)) && (wait_loop_index != 0U))
 8000b0c:	e002      	b.n	8000b14 <HAL_PWREx_ControlVoltageScaling+0x4c>
      {
        wait_loop_index--;
 8000b0e:	68fb      	ldr	r3, [r7, #12]
 8000b10:	3b01      	subs	r3, #1
 8000b12:	60fb      	str	r3, [r7, #12]
      while ((HAL_IS_BIT_SET(PWR->SR2, PWR_SR2_VOSF)) && (wait_loop_index != 0U))
 8000b14:	4b14      	ldr	r3, [pc, #80]	; (8000b68 <HAL_PWREx_ControlVoltageScaling+0xa0>)
 8000b16:	695b      	ldr	r3, [r3, #20]
 8000b18:	f403 6380 	and.w	r3, r3, #1024	; 0x400
 8000b1c:	f5b3 6f80 	cmp.w	r3, #1024	; 0x400
 8000b20:	d102      	bne.n	8000b28 <HAL_PWREx_ControlVoltageScaling+0x60>
 8000b22:	68fb      	ldr	r3, [r7, #12]
 8000b24:	2b00      	cmp	r3, #0
 8000b26:	d1f2      	bne.n	8000b0e <HAL_PWREx_ControlVoltageScaling+0x46>
      }
      if (HAL_IS_BIT_SET(PWR->SR2, PWR_SR2_VOSF))
 8000b28:	4b0f      	ldr	r3, [pc, #60]	; (8000b68 <HAL_PWREx_ControlVoltageScaling+0xa0>)
 8000b2a:	695b      	ldr	r3, [r3, #20]
 8000b2c:	f403 6380 	and.w	r3, r3, #1024	; 0x400
 8000b30:	f5b3 6f80 	cmp.w	r3, #1024	; 0x400
 8000b34:	d110      	bne.n	8000b58 <HAL_PWREx_ControlVoltageScaling+0x90>
      {
        return HAL_TIMEOUT;
 8000b36:	2303      	movs	r3, #3
 8000b38:	e00f      	b.n	8000b5a <HAL_PWREx_ControlVoltageScaling+0x92>
      }
    }
  }
  else
  {
    if (READ_BIT(PWR->CR1, PWR_CR1_VOS) != PWR_REGULATOR_VOLTAGE_SCALE2)
 8000b3a:	4b0b      	ldr	r3, [pc, #44]	; (8000b68 <HAL_PWREx_ControlVoltageScaling+0xa0>)
 8000b3c:	681b      	ldr	r3, [r3, #0]
 8000b3e:	f403 63c0 	and.w	r3, r3, #1536	; 0x600
 8000b42:	f5b3 6f80 	cmp.w	r3, #1024	; 0x400
 8000b46:	d007      	beq.n	8000b58 <HAL_PWREx_ControlVoltageScaling+0x90>
    {
      /* Set Range 2 */
      MODIFY_REG(PWR->CR1, PWR_CR1_VOS, PWR_REGULATOR_VOLTAGE_SCALE2);
 8000b48:	4b07      	ldr	r3, [pc, #28]	; (8000b68 <HAL_PWREx_ControlVoltageScaling+0xa0>)
 8000b4a:	681b      	ldr	r3, [r3, #0]
 8000b4c:	f423 63c0 	bic.w	r3, r3, #1536	; 0x600
 8000b50:	4a05      	ldr	r2, [pc, #20]	; (8000b68 <HAL_PWREx_ControlVoltageScaling+0xa0>)
 8000b52:	f443 6380 	orr.w	r3, r3, #1024	; 0x400
 8000b56:	6013      	str	r3, [r2, #0]
      /* No need to wait for VOSF to be cleared for this transition */
    }
  }
#endif

  return HAL_OK;
 8000b58:	2300      	movs	r3, #0
}
 8000b5a:	4618      	mov	r0, r3
 8000b5c:	3714      	adds	r7, #20
 8000b5e:	46bd      	mov	sp, r7
 8000b60:	f85d 7b04 	ldr.w	r7, [sp], #4
 8000b64:	4770      	bx	lr
 8000b66:	bf00      	nop
 8000b68:	40007000 	.word	0x40007000
 8000b6c:	20000000 	.word	0x20000000
 8000b70:	431bde83 	.word	0x431bde83

08000b74 <HAL_RCC_OscConfig>:
  *         supported by this macro. User should request a transition to HSE Off
  *         first and then HSE On or HSE Bypass.
  * @retval HAL status
  */
HAL_StatusTypeDef HAL_RCC_OscConfig(RCC_OscInitTypeDef  *RCC_OscInitStruct)
{
 8000b74:	b580      	push	{r7, lr}
 8000b76:	b088      	sub	sp, #32
 8000b78:	af00      	add	r7, sp, #0
 8000b7a:	6078      	str	r0, [r7, #4]
  uint32_t tickstart;
  HAL_StatusTypeDef status;
  uint32_t sysclk_source, pll_config;

  /* Check Null pointer */
  if(RCC_OscInitStruct == NULL)
 8000b7c:	687b      	ldr	r3, [r7, #4]
 8000b7e:	2b00      	cmp	r3, #0
 8000b80:	d101      	bne.n	8000b86 <HAL_RCC_OscConfig+0x12>
  {
    return HAL_ERROR;
 8000b82:	2301      	movs	r3, #1
 8000b84:	e3d4      	b.n	8001330 <HAL_RCC_OscConfig+0x7bc>
  }

  /* Check the parameters */
  assert_param(IS_RCC_OSCILLATORTYPE(RCC_OscInitStruct->OscillatorType));

  sysclk_source = __HAL_RCC_GET_SYSCLK_SOURCE();
 8000b86:	4ba1      	ldr	r3, [pc, #644]	; (8000e0c <HAL_RCC_OscConfig+0x298>)
 8000b88:	689b      	ldr	r3, [r3, #8]
 8000b8a:	f003 030c 	and.w	r3, r3, #12
 8000b8e:	61bb      	str	r3, [r7, #24]
  pll_config = __HAL_RCC_GET_PLL_OSCSOURCE();
 8000b90:	4b9e      	ldr	r3, [pc, #632]	; (8000e0c <HAL_RCC_OscConfig+0x298>)
 8000b92:	68db      	ldr	r3, [r3, #12]
 8000b94:	f003 0303 	and.w	r3, r3, #3
 8000b98:	617b      	str	r3, [r7, #20]

  /*----------------------------- MSI Configuration --------------------------*/
  if(((RCC_OscInitStruct->OscillatorType) & RCC_OSCILLATORTYPE_MSI) == RCC_OSCILLATORTYPE_MSI)
 8000b9a:	687b      	ldr	r3, [r7, #4]
 8000b9c:	681b      	ldr	r3, [r3, #0]
 8000b9e:	f003 0310 	and.w	r3, r3, #16
 8000ba2:	2b00      	cmp	r3, #0
 8000ba4:	f000 80e4 	beq.w	8000d70 <HAL_RCC_OscConfig+0x1fc>
    assert_param(IS_RCC_MSI(RCC_OscInitStruct->MSIState));
    assert_param(IS_RCC_MSICALIBRATION_VALUE(RCC_OscInitStruct->MSICalibrationValue));
    assert_param(IS_RCC_MSI_CLOCK_RANGE(RCC_OscInitStruct->MSIClockRange));

    /* Check if MSI is used as system clock or as PLL source when PLL is selected as system clock */
    if((sysclk_source == RCC_CFGR_SWS_MSI) ||
 8000ba8:	69bb      	ldr	r3, [r7, #24]
 8000baa:	2b00      	cmp	r3, #0
 8000bac:	d007      	beq.n	8000bbe <HAL_RCC_OscConfig+0x4a>
 8000bae:	69bb      	ldr	r3, [r7, #24]
 8000bb0:	2b0c      	cmp	r3, #12
 8000bb2:	f040 808b 	bne.w	8000ccc <HAL_RCC_OscConfig+0x158>
       ((sysclk_source == RCC_CFGR_SWS_PLL) && (pll_config == RCC_PLLSOURCE_MSI)))
 8000bb6:	697b      	ldr	r3, [r7, #20]
 8000bb8:	2b01      	cmp	r3, #1
 8000bba:	f040 8087 	bne.w	8000ccc <HAL_RCC_OscConfig+0x158>
    {
      if((READ_BIT(RCC->CR, RCC_CR_MSIRDY) != 0U) && (RCC_OscInitStruct->MSIState == RCC_MSI_OFF))
 8000bbe:	4b93      	ldr	r3, [pc, #588]	; (8000e0c <HAL_RCC_OscConfig+0x298>)
 8000bc0:	681b      	ldr	r3, [r3, #0]
 8000bc2:	f003 0302 	and.w	r3, r3, #2
 8000bc6:	2b00      	cmp	r3, #0
 8000bc8:	d005      	beq.n	8000bd6 <HAL_RCC_OscConfig+0x62>
 8000bca:	687b      	ldr	r3, [r7, #4]
 8000bcc:	699b      	ldr	r3, [r3, #24]
 8000bce:	2b00      	cmp	r3, #0
 8000bd0:	d101      	bne.n	8000bd6 <HAL_RCC_OscConfig+0x62>
      {
        return HAL_ERROR;
 8000bd2:	2301      	movs	r3, #1
 8000bd4:	e3ac      	b.n	8001330 <HAL_RCC_OscConfig+0x7bc>
      else
      {
        /* To correctly read data from FLASH memory, the number of wait states (LATENCY)
           must be correctly programmed according to the frequency of the CPU clock
           (HCLK) and the supply voltage of the device. */
        if(RCC_OscInitStruct->MSIClockRange > __HAL_RCC_GET_MSI_RANGE())
 8000bd6:	687b      	ldr	r3, [r7, #4]
 8000bd8:	6a1a      	ldr	r2, [r3, #32]
 8000bda:	4b8c      	ldr	r3, [pc, #560]	; (8000e0c <HAL_RCC_OscConfig+0x298>)
 8000bdc:	681b      	ldr	r3, [r3, #0]
 8000bde:	f003 0308 	and.w	r3, r3, #8
 8000be2:	2b00      	cmp	r3, #0
 8000be4:	d004      	beq.n	8000bf0 <HAL_RCC_OscConfig+0x7c>
 8000be6:	4b89      	ldr	r3, [pc, #548]	; (8000e0c <HAL_RCC_OscConfig+0x298>)
 8000be8:	681b      	ldr	r3, [r3, #0]
 8000bea:	f003 03f0 	and.w	r3, r3, #240	; 0xf0
 8000bee:	e005      	b.n	8000bfc <HAL_RCC_OscConfig+0x88>
 8000bf0:	4b86      	ldr	r3, [pc, #536]	; (8000e0c <HAL_RCC_OscConfig+0x298>)
 8000bf2:	f8d3 3094 	ldr.w	r3, [r3, #148]	; 0x94
 8000bf6:	091b      	lsrs	r3, r3, #4
 8000bf8:	f003 03f0 	and.w	r3, r3, #240	; 0xf0
 8000bfc:	4293      	cmp	r3, r2
 8000bfe:	d223      	bcs.n	8000c48 <HAL_RCC_OscConfig+0xd4>
        {
          /* First increase number of wait states update if necessary */
          if(RCC_SetFlashLatencyFromMSIRange(RCC_OscInitStruct->MSIClockRange) != HAL_OK)
 8000c00:	687b      	ldr	r3, [r7, #4]
 8000c02:	6a1b      	ldr	r3, [r3, #32]
 8000c04:	4618      	mov	r0, r3
 8000c06:	f000 fd09 	bl	800161c <RCC_SetFlashLatencyFromMSIRange>
 8000c0a:	4603      	mov	r3, r0
 8000c0c:	2b00      	cmp	r3, #0
 8000c0e:	d001      	beq.n	8000c14 <HAL_RCC_OscConfig+0xa0>
          {
            return HAL_ERROR;
 8000c10:	2301      	movs	r3, #1
 8000c12:	e38d      	b.n	8001330 <HAL_RCC_OscConfig+0x7bc>
          }

          /* Selects the Multiple Speed oscillator (MSI) clock range .*/
          __HAL_RCC_MSI_RANGE_CONFIG(RCC_OscInitStruct->MSIClockRange);
 8000c14:	4b7d      	ldr	r3, [pc, #500]	; (8000e0c <HAL_RCC_OscConfig+0x298>)
 8000c16:	681b      	ldr	r3, [r3, #0]
 8000c18:	4a7c      	ldr	r2, [pc, #496]	; (8000e0c <HAL_RCC_OscConfig+0x298>)
 8000c1a:	f043 0308 	orr.w	r3, r3, #8
 8000c1e:	6013      	str	r3, [r2, #0]
 8000c20:	4b7a      	ldr	r3, [pc, #488]	; (8000e0c <HAL_RCC_OscConfig+0x298>)
 8000c22:	681b      	ldr	r3, [r3, #0]
 8000c24:	f023 02f0 	bic.w	r2, r3, #240	; 0xf0
 8000c28:	687b      	ldr	r3, [r7, #4]
 8000c2a:	6a1b      	ldr	r3, [r3, #32]
 8000c2c:	4977      	ldr	r1, [pc, #476]	; (8000e0c <HAL_RCC_OscConfig+0x298>)
 8000c2e:	4313      	orrs	r3, r2
 8000c30:	600b      	str	r3, [r1, #0]
          /* Adjusts the Multiple Speed oscillator (MSI) calibration value.*/
          __HAL_RCC_MSI_CALIBRATIONVALUE_ADJUST(RCC_OscInitStruct->MSICalibrationValue);
 8000c32:	4b76      	ldr	r3, [pc, #472]	; (8000e0c <HAL_RCC_OscConfig+0x298>)
 8000c34:	685b      	ldr	r3, [r3, #4]
 8000c36:	f423 427f 	bic.w	r2, r3, #65280	; 0xff00
 8000c3a:	687b      	ldr	r3, [r7, #4]
 8000c3c:	69db      	ldr	r3, [r3, #28]
 8000c3e:	021b      	lsls	r3, r3, #8
 8000c40:	4972      	ldr	r1, [pc, #456]	; (8000e0c <HAL_RCC_OscConfig+0x298>)
 8000c42:	4313      	orrs	r3, r2
 8000c44:	604b      	str	r3, [r1, #4]
 8000c46:	e025      	b.n	8000c94 <HAL_RCC_OscConfig+0x120>
        }
        else
        {
          /* Else, keep current flash latency while decreasing applies */
          /* Selects the Multiple Speed oscillator (MSI) clock range .*/
          __HAL_RCC_MSI_RANGE_CONFIG(RCC_OscInitStruct->MSIClockRange);
 8000c48:	4b70      	ldr	r3, [pc, #448]	; (8000e0c <HAL_RCC_OscConfig+0x298>)
 8000c4a:	681b      	ldr	r3, [r3, #0]
 8000c4c:	4a6f      	ldr	r2, [pc, #444]	; (8000e0c <HAL_RCC_OscConfig+0x298>)
 8000c4e:	f043 0308 	orr.w	r3, r3, #8
 8000c52:	6013      	str	r3, [r2, #0]
 8000c54:	4b6d      	ldr	r3, [pc, #436]	; (8000e0c <HAL_RCC_OscConfig+0x298>)
 8000c56:	681b      	ldr	r3, [r3, #0]
 8000c58:	f023 02f0 	bic.w	r2, r3, #240	; 0xf0
 8000c5c:	687b      	ldr	r3, [r7, #4]
 8000c5e:	6a1b      	ldr	r3, [r3, #32]
 8000c60:	496a      	ldr	r1, [pc, #424]	; (8000e0c <HAL_RCC_OscConfig+0x298>)
 8000c62:	4313      	orrs	r3, r2
 8000c64:	600b      	str	r3, [r1, #0]
          /* Adjusts the Multiple Speed oscillator (MSI) calibration value.*/
          __HAL_RCC_MSI_CALIBRATIONVALUE_ADJUST(RCC_OscInitStruct->MSICalibrationValue);
 8000c66:	4b69      	ldr	r3, [pc, #420]	; (8000e0c <HAL_RCC_OscConfig+0x298>)
 8000c68:	685b      	ldr	r3, [r3, #4]
 8000c6a:	f423 427f 	bic.w	r2, r3, #65280	; 0xff00
 8000c6e:	687b      	ldr	r3, [r7, #4]
 8000c70:	69db      	ldr	r3, [r3, #28]
 8000c72:	021b      	lsls	r3, r3, #8
 8000c74:	4965      	ldr	r1, [pc, #404]	; (8000e0c <HAL_RCC_OscConfig+0x298>)
 8000c76:	4313      	orrs	r3, r2
 8000c78:	604b      	str	r3, [r1, #4]

          /* Decrease number of wait states update if necessary */
          /* Only possible when MSI is the System clock source  */
          if(sysclk_source == RCC_CFGR_SWS_MSI)
 8000c7a:	69bb      	ldr	r3, [r7, #24]
 8000c7c:	2b00      	cmp	r3, #0
 8000c7e:	d109      	bne.n	8000c94 <HAL_RCC_OscConfig+0x120>
          {
            if(RCC_SetFlashLatencyFromMSIRange(RCC_OscInitStruct->MSIClockRange) != HAL_OK)
 8000c80:	687b      	ldr	r3, [r7, #4]
 8000c82:	6a1b      	ldr	r3, [r3, #32]
 8000c84:	4618      	mov	r0, r3
 8000c86:	f000 fcc9 	bl	800161c <RCC_SetFlashLatencyFromMSIRange>
 8000c8a:	4603      	mov	r3, r0
 8000c8c:	2b00      	cmp	r3, #0
 8000c8e:	d001      	beq.n	8000c94 <HAL_RCC_OscConfig+0x120>
            {
              return HAL_ERROR;
 8000c90:	2301      	movs	r3, #1
 8000c92:	e34d      	b.n	8001330 <HAL_RCC_OscConfig+0x7bc>
            }
          }
        }

        /* Update the SystemCoreClock global variable */
        SystemCoreClock = HAL_RCC_GetSysClockFreq() >> (AHBPrescTable[READ_BIT(RCC->CFGR, RCC_CFGR_HPRE) >> RCC_CFGR_HPRE_Pos] & 0x1FU);
 8000c94:	f000 fc36 	bl	8001504 <HAL_RCC_GetSysClockFreq>
 8000c98:	4602      	mov	r2, r0
 8000c9a:	4b5c      	ldr	r3, [pc, #368]	; (8000e0c <HAL_RCC_OscConfig+0x298>)
 8000c9c:	689b      	ldr	r3, [r3, #8]
 8000c9e:	091b      	lsrs	r3, r3, #4
 8000ca0:	f003 030f 	and.w	r3, r3, #15
 8000ca4:	495a      	ldr	r1, [pc, #360]	; (8000e10 <HAL_RCC_OscConfig+0x29c>)
 8000ca6:	5ccb      	ldrb	r3, [r1, r3]
 8000ca8:	f003 031f 	and.w	r3, r3, #31
 8000cac:	fa22 f303 	lsr.w	r3, r2, r3
 8000cb0:	4a58      	ldr	r2, [pc, #352]	; (8000e14 <HAL_RCC_OscConfig+0x2a0>)
 8000cb2:	6013      	str	r3, [r2, #0]

        /* Configure the source of time base considering new system clocks settings*/
        status = HAL_InitTick(uwTickPrio);
 8000cb4:	4b58      	ldr	r3, [pc, #352]	; (8000e18 <HAL_RCC_OscConfig+0x2a4>)
 8000cb6:	681b      	ldr	r3, [r3, #0]
 8000cb8:	4618      	mov	r0, r3
 8000cba:	f7ff fbb5 	bl	8000428 <HAL_InitTick>
 8000cbe:	4603      	mov	r3, r0
 8000cc0:	73fb      	strb	r3, [r7, #15]
        if(status != HAL_OK)
 8000cc2:	7bfb      	ldrb	r3, [r7, #15]
 8000cc4:	2b00      	cmp	r3, #0
 8000cc6:	d052      	beq.n	8000d6e <HAL_RCC_OscConfig+0x1fa>
        {
          return status;
 8000cc8:	7bfb      	ldrb	r3, [r7, #15]
 8000cca:	e331      	b.n	8001330 <HAL_RCC_OscConfig+0x7bc>
      }
    }
    else
    {
      /* Check the MSI State */
      if(RCC_OscInitStruct->MSIState != RCC_MSI_OFF)
 8000ccc:	687b      	ldr	r3, [r7, #4]
 8000cce:	699b      	ldr	r3, [r3, #24]
 8000cd0:	2b00      	cmp	r3, #0
 8000cd2:	d032      	beq.n	8000d3a <HAL_RCC_OscConfig+0x1c6>
      {
        /* Enable the Internal High Speed oscillator (MSI). */
        __HAL_RCC_MSI_ENABLE();
 8000cd4:	4b4d      	ldr	r3, [pc, #308]	; (8000e0c <HAL_RCC_OscConfig+0x298>)
 8000cd6:	681b      	ldr	r3, [r3, #0]
 8000cd8:	4a4c      	ldr	r2, [pc, #304]	; (8000e0c <HAL_RCC_OscConfig+0x298>)
 8000cda:	f043 0301 	orr.w	r3, r3, #1
 8000cde:	6013      	str	r3, [r2, #0]

        /* Get timeout */
        tickstart = HAL_GetTick();
 8000ce0:	f7ff fbf2 	bl	80004c8 <HAL_GetTick>
 8000ce4:	6138      	str	r0, [r7, #16]

        /* Wait till MSI is ready */
        while(READ_BIT(RCC->CR, RCC_CR_MSIRDY) == 0U)
 8000ce6:	e008      	b.n	8000cfa <HAL_RCC_OscConfig+0x186>
        {
          if((HAL_GetTick() - tickstart) > MSI_TIMEOUT_VALUE)
 8000ce8:	f7ff fbee 	bl	80004c8 <HAL_GetTick>
 8000cec:	4602      	mov	r2, r0
 8000cee:	693b      	ldr	r3, [r7, #16]
 8000cf0:	1ad3      	subs	r3, r2, r3
 8000cf2:	2b02      	cmp	r3, #2
 8000cf4:	d901      	bls.n	8000cfa <HAL_RCC_OscConfig+0x186>
          {
            return HAL_TIMEOUT;
 8000cf6:	2303      	movs	r3, #3
 8000cf8:	e31a      	b.n	8001330 <HAL_RCC_OscConfig+0x7bc>
        while(READ_BIT(RCC->CR, RCC_CR_MSIRDY) == 0U)
 8000cfa:	4b44      	ldr	r3, [pc, #272]	; (8000e0c <HAL_RCC_OscConfig+0x298>)
 8000cfc:	681b      	ldr	r3, [r3, #0]
 8000cfe:	f003 0302 	and.w	r3, r3, #2
 8000d02:	2b00      	cmp	r3, #0
 8000d04:	d0f0      	beq.n	8000ce8 <HAL_RCC_OscConfig+0x174>
          }
        }
         /* Selects the Multiple Speed oscillator (MSI) clock range .*/
        __HAL_RCC_MSI_RANGE_CONFIG(RCC_OscInitStruct->MSIClockRange);
 8000d06:	4b41      	ldr	r3, [pc, #260]	; (8000e0c <HAL_RCC_OscConfig+0x298>)
 8000d08:	681b      	ldr	r3, [r3, #0]
 8000d0a:	4a40      	ldr	r2, [pc, #256]	; (8000e0c <HAL_RCC_OscConfig+0x298>)
 8000d0c:	f043 0308 	orr.w	r3, r3, #8
 8000d10:	6013      	str	r3, [r2, #0]
 8000d12:	4b3e      	ldr	r3, [pc, #248]	; (8000e0c <HAL_RCC_OscConfig+0x298>)
 8000d14:	681b      	ldr	r3, [r3, #0]
 8000d16:	f023 02f0 	bic.w	r2, r3, #240	; 0xf0
 8000d1a:	687b      	ldr	r3, [r7, #4]
 8000d1c:	6a1b      	ldr	r3, [r3, #32]
 8000d1e:	493b      	ldr	r1, [pc, #236]	; (8000e0c <HAL_RCC_OscConfig+0x298>)
 8000d20:	4313      	orrs	r3, r2
 8000d22:	600b      	str	r3, [r1, #0]
         /* Adjusts the Multiple Speed oscillator (MSI) calibration value.*/
        __HAL_RCC_MSI_CALIBRATIONVALUE_ADJUST(RCC_OscInitStruct->MSICalibrationValue);
 8000d24:	4b39      	ldr	r3, [pc, #228]	; (8000e0c <HAL_RCC_OscConfig+0x298>)
 8000d26:	685b      	ldr	r3, [r3, #4]
 8000d28:	f423 427f 	bic.w	r2, r3, #65280	; 0xff00
 8000d2c:	687b      	ldr	r3, [r7, #4]
 8000d2e:	69db      	ldr	r3, [r3, #28]
 8000d30:	021b      	lsls	r3, r3, #8
 8000d32:	4936      	ldr	r1, [pc, #216]	; (8000e0c <HAL_RCC_OscConfig+0x298>)
 8000d34:	4313      	orrs	r3, r2
 8000d36:	604b      	str	r3, [r1, #4]
 8000d38:	e01a      	b.n	8000d70 <HAL_RCC_OscConfig+0x1fc>

      }
      else
      {
        /* Disable the Internal High Speed oscillator (MSI). */
        __HAL_RCC_MSI_DISABLE();
 8000d3a:	4b34      	ldr	r3, [pc, #208]	; (8000e0c <HAL_RCC_OscConfig+0x298>)
 8000d3c:	681b      	ldr	r3, [r3, #0]
 8000d3e:	4a33      	ldr	r2, [pc, #204]	; (8000e0c <HAL_RCC_OscConfig+0x298>)
 8000d40:	f023 0301 	bic.w	r3, r3, #1
 8000d44:	6013      	str	r3, [r2, #0]

        /* Get timeout */
        tickstart = HAL_GetTick();
 8000d46:	f7ff fbbf 	bl	80004c8 <HAL_GetTick>
 8000d4a:	6138      	str	r0, [r7, #16]

        /* Wait till MSI is ready */
        while(READ_BIT(RCC->CR, RCC_CR_MSIRDY) != 0U)
 8000d4c:	e008      	b.n	8000d60 <HAL_RCC_OscConfig+0x1ec>
        {
          if((HAL_GetTick() - tickstart) > MSI_TIMEOUT_VALUE)
 8000d4e:	f7ff fbbb 	bl	80004c8 <HAL_GetTick>
 8000d52:	4602      	mov	r2, r0
 8000d54:	693b      	ldr	r3, [r7, #16]
 8000d56:	1ad3      	subs	r3, r2, r3
 8000d58:	2b02      	cmp	r3, #2
 8000d5a:	d901      	bls.n	8000d60 <HAL_RCC_OscConfig+0x1ec>
          {
            return HAL_TIMEOUT;
 8000d5c:	2303      	movs	r3, #3
 8000d5e:	e2e7      	b.n	8001330 <HAL_RCC_OscConfig+0x7bc>
        while(READ_BIT(RCC->CR, RCC_CR_MSIRDY) != 0U)
 8000d60:	4b2a      	ldr	r3, [pc, #168]	; (8000e0c <HAL_RCC_OscConfig+0x298>)
 8000d62:	681b      	ldr	r3, [r3, #0]
 8000d64:	f003 0302 	and.w	r3, r3, #2
 8000d68:	2b00      	cmp	r3, #0
 8000d6a:	d1f0      	bne.n	8000d4e <HAL_RCC_OscConfig+0x1da>
 8000d6c:	e000      	b.n	8000d70 <HAL_RCC_OscConfig+0x1fc>
      if((READ_BIT(RCC->CR, RCC_CR_MSIRDY) != 0U) && (RCC_OscInitStruct->MSIState == RCC_MSI_OFF))
 8000d6e:	bf00      	nop
        }
      }
    }
  }
  /*------------------------------- HSE Configuration ------------------------*/
  if(((RCC_OscInitStruct->OscillatorType) & RCC_OSCILLATORTYPE_HSE) == RCC_OSCILLATORTYPE_HSE)
 8000d70:	687b      	ldr	r3, [r7, #4]
 8000d72:	681b      	ldr	r3, [r3, #0]
 8000d74:	f003 0301 	and.w	r3, r3, #1
 8000d78:	2b00      	cmp	r3, #0
 8000d7a:	d074      	beq.n	8000e66 <HAL_RCC_OscConfig+0x2f2>
  {
    /* Check the parameters */
    assert_param(IS_RCC_HSE(RCC_OscInitStruct->HSEState));

    /* When the HSE is used as system clock or clock source for PLL in these cases it is not allowed to be disabled */
    if((sysclk_source == RCC_CFGR_SWS_HSE) ||
 8000d7c:	69bb      	ldr	r3, [r7, #24]
 8000d7e:	2b08      	cmp	r3, #8
 8000d80:	d005      	beq.n	8000d8e <HAL_RCC_OscConfig+0x21a>
 8000d82:	69bb      	ldr	r3, [r7, #24]
 8000d84:	2b0c      	cmp	r3, #12
 8000d86:	d10e      	bne.n	8000da6 <HAL_RCC_OscConfig+0x232>
       ((sysclk_source == RCC_CFGR_SWS_PLL) && (pll_config == RCC_PLLSOURCE_HSE)))
 8000d88:	697b      	ldr	r3, [r7, #20]
 8000d8a:	2b03      	cmp	r3, #3
 8000d8c:	d10b      	bne.n	8000da6 <HAL_RCC_OscConfig+0x232>
    {
      if((READ_BIT(RCC->CR, RCC_CR_HSERDY) != 0U) && (RCC_OscInitStruct->HSEState == RCC_HSE_OFF))
 8000d8e:	4b1f      	ldr	r3, [pc, #124]	; (8000e0c <HAL_RCC_OscConfig+0x298>)
 8000d90:	681b      	ldr	r3, [r3, #0]
 8000d92:	f403 3300 	and.w	r3, r3, #131072	; 0x20000
 8000d96:	2b00      	cmp	r3, #0
 8000d98:	d064      	beq.n	8000e64 <HAL_RCC_OscConfig+0x2f0>
 8000d9a:	687b      	ldr	r3, [r7, #4]
 8000d9c:	685b      	ldr	r3, [r3, #4]
 8000d9e:	2b00      	cmp	r3, #0
 8000da0:	d160      	bne.n	8000e64 <HAL_RCC_OscConfig+0x2f0>
      {
        return HAL_ERROR;
 8000da2:	2301      	movs	r3, #1
 8000da4:	e2c4      	b.n	8001330 <HAL_RCC_OscConfig+0x7bc>
      }
    }
    else
    {
      /* Set the new HSE configuration ---------------------------------------*/
      __HAL_RCC_HSE_CONFIG(RCC_OscInitStruct->HSEState);
 8000da6:	687b      	ldr	r3, [r7, #4]
 8000da8:	685b      	ldr	r3, [r3, #4]
 8000daa:	f5b3 3f80 	cmp.w	r3, #65536	; 0x10000
 8000dae:	d106      	bne.n	8000dbe <HAL_RCC_OscConfig+0x24a>
 8000db0:	4b16      	ldr	r3, [pc, #88]	; (8000e0c <HAL_RCC_OscConfig+0x298>)
 8000db2:	681b      	ldr	r3, [r3, #0]
 8000db4:	4a15      	ldr	r2, [pc, #84]	; (8000e0c <HAL_RCC_OscConfig+0x298>)
 8000db6:	f443 3380 	orr.w	r3, r3, #65536	; 0x10000
 8000dba:	6013      	str	r3, [r2, #0]
 8000dbc:	e01d      	b.n	8000dfa <HAL_RCC_OscConfig+0x286>
 8000dbe:	687b      	ldr	r3, [r7, #4]
 8000dc0:	685b      	ldr	r3, [r3, #4]
 8000dc2:	f5b3 2fa0 	cmp.w	r3, #327680	; 0x50000
 8000dc6:	d10c      	bne.n	8000de2 <HAL_RCC_OscConfig+0x26e>
 8000dc8:	4b10      	ldr	r3, [pc, #64]	; (8000e0c <HAL_RCC_OscConfig+0x298>)
 8000dca:	681b      	ldr	r3, [r3, #0]
 8000dcc:	4a0f      	ldr	r2, [pc, #60]	; (8000e0c <HAL_RCC_OscConfig+0x298>)
 8000dce:	f443 2380 	orr.w	r3, r3, #262144	; 0x40000
 8000dd2:	6013      	str	r3, [r2, #0]
 8000dd4:	4b0d      	ldr	r3, [pc, #52]	; (8000e0c <HAL_RCC_OscConfig+0x298>)
 8000dd6:	681b      	ldr	r3, [r3, #0]
 8000dd8:	4a0c      	ldr	r2, [pc, #48]	; (8000e0c <HAL_RCC_OscConfig+0x298>)
 8000dda:	f443 3380 	orr.w	r3, r3, #65536	; 0x10000
 8000dde:	6013      	str	r3, [r2, #0]
 8000de0:	e00b      	b.n	8000dfa <HAL_RCC_OscConfig+0x286>
 8000de2:	4b0a      	ldr	r3, [pc, #40]	; (8000e0c <HAL_RCC_OscConfig+0x298>)
 8000de4:	681b      	ldr	r3, [r3, #0]
 8000de6:	4a09      	ldr	r2, [pc, #36]	; (8000e0c <HAL_RCC_OscConfig+0x298>)
 8000de8:	f423 3380 	bic.w	r3, r3, #65536	; 0x10000
 8000dec:	6013      	str	r3, [r2, #0]
 8000dee:	4b07      	ldr	r3, [pc, #28]	; (8000e0c <HAL_RCC_OscConfig+0x298>)
 8000df0:	681b      	ldr	r3, [r3, #0]
 8000df2:	4a06      	ldr	r2, [pc, #24]	; (8000e0c <HAL_RCC_OscConfig+0x298>)
 8000df4:	f423 2380 	bic.w	r3, r3, #262144	; 0x40000
 8000df8:	6013      	str	r3, [r2, #0]

      /* Check the HSE State */
      if(RCC_OscInitStruct->HSEState != RCC_HSE_OFF)
 8000dfa:	687b      	ldr	r3, [r7, #4]
 8000dfc:	685b      	ldr	r3, [r3, #4]
 8000dfe:	2b00      	cmp	r3, #0
 8000e00:	d01c      	beq.n	8000e3c <HAL_RCC_OscConfig+0x2c8>
      {
        /* Get Start Tick*/
        tickstart = HAL_GetTick();
 8000e02:	f7ff fb61 	bl	80004c8 <HAL_GetTick>
 8000e06:	6138      	str	r0, [r7, #16]

        /* Wait till HSE is ready */
        while(READ_BIT(RCC->CR, RCC_CR_HSERDY) == 0U)
 8000e08:	e011      	b.n	8000e2e <HAL_RCC_OscConfig+0x2ba>
 8000e0a:	bf00      	nop
 8000e0c:	40021000 	.word	0x40021000
 8000e10:	0800174c 	.word	0x0800174c
 8000e14:	20000000 	.word	0x20000000
 8000e18:	20000004 	.word	0x20000004
        {
          if((HAL_GetTick() - tickstart) > HSE_TIMEOUT_VALUE)
 8000e1c:	f7ff fb54 	bl	80004c8 <HAL_GetTick>
 8000e20:	4602      	mov	r2, r0
 8000e22:	693b      	ldr	r3, [r7, #16]
 8000e24:	1ad3      	subs	r3, r2, r3
 8000e26:	2b64      	cmp	r3, #100	; 0x64
 8000e28:	d901      	bls.n	8000e2e <HAL_RCC_OscConfig+0x2ba>
          {
            return HAL_TIMEOUT;
 8000e2a:	2303      	movs	r3, #3
 8000e2c:	e280      	b.n	8001330 <HAL_RCC_OscConfig+0x7bc>
        while(READ_BIT(RCC->CR, RCC_CR_HSERDY) == 0U)
 8000e2e:	4baf      	ldr	r3, [pc, #700]	; (80010ec <HAL_RCC_OscConfig+0x578>)
 8000e30:	681b      	ldr	r3, [r3, #0]
 8000e32:	f403 3300 	and.w	r3, r3, #131072	; 0x20000
 8000e36:	2b00      	cmp	r3, #0
 8000e38:	d0f0      	beq.n	8000e1c <HAL_RCC_OscConfig+0x2a8>
 8000e3a:	e014      	b.n	8000e66 <HAL_RCC_OscConfig+0x2f2>
        }
      }
      else
      {
        /* Get Start Tick*/
        tickstart = HAL_GetTick();
 8000e3c:	f7ff fb44 	bl	80004c8 <HAL_GetTick>
 8000e40:	6138      	str	r0, [r7, #16]

        /* Wait till HSE is disabled */
        while(READ_BIT(RCC->CR, RCC_CR_HSERDY) != 0U)
 8000e42:	e008      	b.n	8000e56 <HAL_RCC_OscConfig+0x2e2>
        {
          if((HAL_GetTick() - tickstart) > HSE_TIMEOUT_VALUE)
 8000e44:	f7ff fb40 	bl	80004c8 <HAL_GetTick>
 8000e48:	4602      	mov	r2, r0
 8000e4a:	693b      	ldr	r3, [r7, #16]
 8000e4c:	1ad3      	subs	r3, r2, r3
 8000e4e:	2b64      	cmp	r3, #100	; 0x64
 8000e50:	d901      	bls.n	8000e56 <HAL_RCC_OscConfig+0x2e2>
          {
            return HAL_TIMEOUT;
 8000e52:	2303      	movs	r3, #3
 8000e54:	e26c      	b.n	8001330 <HAL_RCC_OscConfig+0x7bc>
        while(READ_BIT(RCC->CR, RCC_CR_HSERDY) != 0U)
 8000e56:	4ba5      	ldr	r3, [pc, #660]	; (80010ec <HAL_RCC_OscConfig+0x578>)
 8000e58:	681b      	ldr	r3, [r3, #0]
 8000e5a:	f403 3300 	and.w	r3, r3, #131072	; 0x20000
 8000e5e:	2b00      	cmp	r3, #0
 8000e60:	d1f0      	bne.n	8000e44 <HAL_RCC_OscConfig+0x2d0>
 8000e62:	e000      	b.n	8000e66 <HAL_RCC_OscConfig+0x2f2>
      if((READ_BIT(RCC->CR, RCC_CR_HSERDY) != 0U) && (RCC_OscInitStruct->HSEState == RCC_HSE_OFF))
 8000e64:	bf00      	nop
        }
      }
    }
  }
  /*----------------------------- HSI Configuration --------------------------*/
  if(((RCC_OscInitStruct->OscillatorType) & RCC_OSCILLATORTYPE_HSI) == RCC_OSCILLATORTYPE_HSI)
 8000e66:	687b      	ldr	r3, [r7, #4]
 8000e68:	681b      	ldr	r3, [r3, #0]
 8000e6a:	f003 0302 	and.w	r3, r3, #2
 8000e6e:	2b00      	cmp	r3, #0
 8000e70:	d060      	beq.n	8000f34 <HAL_RCC_OscConfig+0x3c0>
    /* Check the parameters */
    assert_param(IS_RCC_HSI(RCC_OscInitStruct->HSIState));
    assert_param(IS_RCC_HSI_CALIBRATION_VALUE(RCC_OscInitStruct->HSICalibrationValue));

    /* Check if HSI is used as system clock or as PLL source when PLL is selected as system clock */
    if((sysclk_source == RCC_CFGR_SWS_HSI) ||
 8000e72:	69bb      	ldr	r3, [r7, #24]
 8000e74:	2b04      	cmp	r3, #4
 8000e76:	d005      	beq.n	8000e84 <HAL_RCC_OscConfig+0x310>
 8000e78:	69bb      	ldr	r3, [r7, #24]
 8000e7a:	2b0c      	cmp	r3, #12
 8000e7c:	d119      	bne.n	8000eb2 <HAL_RCC_OscConfig+0x33e>
       ((sysclk_source == RCC_CFGR_SWS_PLL) && (pll_config == RCC_PLLSOURCE_HSI)))
 8000e7e:	697b      	ldr	r3, [r7, #20]
 8000e80:	2b02      	cmp	r3, #2
 8000e82:	d116      	bne.n	8000eb2 <HAL_RCC_OscConfig+0x33e>
    {
      /* When HSI is used as system clock it will not be disabled */
      if((READ_BIT(RCC->CR, RCC_CR_HSIRDY) != 0U) && (RCC_OscInitStruct->HSIState == RCC_HSI_OFF))
 8000e84:	4b99      	ldr	r3, [pc, #612]	; (80010ec <HAL_RCC_OscConfig+0x578>)
 8000e86:	681b      	ldr	r3, [r3, #0]
 8000e88:	f403 6380 	and.w	r3, r3, #1024	; 0x400
 8000e8c:	2b00      	cmp	r3, #0
 8000e8e:	d005      	beq.n	8000e9c <HAL_RCC_OscConfig+0x328>
 8000e90:	687b      	ldr	r3, [r7, #4]
 8000e92:	68db      	ldr	r3, [r3, #12]
 8000e94:	2b00      	cmp	r3, #0
 8000e96:	d101      	bne.n	8000e9c <HAL_RCC_OscConfig+0x328>
      {
        return HAL_ERROR;
 8000e98:	2301      	movs	r3, #1
 8000e9a:	e249      	b.n	8001330 <HAL_RCC_OscConfig+0x7bc>
      }
      /* Otherwise, just the calibration is allowed */
      else
      {
        /* Adjusts the Internal High Speed oscillator (HSI) calibration value.*/
        __HAL_RCC_HSI_CALIBRATIONVALUE_ADJUST(RCC_OscInitStruct->HSICalibrationValue);
 8000e9c:	4b93      	ldr	r3, [pc, #588]	; (80010ec <HAL_RCC_OscConfig+0x578>)
 8000e9e:	685b      	ldr	r3, [r3, #4]
 8000ea0:	f023 52f8 	bic.w	r2, r3, #520093696	; 0x1f000000
 8000ea4:	687b      	ldr	r3, [r7, #4]
 8000ea6:	691b      	ldr	r3, [r3, #16]
 8000ea8:	061b      	lsls	r3, r3, #24
 8000eaa:	4990      	ldr	r1, [pc, #576]	; (80010ec <HAL_RCC_OscConfig+0x578>)
 8000eac:	4313      	orrs	r3, r2
 8000eae:	604b      	str	r3, [r1, #4]
      if((READ_BIT(RCC->CR, RCC_CR_HSIRDY) != 0U) && (RCC_OscInitStruct->HSIState == RCC_HSI_OFF))
 8000eb0:	e040      	b.n	8000f34 <HAL_RCC_OscConfig+0x3c0>
      }
    }
    else
    {
      /* Check the HSI State */
      if(RCC_OscInitStruct->HSIState != RCC_HSI_OFF)
 8000eb2:	687b      	ldr	r3, [r7, #4]
 8000eb4:	68db      	ldr	r3, [r3, #12]
 8000eb6:	2b00      	cmp	r3, #0
 8000eb8:	d023      	beq.n	8000f02 <HAL_RCC_OscConfig+0x38e>
      {
        /* Enable the Internal High Speed oscillator (HSI). */
        __HAL_RCC_HSI_ENABLE();
 8000eba:	4b8c      	ldr	r3, [pc, #560]	; (80010ec <HAL_RCC_OscConfig+0x578>)
 8000ebc:	681b      	ldr	r3, [r3, #0]
 8000ebe:	4a8b      	ldr	r2, [pc, #556]	; (80010ec <HAL_RCC_OscConfig+0x578>)
 8000ec0:	f443 7380 	orr.w	r3, r3, #256	; 0x100
 8000ec4:	6013      	str	r3, [r2, #0]

        /* Get Start Tick*/
        tickstart = HAL_GetTick();
 8000ec6:	f7ff faff 	bl	80004c8 <HAL_GetTick>
 8000eca:	6138      	str	r0, [r7, #16]

        /* Wait till HSI is ready */
        while(READ_BIT(RCC->CR, RCC_CR_HSIRDY) == 0U)
 8000ecc:	e008      	b.n	8000ee0 <HAL_RCC_OscConfig+0x36c>
        {
          if((HAL_GetTick() - tickstart) > HSI_TIMEOUT_VALUE)
 8000ece:	f7ff fafb 	bl	80004c8 <HAL_GetTick>
 8000ed2:	4602      	mov	r2, r0
 8000ed4:	693b      	ldr	r3, [r7, #16]
 8000ed6:	1ad3      	subs	r3, r2, r3
 8000ed8:	2b02      	cmp	r3, #2
 8000eda:	d901      	bls.n	8000ee0 <HAL_RCC_OscConfig+0x36c>
          {
            return HAL_TIMEOUT;
 8000edc:	2303      	movs	r3, #3
 8000ede:	e227      	b.n	8001330 <HAL_RCC_OscConfig+0x7bc>
        while(READ_BIT(RCC->CR, RCC_CR_HSIRDY) == 0U)
 8000ee0:	4b82      	ldr	r3, [pc, #520]	; (80010ec <HAL_RCC_OscConfig+0x578>)
 8000ee2:	681b      	ldr	r3, [r3, #0]
 8000ee4:	f403 6380 	and.w	r3, r3, #1024	; 0x400
 8000ee8:	2b00      	cmp	r3, #0
 8000eea:	d0f0      	beq.n	8000ece <HAL_RCC_OscConfig+0x35a>
          }
        }

        /* Adjusts the Internal High Speed oscillator (HSI) calibration value.*/
        __HAL_RCC_HSI_CALIBRATIONVALUE_ADJUST(RCC_OscInitStruct->HSICalibrationValue);
 8000eec:	4b7f      	ldr	r3, [pc, #508]	; (80010ec <HAL_RCC_OscConfig+0x578>)
 8000eee:	685b      	ldr	r3, [r3, #4]
 8000ef0:	f023 52f8 	bic.w	r2, r3, #520093696	; 0x1f000000
 8000ef4:	687b      	ldr	r3, [r7, #4]
 8000ef6:	691b      	ldr	r3, [r3, #16]
 8000ef8:	061b      	lsls	r3, r3, #24
 8000efa:	497c      	ldr	r1, [pc, #496]	; (80010ec <HAL_RCC_OscConfig+0x578>)
 8000efc:	4313      	orrs	r3, r2
 8000efe:	604b      	str	r3, [r1, #4]
 8000f00:	e018      	b.n	8000f34 <HAL_RCC_OscConfig+0x3c0>
      }
      else
      {
        /* Disable the Internal High Speed oscillator (HSI). */
        __HAL_RCC_HSI_DISABLE();
 8000f02:	4b7a      	ldr	r3, [pc, #488]	; (80010ec <HAL_RCC_OscConfig+0x578>)
 8000f04:	681b      	ldr	r3, [r3, #0]
 8000f06:	4a79      	ldr	r2, [pc, #484]	; (80010ec <HAL_RCC_OscConfig+0x578>)
 8000f08:	f423 7380 	bic.w	r3, r3, #256	; 0x100
 8000f0c:	6013      	str	r3, [r2, #0]

        /* Get Start Tick*/
        tickstart = HAL_GetTick();
 8000f0e:	f7ff fadb 	bl	80004c8 <HAL_GetTick>
 8000f12:	6138      	str	r0, [r7, #16]

        /* Wait till HSI is disabled */
        while(READ_BIT(RCC->CR, RCC_CR_HSIRDY) != 0U)
 8000f14:	e008      	b.n	8000f28 <HAL_RCC_OscConfig+0x3b4>
        {
          if((HAL_GetTick() - tickstart) > HSI_TIMEOUT_VALUE)
 8000f16:	f7ff fad7 	bl	80004c8 <HAL_GetTick>
 8000f1a:	4602      	mov	r2, r0
 8000f1c:	693b      	ldr	r3, [r7, #16]
 8000f1e:	1ad3      	subs	r3, r2, r3
 8000f20:	2b02      	cmp	r3, #2
 8000f22:	d901      	bls.n	8000f28 <HAL_RCC_OscConfig+0x3b4>
          {
            return HAL_TIMEOUT;
 8000f24:	2303      	movs	r3, #3
 8000f26:	e203      	b.n	8001330 <HAL_RCC_OscConfig+0x7bc>
        while(READ_BIT(RCC->CR, RCC_CR_HSIRDY) != 0U)
 8000f28:	4b70      	ldr	r3, [pc, #448]	; (80010ec <HAL_RCC_OscConfig+0x578>)
 8000f2a:	681b      	ldr	r3, [r3, #0]
 8000f2c:	f403 6380 	and.w	r3, r3, #1024	; 0x400
 8000f30:	2b00      	cmp	r3, #0
 8000f32:	d1f0      	bne.n	8000f16 <HAL_RCC_OscConfig+0x3a2>
        }
      }
    }
  }
  /*------------------------------ LSI Configuration -------------------------*/
  if(((RCC_OscInitStruct->OscillatorType) & RCC_OSCILLATORTYPE_LSI) == RCC_OSCILLATORTYPE_LSI)
 8000f34:	687b      	ldr	r3, [r7, #4]
 8000f36:	681b      	ldr	r3, [r3, #0]
 8000f38:	f003 0308 	and.w	r3, r3, #8
 8000f3c:	2b00      	cmp	r3, #0
 8000f3e:	d03c      	beq.n	8000fba <HAL_RCC_OscConfig+0x446>
  {
    /* Check the parameters */
    assert_param(IS_RCC_LSI(RCC_OscInitStruct->LSIState));

    /* Check the LSI State */
    if(RCC_OscInitStruct->LSIState != RCC_LSI_OFF)
 8000f40:	687b      	ldr	r3, [r7, #4]
 8000f42:	695b      	ldr	r3, [r3, #20]
 8000f44:	2b00      	cmp	r3, #0
 8000f46:	d01c      	beq.n	8000f82 <HAL_RCC_OscConfig+0x40e>
        MODIFY_REG(RCC->CSR, RCC_CSR_LSIPREDIV, RCC_OscInitStruct->LSIDiv);
      }
#endif /* RCC_CSR_LSIPREDIV */

      /* Enable the Internal Low Speed oscillator (LSI). */
      __HAL_RCC_LSI_ENABLE();
 8000f48:	4b68      	ldr	r3, [pc, #416]	; (80010ec <HAL_RCC_OscConfig+0x578>)
 8000f4a:	f8d3 3094 	ldr.w	r3, [r3, #148]	; 0x94
 8000f4e:	4a67      	ldr	r2, [pc, #412]	; (80010ec <HAL_RCC_OscConfig+0x578>)
 8000f50:	f043 0301 	orr.w	r3, r3, #1
 8000f54:	f8c2 3094 	str.w	r3, [r2, #148]	; 0x94

      /* Get Start Tick*/
      tickstart = HAL_GetTick();
 8000f58:	f7ff fab6 	bl	80004c8 <HAL_GetTick>
 8000f5c:	6138      	str	r0, [r7, #16]

      /* Wait till LSI is ready */
      while(READ_BIT(RCC->CSR, RCC_CSR_LSIRDY) == 0U)
 8000f5e:	e008      	b.n	8000f72 <HAL_RCC_OscConfig+0x3fe>
      {
        if((HAL_GetTick() - tickstart) > LSI_TIMEOUT_VALUE)
 8000f60:	f7ff fab2 	bl	80004c8 <HAL_GetTick>
 8000f64:	4602      	mov	r2, r0
 8000f66:	693b      	ldr	r3, [r7, #16]
 8000f68:	1ad3      	subs	r3, r2, r3
 8000f6a:	2b02      	cmp	r3, #2
 8000f6c:	d901      	bls.n	8000f72 <HAL_RCC_OscConfig+0x3fe>
        {
          return HAL_TIMEOUT;
 8000f6e:	2303      	movs	r3, #3
 8000f70:	e1de      	b.n	8001330 <HAL_RCC_OscConfig+0x7bc>
      while(READ_BIT(RCC->CSR, RCC_CSR_LSIRDY) == 0U)
 8000f72:	4b5e      	ldr	r3, [pc, #376]	; (80010ec <HAL_RCC_OscConfig+0x578>)
 8000f74:	f8d3 3094 	ldr.w	r3, [r3, #148]	; 0x94
 8000f78:	f003 0302 	and.w	r3, r3, #2
 8000f7c:	2b00      	cmp	r3, #0
 8000f7e:	d0ef      	beq.n	8000f60 <HAL_RCC_OscConfig+0x3ec>
 8000f80:	e01b      	b.n	8000fba <HAL_RCC_OscConfig+0x446>
      }
    }
    else
    {
      /* Disable the Internal Low Speed oscillator (LSI). */
      __HAL_RCC_LSI_DISABLE();
 8000f82:	4b5a      	ldr	r3, [pc, #360]	; (80010ec <HAL_RCC_OscConfig+0x578>)
 8000f84:	f8d3 3094 	ldr.w	r3, [r3, #148]	; 0x94
 8000f88:	4a58      	ldr	r2, [pc, #352]	; (80010ec <HAL_RCC_OscConfig+0x578>)
 8000f8a:	f023 0301 	bic.w	r3, r3, #1
 8000f8e:	f8c2 3094 	str.w	r3, [r2, #148]	; 0x94

      /* Get Start Tick*/
      tickstart = HAL_GetTick();
 8000f92:	f7ff fa99 	bl	80004c8 <HAL_GetTick>
 8000f96:	6138      	str	r0, [r7, #16]

      /* Wait till LSI is disabled */
      while(READ_BIT(RCC->CSR, RCC_CSR_LSIRDY) != 0U)
 8000f98:	e008      	b.n	8000fac <HAL_RCC_OscConfig+0x438>
      {
        if((HAL_GetTick() - tickstart) > LSI_TIMEOUT_VALUE)
 8000f9a:	f7ff fa95 	bl	80004c8 <HAL_GetTick>
 8000f9e:	4602      	mov	r2, r0
 8000fa0:	693b      	ldr	r3, [r7, #16]
 8000fa2:	1ad3      	subs	r3, r2, r3
 8000fa4:	2b02      	cmp	r3, #2
 8000fa6:	d901      	bls.n	8000fac <HAL_RCC_OscConfig+0x438>
        {
          return HAL_TIMEOUT;
 8000fa8:	2303      	movs	r3, #3
 8000faa:	e1c1      	b.n	8001330 <HAL_RCC_OscConfig+0x7bc>
      while(READ_BIT(RCC->CSR, RCC_CSR_LSIRDY) != 0U)
 8000fac:	4b4f      	ldr	r3, [pc, #316]	; (80010ec <HAL_RCC_OscConfig+0x578>)
 8000fae:	f8d3 3094 	ldr.w	r3, [r3, #148]	; 0x94
 8000fb2:	f003 0302 	and.w	r3, r3, #2
 8000fb6:	2b00      	cmp	r3, #0
 8000fb8:	d1ef      	bne.n	8000f9a <HAL_RCC_OscConfig+0x426>
        }
      }
    }
  }
  /*------------------------------ LSE Configuration -------------------------*/
  if(((RCC_OscInitStruct->OscillatorType) & RCC_OSCILLATORTYPE_LSE) == RCC_OSCILLATORTYPE_LSE)
 8000fba:	687b      	ldr	r3, [r7, #4]
 8000fbc:	681b      	ldr	r3, [r3, #0]
 8000fbe:	f003 0304 	and.w	r3, r3, #4
 8000fc2:	2b00      	cmp	r3, #0
 8000fc4:	f000 80a6 	beq.w	8001114 <HAL_RCC_OscConfig+0x5a0>
  {
    FlagStatus       pwrclkchanged = RESET;
 8000fc8:	2300      	movs	r3, #0
 8000fca:	77fb      	strb	r3, [r7, #31]
    /* Check the parameters */
    assert_param(IS_RCC_LSE(RCC_OscInitStruct->LSEState));

    /* Update LSE configuration in Backup Domain control register    */
    /* Requires to enable write access to Backup Domain of necessary */
    if(HAL_IS_BIT_CLR(RCC->APB1ENR1, RCC_APB1ENR1_PWREN))
 8000fcc:	4b47      	ldr	r3, [pc, #284]	; (80010ec <HAL_RCC_OscConfig+0x578>)
 8000fce:	6d9b      	ldr	r3, [r3, #88]	; 0x58
 8000fd0:	f003 5380 	and.w	r3, r3, #268435456	; 0x10000000
 8000fd4:	2b00      	cmp	r3, #0
 8000fd6:	d10d      	bne.n	8000ff4 <HAL_RCC_OscConfig+0x480>
    {
      __HAL_RCC_PWR_CLK_ENABLE();
 8000fd8:	4b44      	ldr	r3, [pc, #272]	; (80010ec <HAL_RCC_OscConfig+0x578>)
 8000fda:	6d9b      	ldr	r3, [r3, #88]	; 0x58
 8000fdc:	4a43      	ldr	r2, [pc, #268]	; (80010ec <HAL_RCC_OscConfig+0x578>)
 8000fde:	f043 5380 	orr.w	r3, r3, #268435456	; 0x10000000
 8000fe2:	6593      	str	r3, [r2, #88]	; 0x58
 8000fe4:	4b41      	ldr	r3, [pc, #260]	; (80010ec <HAL_RCC_OscConfig+0x578>)
 8000fe6:	6d9b      	ldr	r3, [r3, #88]	; 0x58
 8000fe8:	f003 5380 	and.w	r3, r3, #268435456	; 0x10000000
 8000fec:	60bb      	str	r3, [r7, #8]
 8000fee:	68bb      	ldr	r3, [r7, #8]
      pwrclkchanged = SET;
 8000ff0:	2301      	movs	r3, #1
 8000ff2:	77fb      	strb	r3, [r7, #31]
    }

    if(HAL_IS_BIT_CLR(PWR->CR1, PWR_CR1_DBP))
 8000ff4:	4b3e      	ldr	r3, [pc, #248]	; (80010f0 <HAL_RCC_OscConfig+0x57c>)
 8000ff6:	681b      	ldr	r3, [r3, #0]
 8000ff8:	f403 7380 	and.w	r3, r3, #256	; 0x100
 8000ffc:	2b00      	cmp	r3, #0
 8000ffe:	d118      	bne.n	8001032 <HAL_RCC_OscConfig+0x4be>
    {
      /* Enable write access to Backup domain */
      SET_BIT(PWR->CR1, PWR_CR1_DBP);
 8001000:	4b3b      	ldr	r3, [pc, #236]	; (80010f0 <HAL_RCC_OscConfig+0x57c>)
 8001002:	681b      	ldr	r3, [r3, #0]
 8001004:	4a3a      	ldr	r2, [pc, #232]	; (80010f0 <HAL_RCC_OscConfig+0x57c>)
 8001006:	f443 7380 	orr.w	r3, r3, #256	; 0x100
 800100a:	6013      	str	r3, [r2, #0]

      /* Wait for Backup domain Write protection disable */
      tickstart = HAL_GetTick();
 800100c:	f7ff fa5c 	bl	80004c8 <HAL_GetTick>
 8001010:	6138      	str	r0, [r7, #16]

      while(HAL_IS_BIT_CLR(PWR->CR1, PWR_CR1_DBP))
 8001012:	e008      	b.n	8001026 <HAL_RCC_OscConfig+0x4b2>
      {
        if((HAL_GetTick() - tickstart) > RCC_DBP_TIMEOUT_VALUE)
 8001014:	f7ff fa58 	bl	80004c8 <HAL_GetTick>
 8001018:	4602      	mov	r2, r0
 800101a:	693b      	ldr	r3, [r7, #16]
 800101c:	1ad3      	subs	r3, r2, r3
 800101e:	2b02      	cmp	r3, #2
 8001020:	d901      	bls.n	8001026 <HAL_RCC_OscConfig+0x4b2>
        {
          return HAL_TIMEOUT;
 8001022:	2303      	movs	r3, #3
 8001024:	e184      	b.n	8001330 <HAL_RCC_OscConfig+0x7bc>
      while(HAL_IS_BIT_CLR(PWR->CR1, PWR_CR1_DBP))
 8001026:	4b32      	ldr	r3, [pc, #200]	; (80010f0 <HAL_RCC_OscConfig+0x57c>)
 8001028:	681b      	ldr	r3, [r3, #0]
 800102a:	f403 7380 	and.w	r3, r3, #256	; 0x100
 800102e:	2b00      	cmp	r3, #0
 8001030:	d0f0      	beq.n	8001014 <HAL_RCC_OscConfig+0x4a0>
    {
      CLEAR_BIT(RCC->BDCR, RCC_BDCR_LSEON);
      CLEAR_BIT(RCC->BDCR, RCC_BDCR_LSEBYP);
    }
#else
    __HAL_RCC_LSE_CONFIG(RCC_OscInitStruct->LSEState);
 8001032:	687b      	ldr	r3, [r7, #4]
 8001034:	689b      	ldr	r3, [r3, #8]
 8001036:	2b01      	cmp	r3, #1
 8001038:	d108      	bne.n	800104c <HAL_RCC_OscConfig+0x4d8>
 800103a:	4b2c      	ldr	r3, [pc, #176]	; (80010ec <HAL_RCC_OscConfig+0x578>)
 800103c:	f8d3 3090 	ldr.w	r3, [r3, #144]	; 0x90
 8001040:	4a2a      	ldr	r2, [pc, #168]	; (80010ec <HAL_RCC_OscConfig+0x578>)
 8001042:	f043 0301 	orr.w	r3, r3, #1
 8001046:	f8c2 3090 	str.w	r3, [r2, #144]	; 0x90
 800104a:	e024      	b.n	8001096 <HAL_RCC_OscConfig+0x522>
 800104c:	687b      	ldr	r3, [r7, #4]
 800104e:	689b      	ldr	r3, [r3, #8]
 8001050:	2b05      	cmp	r3, #5
 8001052:	d110      	bne.n	8001076 <HAL_RCC_OscConfig+0x502>
 8001054:	4b25      	ldr	r3, [pc, #148]	; (80010ec <HAL_RCC_OscConfig+0x578>)
 8001056:	f8d3 3090 	ldr.w	r3, [r3, #144]	; 0x90
 800105a:	4a24      	ldr	r2, [pc, #144]	; (80010ec <HAL_RCC_OscConfig+0x578>)
 800105c:	f043 0304 	orr.w	r3, r3, #4
 8001060:	f8c2 3090 	str.w	r3, [r2, #144]	; 0x90
 8001064:	4b21      	ldr	r3, [pc, #132]	; (80010ec <HAL_RCC_OscConfig+0x578>)
 8001066:	f8d3 3090 	ldr.w	r3, [r3, #144]	; 0x90
 800106a:	4a20      	ldr	r2, [pc, #128]	; (80010ec <HAL_RCC_OscConfig+0x578>)
 800106c:	f043 0301 	orr.w	r3, r3, #1
 8001070:	f8c2 3090 	str.w	r3, [r2, #144]	; 0x90
 8001074:	e00f      	b.n	8001096 <HAL_RCC_OscConfig+0x522>
 8001076:	4b1d      	ldr	r3, [pc, #116]	; (80010ec <HAL_RCC_OscConfig+0x578>)
 8001078:	f8d3 3090 	ldr.w	r3, [r3, #144]	; 0x90
 800107c:	4a1b      	ldr	r2, [pc, #108]	; (80010ec <HAL_RCC_OscConfig+0x578>)
 800107e:	f023 0301 	bic.w	r3, r3, #1
 8001082:	f8c2 3090 	str.w	r3, [r2, #144]	; 0x90
 8001086:	4b19      	ldr	r3, [pc, #100]	; (80010ec <HAL_RCC_OscConfig+0x578>)
 8001088:	f8d3 3090 	ldr.w	r3, [r3, #144]	; 0x90
 800108c:	4a17      	ldr	r2, [pc, #92]	; (80010ec <HAL_RCC_OscConfig+0x578>)
 800108e:	f023 0304 	bic.w	r3, r3, #4
 8001092:	f8c2 3090 	str.w	r3, [r2, #144]	; 0x90
#endif /* RCC_BDCR_LSESYSDIS */

    /* Check the LSE State */
    if(RCC_OscInitStruct->LSEState != RCC_LSE_OFF)
 8001096:	687b      	ldr	r3, [r7, #4]
 8001098:	689b      	ldr	r3, [r3, #8]
 800109a:	2b00      	cmp	r3, #0
 800109c:	d016      	beq.n	80010cc <HAL_RCC_OscConfig+0x558>
    {
      /* Get Start Tick*/
      tickstart = HAL_GetTick();
 800109e:	f7ff fa13 	bl	80004c8 <HAL_GetTick>
 80010a2:	6138      	str	r0, [r7, #16]

      /* Wait till LSE is ready */
      while(READ_BIT(RCC->BDCR, RCC_BDCR_LSERDY) == 0U)
 80010a4:	e00a      	b.n	80010bc <HAL_RCC_OscConfig+0x548>
      {
        if((HAL_GetTick() - tickstart) > RCC_LSE_TIMEOUT_VALUE)
 80010a6:	f7ff fa0f 	bl	80004c8 <HAL_GetTick>
 80010aa:	4602      	mov	r2, r0
 80010ac:	693b      	ldr	r3, [r7, #16]
 80010ae:	1ad3      	subs	r3, r2, r3
 80010b0:	f241 3288 	movw	r2, #5000	; 0x1388
 80010b4:	4293      	cmp	r3, r2
 80010b6:	d901      	bls.n	80010bc <HAL_RCC_OscConfig+0x548>
        {
          return HAL_TIMEOUT;
 80010b8:	2303      	movs	r3, #3
 80010ba:	e139      	b.n	8001330 <HAL_RCC_OscConfig+0x7bc>
      while(READ_BIT(RCC->BDCR, RCC_BDCR_LSERDY) == 0U)
 80010bc:	4b0b      	ldr	r3, [pc, #44]	; (80010ec <HAL_RCC_OscConfig+0x578>)
 80010be:	f8d3 3090 	ldr.w	r3, [r3, #144]	; 0x90
 80010c2:	f003 0302 	and.w	r3, r3, #2
 80010c6:	2b00      	cmp	r3, #0
 80010c8:	d0ed      	beq.n	80010a6 <HAL_RCC_OscConfig+0x532>
 80010ca:	e01a      	b.n	8001102 <HAL_RCC_OscConfig+0x58e>
      }
    }
    else
    {
      /* Get Start Tick*/
      tickstart = HAL_GetTick();
 80010cc:	f7ff f9fc 	bl	80004c8 <HAL_GetTick>
 80010d0:	6138      	str	r0, [r7, #16]

      /* Wait till LSE is disabled */
      while(READ_BIT(RCC->BDCR, RCC_BDCR_LSERDY) != 0U)
 80010d2:	e00f      	b.n	80010f4 <HAL_RCC_OscConfig+0x580>
      {
        if((HAL_GetTick() - tickstart) > RCC_LSE_TIMEOUT_VALUE)
 80010d4:	f7ff f9f8 	bl	80004c8 <HAL_GetTick>
 80010d8:	4602      	mov	r2, r0
 80010da:	693b      	ldr	r3, [r7, #16]
 80010dc:	1ad3      	subs	r3, r2, r3
 80010de:	f241 3288 	movw	r2, #5000	; 0x1388
 80010e2:	4293      	cmp	r3, r2
 80010e4:	d906      	bls.n	80010f4 <HAL_RCC_OscConfig+0x580>
        {
          return HAL_TIMEOUT;
 80010e6:	2303      	movs	r3, #3
 80010e8:	e122      	b.n	8001330 <HAL_RCC_OscConfig+0x7bc>
 80010ea:	bf00      	nop
 80010ec:	40021000 	.word	0x40021000
 80010f0:	40007000 	.word	0x40007000
      while(READ_BIT(RCC->BDCR, RCC_BDCR_LSERDY) != 0U)
 80010f4:	4b90      	ldr	r3, [pc, #576]	; (8001338 <HAL_RCC_OscConfig+0x7c4>)
 80010f6:	f8d3 3090 	ldr.w	r3, [r3, #144]	; 0x90
 80010fa:	f003 0302 	and.w	r3, r3, #2
 80010fe:	2b00      	cmp	r3, #0
 8001100:	d1e8      	bne.n	80010d4 <HAL_RCC_OscConfig+0x560>
      CLEAR_BIT(RCC->BDCR, RCC_BDCR_LSESYSDIS);
#endif /* RCC_BDCR_LSESYSDIS */
    }

    /* Restore clock configuration if changed */
    if(pwrclkchanged == SET)
 8001102:	7ffb      	ldrb	r3, [r7, #31]
 8001104:	2b01      	cmp	r3, #1
 8001106:	d105      	bne.n	8001114 <HAL_RCC_OscConfig+0x5a0>
    {
      __HAL_RCC_PWR_CLK_DISABLE();
 8001108:	4b8b      	ldr	r3, [pc, #556]	; (8001338 <HAL_RCC_OscConfig+0x7c4>)
 800110a:	6d9b      	ldr	r3, [r3, #88]	; 0x58
 800110c:	4a8a      	ldr	r2, [pc, #552]	; (8001338 <HAL_RCC_OscConfig+0x7c4>)
 800110e:	f023 5380 	bic.w	r3, r3, #268435456	; 0x10000000
 8001112:	6593      	str	r3, [r2, #88]	; 0x58
#endif /* RCC_HSI48_SUPPORT */
  /*-------------------------------- PLL Configuration -----------------------*/
  /* Check the parameters */
  assert_param(IS_RCC_PLL(RCC_OscInitStruct->PLL.PLLState));

  if(RCC_OscInitStruct->PLL.PLLState != RCC_PLL_NONE)
 8001114:	687b      	ldr	r3, [r7, #4]
 8001116:	6a9b      	ldr	r3, [r3, #40]	; 0x28
 8001118:	2b00      	cmp	r3, #0
 800111a:	f000 8108 	beq.w	800132e <HAL_RCC_OscConfig+0x7ba>
  {
    /* PLL On ? */
    if(RCC_OscInitStruct->PLL.PLLState == RCC_PLL_ON)
 800111e:	687b      	ldr	r3, [r7, #4]
 8001120:	6a9b      	ldr	r3, [r3, #40]	; 0x28
 8001122:	2b02      	cmp	r3, #2
 8001124:	f040 80d0 	bne.w	80012c8 <HAL_RCC_OscConfig+0x754>
#endif /* RCC_PLLP_SUPPORT */
      assert_param(IS_RCC_PLLQ_VALUE(RCC_OscInitStruct->PLL.PLLQ));
      assert_param(IS_RCC_PLLR_VALUE(RCC_OscInitStruct->PLL.PLLR));

      /* Do nothing if PLL configuration is the unchanged */
      pll_config = RCC->PLLCFGR;
 8001128:	4b83      	ldr	r3, [pc, #524]	; (8001338 <HAL_RCC_OscConfig+0x7c4>)
 800112a:	68db      	ldr	r3, [r3, #12]
 800112c:	617b      	str	r3, [r7, #20]
      if((READ_BIT(pll_config, RCC_PLLCFGR_PLLSRC)  != RCC_OscInitStruct->PLL.PLLSource) ||
 800112e:	697b      	ldr	r3, [r7, #20]
 8001130:	f003 0203 	and.w	r2, r3, #3
 8001134:	687b      	ldr	r3, [r7, #4]
 8001136:	6adb      	ldr	r3, [r3, #44]	; 0x2c
 8001138:	429a      	cmp	r2, r3
 800113a:	d130      	bne.n	800119e <HAL_RCC_OscConfig+0x62a>
         (READ_BIT(pll_config, RCC_PLLCFGR_PLLM)    != ((RCC_OscInitStruct->PLL.PLLM - 1U) << RCC_PLLCFGR_PLLM_Pos)) ||
 800113c:	697b      	ldr	r3, [r7, #20]
 800113e:	f003 0270 	and.w	r2, r3, #112	; 0x70
 8001142:	687b      	ldr	r3, [r7, #4]
 8001144:	6b1b      	ldr	r3, [r3, #48]	; 0x30
 8001146:	3b01      	subs	r3, #1
 8001148:	011b      	lsls	r3, r3, #4
      if((READ_BIT(pll_config, RCC_PLLCFGR_PLLSRC)  != RCC_OscInitStruct->PLL.PLLSource) ||
 800114a:	429a      	cmp	r2, r3
 800114c:	d127      	bne.n	800119e <HAL_RCC_OscConfig+0x62a>
         (READ_BIT(pll_config, RCC_PLLCFGR_PLLN)    != (RCC_OscInitStruct->PLL.PLLN << RCC_PLLCFGR_PLLN_Pos)) ||
 800114e:	697b      	ldr	r3, [r7, #20]
 8001150:	f403 42fe 	and.w	r2, r3, #32512	; 0x7f00
 8001154:	687b      	ldr	r3, [r7, #4]
 8001156:	6b5b      	ldr	r3, [r3, #52]	; 0x34
 8001158:	021b      	lsls	r3, r3, #8
         (READ_BIT(pll_config, RCC_PLLCFGR_PLLM)    != ((RCC_OscInitStruct->PLL.PLLM - 1U) << RCC_PLLCFGR_PLLM_Pos)) ||
 800115a:	429a      	cmp	r2, r3
 800115c:	d11f      	bne.n	800119e <HAL_RCC_OscConfig+0x62a>
#if defined(RCC_PLLP_SUPPORT)
#if defined(RCC_PLLP_DIV_2_31_SUPPORT)
         (READ_BIT(pll_config, RCC_PLLCFGR_PLLPDIV) != (RCC_OscInitStruct->PLL.PLLP << RCC_PLLCFGR_PLLPDIV_Pos)) ||
#else
         (READ_BIT(pll_config, RCC_PLLCFGR_PLLP)    != ((RCC_OscInitStruct->PLL.PLLP == RCC_PLLP_DIV7) ? 0U : 1U)) ||
 800115e:	697b      	ldr	r3, [r7, #20]
 8001160:	f403 3300 	and.w	r3, r3, #131072	; 0x20000
 8001164:	687a      	ldr	r2, [r7, #4]
 8001166:	6b92      	ldr	r2, [r2, #56]	; 0x38
 8001168:	2a07      	cmp	r2, #7
 800116a:	bf14      	ite	ne
 800116c:	2201      	movne	r2, #1
 800116e:	2200      	moveq	r2, #0
 8001170:	b2d2      	uxtb	r2, r2
         (READ_BIT(pll_config, RCC_PLLCFGR_PLLN)    != (RCC_OscInitStruct->PLL.PLLN << RCC_PLLCFGR_PLLN_Pos)) ||
 8001172:	4293      	cmp	r3, r2
 8001174:	d113      	bne.n	800119e <HAL_RCC_OscConfig+0x62a>
#endif
#endif
         (READ_BIT(pll_config, RCC_PLLCFGR_PLLQ)    != ((((RCC_OscInitStruct->PLL.PLLQ) >> 1U) - 1U) << RCC_PLLCFGR_PLLQ_Pos)) ||
 8001176:	697b      	ldr	r3, [r7, #20]
 8001178:	f403 02c0 	and.w	r2, r3, #6291456	; 0x600000
 800117c:	687b      	ldr	r3, [r7, #4]
 800117e:	6bdb      	ldr	r3, [r3, #60]	; 0x3c
 8001180:	085b      	lsrs	r3, r3, #1
 8001182:	3b01      	subs	r3, #1
 8001184:	055b      	lsls	r3, r3, #21
         (READ_BIT(pll_config, RCC_PLLCFGR_PLLP)    != ((RCC_OscInitStruct->PLL.PLLP == RCC_PLLP_DIV7) ? 0U : 1U)) ||
 8001186:	429a      	cmp	r2, r3
 8001188:	d109      	bne.n	800119e <HAL_RCC_OscConfig+0x62a>
         (READ_BIT(pll_config, RCC_PLLCFGR_PLLR)    != ((((RCC_OscInitStruct->PLL.PLLR) >> 1U) - 1U) << RCC_PLLCFGR_PLLR_Pos)))
 800118a:	697b      	ldr	r3, [r7, #20]
 800118c:	f003 62c0 	and.w	r2, r3, #100663296	; 0x6000000
 8001190:	687b      	ldr	r3, [r7, #4]
 8001192:	6c1b      	ldr	r3, [r3, #64]	; 0x40
 8001194:	085b      	lsrs	r3, r3, #1
 8001196:	3b01      	subs	r3, #1
 8001198:	065b      	lsls	r3, r3, #25
         (READ_BIT(pll_config, RCC_PLLCFGR_PLLQ)    != ((((RCC_OscInitStruct->PLL.PLLQ) >> 1U) - 1U) << RCC_PLLCFGR_PLLQ_Pos)) ||
 800119a:	429a      	cmp	r2, r3
 800119c:	d06e      	beq.n	800127c <HAL_RCC_OscConfig+0x708>
      {
        /* Check if the PLL is used as system clock or not */
        if(sysclk_source != RCC_CFGR_SWS_PLL)
 800119e:	69bb      	ldr	r3, [r7, #24]
 80011a0:	2b0c      	cmp	r3, #12
 80011a2:	d069      	beq.n	8001278 <HAL_RCC_OscConfig+0x704>
        {
#if defined(RCC_PLLSAI1_SUPPORT) || defined(RCC_PLLSAI2_SUPPORT)
          /* Check if main PLL can be updated */
          /* Not possible if the source is shared by other enabled PLLSAIx */
          if((READ_BIT(RCC->CR, RCC_CR_PLLSAI1ON) != 0U)
 80011a4:	4b64      	ldr	r3, [pc, #400]	; (8001338 <HAL_RCC_OscConfig+0x7c4>)
 80011a6:	681b      	ldr	r3, [r3, #0]
 80011a8:	f003 6380 	and.w	r3, r3, #67108864	; 0x4000000
 80011ac:	2b00      	cmp	r3, #0
 80011ae:	d105      	bne.n	80011bc <HAL_RCC_OscConfig+0x648>
#if defined(RCC_PLLSAI2_SUPPORT)
             || (READ_BIT(RCC->CR, RCC_CR_PLLSAI2ON) != 0U)
 80011b0:	4b61      	ldr	r3, [pc, #388]	; (8001338 <HAL_RCC_OscConfig+0x7c4>)
 80011b2:	681b      	ldr	r3, [r3, #0]
 80011b4:	f003 5380 	and.w	r3, r3, #268435456	; 0x10000000
 80011b8:	2b00      	cmp	r3, #0
 80011ba:	d001      	beq.n	80011c0 <HAL_RCC_OscConfig+0x64c>
#endif
            )
          {
            return HAL_ERROR;
 80011bc:	2301      	movs	r3, #1
 80011be:	e0b7      	b.n	8001330 <HAL_RCC_OscConfig+0x7bc>
          }
          else
#endif /* RCC_PLLSAI1_SUPPORT || RCC_PLLSAI2_SUPPORT */
          {
            /* Disable the main PLL. */
            __HAL_RCC_PLL_DISABLE();
 80011c0:	4b5d      	ldr	r3, [pc, #372]	; (8001338 <HAL_RCC_OscConfig+0x7c4>)
 80011c2:	681b      	ldr	r3, [r3, #0]
 80011c4:	4a5c      	ldr	r2, [pc, #368]	; (8001338 <HAL_RCC_OscConfig+0x7c4>)
 80011c6:	f023 7380 	bic.w	r3, r3, #16777216	; 0x1000000
 80011ca:	6013      	str	r3, [r2, #0]

            /* Get Start Tick*/
            tickstart = HAL_GetTick();
 80011cc:	f7ff f97c 	bl	80004c8 <HAL_GetTick>
 80011d0:	6138      	str	r0, [r7, #16]

            /* Wait till PLL is ready */
            while(READ_BIT(RCC->CR, RCC_CR_PLLRDY) != 0U)
 80011d2:	e008      	b.n	80011e6 <HAL_RCC_OscConfig+0x672>
            {
              if((HAL_GetTick() - tickstart) > PLL_TIMEOUT_VALUE)
 80011d4:	f7ff f978 	bl	80004c8 <HAL_GetTick>
 80011d8:	4602      	mov	r2, r0
 80011da:	693b      	ldr	r3, [r7, #16]
 80011dc:	1ad3      	subs	r3, r2, r3
 80011de:	2b02      	cmp	r3, #2
 80011e0:	d901      	bls.n	80011e6 <HAL_RCC_OscConfig+0x672>
              {
                return HAL_TIMEOUT;
 80011e2:	2303      	movs	r3, #3
 80011e4:	e0a4      	b.n	8001330 <HAL_RCC_OscConfig+0x7bc>
            while(READ_BIT(RCC->CR, RCC_CR_PLLRDY) != 0U)
 80011e6:	4b54      	ldr	r3, [pc, #336]	; (8001338 <HAL_RCC_OscConfig+0x7c4>)
 80011e8:	681b      	ldr	r3, [r3, #0]
 80011ea:	f003 7300 	and.w	r3, r3, #33554432	; 0x2000000
 80011ee:	2b00      	cmp	r3, #0
 80011f0:	d1f0      	bne.n	80011d4 <HAL_RCC_OscConfig+0x660>
              }
            }

            /* Configure the main PLL clock source, multiplication and division factors. */
#if defined(RCC_PLLP_SUPPORT)
            __HAL_RCC_PLL_CONFIG(RCC_OscInitStruct->PLL.PLLSource,
 80011f2:	4b51      	ldr	r3, [pc, #324]	; (8001338 <HAL_RCC_OscConfig+0x7c4>)
 80011f4:	68da      	ldr	r2, [r3, #12]
 80011f6:	4b51      	ldr	r3, [pc, #324]	; (800133c <HAL_RCC_OscConfig+0x7c8>)
 80011f8:	4013      	ands	r3, r2
 80011fa:	687a      	ldr	r2, [r7, #4]
 80011fc:	6ad1      	ldr	r1, [r2, #44]	; 0x2c
 80011fe:	687a      	ldr	r2, [r7, #4]
 8001200:	6b12      	ldr	r2, [r2, #48]	; 0x30
 8001202:	3a01      	subs	r2, #1
 8001204:	0112      	lsls	r2, r2, #4
 8001206:	4311      	orrs	r1, r2
 8001208:	687a      	ldr	r2, [r7, #4]
 800120a:	6b52      	ldr	r2, [r2, #52]	; 0x34
 800120c:	0212      	lsls	r2, r2, #8
 800120e:	4311      	orrs	r1, r2
 8001210:	687a      	ldr	r2, [r7, #4]
 8001212:	6bd2      	ldr	r2, [r2, #60]	; 0x3c
 8001214:	0852      	lsrs	r2, r2, #1
 8001216:	3a01      	subs	r2, #1
 8001218:	0552      	lsls	r2, r2, #21
 800121a:	4311      	orrs	r1, r2
 800121c:	687a      	ldr	r2, [r7, #4]
 800121e:	6c12      	ldr	r2, [r2, #64]	; 0x40
 8001220:	0852      	lsrs	r2, r2, #1
 8001222:	3a01      	subs	r2, #1
 8001224:	0652      	lsls	r2, r2, #25
 8001226:	4311      	orrs	r1, r2
 8001228:	687a      	ldr	r2, [r7, #4]
 800122a:	6b92      	ldr	r2, [r2, #56]	; 0x38
 800122c:	0912      	lsrs	r2, r2, #4
 800122e:	0452      	lsls	r2, r2, #17
 8001230:	430a      	orrs	r2, r1
 8001232:	4941      	ldr	r1, [pc, #260]	; (8001338 <HAL_RCC_OscConfig+0x7c4>)
 8001234:	4313      	orrs	r3, r2
 8001236:	60cb      	str	r3, [r1, #12]
                                 RCC_OscInitStruct->PLL.PLLQ,
                                 RCC_OscInitStruct->PLL.PLLR);
#endif

            /* Enable the main PLL. */
            __HAL_RCC_PLL_ENABLE();
 8001238:	4b3f      	ldr	r3, [pc, #252]	; (8001338 <HAL_RCC_OscConfig+0x7c4>)
 800123a:	681b      	ldr	r3, [r3, #0]
 800123c:	4a3e      	ldr	r2, [pc, #248]	; (8001338 <HAL_RCC_OscConfig+0x7c4>)
 800123e:	f043 7380 	orr.w	r3, r3, #16777216	; 0x1000000
 8001242:	6013      	str	r3, [r2, #0]

            /* Enable PLL System Clock output. */
            __HAL_RCC_PLLCLKOUT_ENABLE(RCC_PLL_SYSCLK);
 8001244:	4b3c      	ldr	r3, [pc, #240]	; (8001338 <HAL_RCC_OscConfig+0x7c4>)
 8001246:	68db      	ldr	r3, [r3, #12]
 8001248:	4a3b      	ldr	r2, [pc, #236]	; (8001338 <HAL_RCC_OscConfig+0x7c4>)
 800124a:	f043 7380 	orr.w	r3, r3, #16777216	; 0x1000000
 800124e:	60d3      	str	r3, [r2, #12]

            /* Get Start Tick*/
            tickstart = HAL_GetTick();
 8001250:	f7ff f93a 	bl	80004c8 <HAL_GetTick>
 8001254:	6138      	str	r0, [r7, #16]

            /* Wait till PLL is ready */
            while(READ_BIT(RCC->CR, RCC_CR_PLLRDY) == 0U)
 8001256:	e008      	b.n	800126a <HAL_RCC_OscConfig+0x6f6>
            {
              if((HAL_GetTick() - tickstart) > PLL_TIMEOUT_VALUE)
 8001258:	f7ff f936 	bl	80004c8 <HAL_GetTick>
 800125c:	4602      	mov	r2, r0
 800125e:	693b      	ldr	r3, [r7, #16]
 8001260:	1ad3      	subs	r3, r2, r3
 8001262:	2b02      	cmp	r3, #2
 8001264:	d901      	bls.n	800126a <HAL_RCC_OscConfig+0x6f6>
              {
                return HAL_TIMEOUT;
 8001266:	2303      	movs	r3, #3
 8001268:	e062      	b.n	8001330 <HAL_RCC_OscConfig+0x7bc>
            while(READ_BIT(RCC->CR, RCC_CR_PLLRDY) == 0U)
 800126a:	4b33      	ldr	r3, [pc, #204]	; (8001338 <HAL_RCC_OscConfig+0x7c4>)
 800126c:	681b      	ldr	r3, [r3, #0]
 800126e:	f003 7300 	and.w	r3, r3, #33554432	; 0x2000000
 8001272:	2b00      	cmp	r3, #0
 8001274:	d0f0      	beq.n	8001258 <HAL_RCC_OscConfig+0x6e4>
        if(sysclk_source != RCC_CFGR_SWS_PLL)
 8001276:	e05a      	b.n	800132e <HAL_RCC_OscConfig+0x7ba>
          }
        }
        else
        {
          /* PLL is already used as System core clock */
          return HAL_ERROR;
 8001278:	2301      	movs	r3, #1
 800127a:	e059      	b.n	8001330 <HAL_RCC_OscConfig+0x7bc>
      }
      else
      {
        /* PLL configuration is unchanged */
        /* Re-enable PLL if it was disabled (ie. low power mode) */
        if(READ_BIT(RCC->CR, RCC_CR_PLLRDY) == 0U)
 800127c:	4b2e      	ldr	r3, [pc, #184]	; (8001338 <HAL_RCC_OscConfig+0x7c4>)
 800127e:	681b      	ldr	r3, [r3, #0]
 8001280:	f003 7300 	and.w	r3, r3, #33554432	; 0x2000000
 8001284:	2b00      	cmp	r3, #0
 8001286:	d152      	bne.n	800132e <HAL_RCC_OscConfig+0x7ba>
        {
          /* Enable the main PLL. */
          __HAL_RCC_PLL_ENABLE();
 8001288:	4b2b      	ldr	r3, [pc, #172]	; (8001338 <HAL_RCC_OscConfig+0x7c4>)
 800128a:	681b      	ldr	r3, [r3, #0]
 800128c:	4a2a      	ldr	r2, [pc, #168]	; (8001338 <HAL_RCC_OscConfig+0x7c4>)
 800128e:	f043 7380 	orr.w	r3, r3, #16777216	; 0x1000000
 8001292:	6013      	str	r3, [r2, #0]

          /* Enable PLL System Clock output. */
          __HAL_RCC_PLLCLKOUT_ENABLE(RCC_PLL_SYSCLK);
 8001294:	4b28      	ldr	r3, [pc, #160]	; (8001338 <HAL_RCC_OscConfig+0x7c4>)
 8001296:	68db      	ldr	r3, [r3, #12]
 8001298:	4a27      	ldr	r2, [pc, #156]	; (8001338 <HAL_RCC_OscConfig+0x7c4>)
 800129a:	f043 7380 	orr.w	r3, r3, #16777216	; 0x1000000
 800129e:	60d3      	str	r3, [r2, #12]

          /* Get Start Tick*/
          tickstart = HAL_GetTick();
 80012a0:	f7ff f912 	bl	80004c8 <HAL_GetTick>
 80012a4:	6138      	str	r0, [r7, #16]

          /* Wait till PLL is ready */
          while(READ_BIT(RCC->CR, RCC_CR_PLLRDY) == 0U)
 80012a6:	e008      	b.n	80012ba <HAL_RCC_OscConfig+0x746>
          {
            if((HAL_GetTick() - tickstart) > PLL_TIMEOUT_VALUE)
 80012a8:	f7ff f90e 	bl	80004c8 <HAL_GetTick>
 80012ac:	4602      	mov	r2, r0
 80012ae:	693b      	ldr	r3, [r7, #16]
 80012b0:	1ad3      	subs	r3, r2, r3
 80012b2:	2b02      	cmp	r3, #2
 80012b4:	d901      	bls.n	80012ba <HAL_RCC_OscConfig+0x746>
            {
              return HAL_TIMEOUT;
 80012b6:	2303      	movs	r3, #3
 80012b8:	e03a      	b.n	8001330 <HAL_RCC_OscConfig+0x7bc>
          while(READ_BIT(RCC->CR, RCC_CR_PLLRDY) == 0U)
 80012ba:	4b1f      	ldr	r3, [pc, #124]	; (8001338 <HAL_RCC_OscConfig+0x7c4>)
 80012bc:	681b      	ldr	r3, [r3, #0]
 80012be:	f003 7300 	and.w	r3, r3, #33554432	; 0x2000000
 80012c2:	2b00      	cmp	r3, #0
 80012c4:	d0f0      	beq.n	80012a8 <HAL_RCC_OscConfig+0x734>
 80012c6:	e032      	b.n	800132e <HAL_RCC_OscConfig+0x7ba>
      }
    }
    else
    {
      /* Check that PLL is not used as system clock or not */
      if(sysclk_source != RCC_CFGR_SWS_PLL)
 80012c8:	69bb      	ldr	r3, [r7, #24]
 80012ca:	2b0c      	cmp	r3, #12
 80012cc:	d02d      	beq.n	800132a <HAL_RCC_OscConfig+0x7b6>
      {
        /* Disable the main PLL. */
        __HAL_RCC_PLL_DISABLE();
 80012ce:	4b1a      	ldr	r3, [pc, #104]	; (8001338 <HAL_RCC_OscConfig+0x7c4>)
 80012d0:	681b      	ldr	r3, [r3, #0]
 80012d2:	4a19      	ldr	r2, [pc, #100]	; (8001338 <HAL_RCC_OscConfig+0x7c4>)
 80012d4:	f023 7380 	bic.w	r3, r3, #16777216	; 0x1000000
 80012d8:	6013      	str	r3, [r2, #0]

        /* Disable all PLL outputs to save power if no PLLs on */
#if defined(RCC_PLLSAI1_SUPPORT) && defined(RCC_CR_PLLSAI2RDY)
        if(READ_BIT(RCC->CR, (RCC_CR_PLLSAI1RDY | RCC_CR_PLLSAI2RDY)) == 0U)
 80012da:	4b17      	ldr	r3, [pc, #92]	; (8001338 <HAL_RCC_OscConfig+0x7c4>)
 80012dc:	681b      	ldr	r3, [r3, #0]
 80012de:	f003 5320 	and.w	r3, r3, #671088640	; 0x28000000
 80012e2:	2b00      	cmp	r3, #0
 80012e4:	d105      	bne.n	80012f2 <HAL_RCC_OscConfig+0x77e>
        {
          MODIFY_REG(RCC->PLLCFGR, RCC_PLLCFGR_PLLSRC, RCC_PLLSOURCE_NONE);
 80012e6:	4b14      	ldr	r3, [pc, #80]	; (8001338 <HAL_RCC_OscConfig+0x7c4>)
 80012e8:	68db      	ldr	r3, [r3, #12]
 80012ea:	4a13      	ldr	r2, [pc, #76]	; (8001338 <HAL_RCC_OscConfig+0x7c4>)
 80012ec:	f023 0303 	bic.w	r3, r3, #3
 80012f0:	60d3      	str	r3, [r2, #12]
#else
        MODIFY_REG(RCC->PLLCFGR, RCC_PLLCFGR_PLLSRC, RCC_PLLSOURCE_NONE);
#endif /* RCC_PLLSAI1_SUPPORT && RCC_CR_PLLSAI2RDY */

#if defined(RCC_PLLSAI2_SUPPORT)
        __HAL_RCC_PLLCLKOUT_DISABLE(RCC_PLL_SYSCLK | RCC_PLL_48M1CLK | RCC_PLL_SAI3CLK);
 80012f2:	4b11      	ldr	r3, [pc, #68]	; (8001338 <HAL_RCC_OscConfig+0x7c4>)
 80012f4:	68db      	ldr	r3, [r3, #12]
 80012f6:	4a10      	ldr	r2, [pc, #64]	; (8001338 <HAL_RCC_OscConfig+0x7c4>)
 80012f8:	f023 7388 	bic.w	r3, r3, #17825792	; 0x1100000
 80012fc:	f423 3380 	bic.w	r3, r3, #65536	; 0x10000
 8001300:	60d3      	str	r3, [r2, #12]
#else
        __HAL_RCC_PLLCLKOUT_DISABLE(RCC_PLL_SYSCLK | RCC_PLL_48M1CLK);
#endif /* RCC_PLLSAI2_SUPPORT */

        /* Get Start Tick*/
        tickstart = HAL_GetTick();
 8001302:	f7ff f8e1 	bl	80004c8 <HAL_GetTick>
 8001306:	6138      	str	r0, [r7, #16]

        /* Wait till PLL is disabled */
        while(READ_BIT(RCC->CR, RCC_CR_PLLRDY) != 0U)
 8001308:	e008      	b.n	800131c <HAL_RCC_OscConfig+0x7a8>
        {
          if((HAL_GetTick() - tickstart) > PLL_TIMEOUT_VALUE)
 800130a:	f7ff f8dd 	bl	80004c8 <HAL_GetTick>
 800130e:	4602      	mov	r2, r0
 8001310:	693b      	ldr	r3, [r7, #16]
 8001312:	1ad3      	subs	r3, r2, r3
 8001314:	2b02      	cmp	r3, #2
 8001316:	d901      	bls.n	800131c <HAL_RCC_OscConfig+0x7a8>
          {
            return HAL_TIMEOUT;
 8001318:	2303      	movs	r3, #3
 800131a:	e009      	b.n	8001330 <HAL_RCC_OscConfig+0x7bc>
        while(READ_BIT(RCC->CR, RCC_CR_PLLRDY) != 0U)
 800131c:	4b06      	ldr	r3, [pc, #24]	; (8001338 <HAL_RCC_OscConfig+0x7c4>)
 800131e:	681b      	ldr	r3, [r3, #0]
 8001320:	f003 7300 	and.w	r3, r3, #33554432	; 0x2000000
 8001324:	2b00      	cmp	r3, #0
 8001326:	d1f0      	bne.n	800130a <HAL_RCC_OscConfig+0x796>
 8001328:	e001      	b.n	800132e <HAL_RCC_OscConfig+0x7ba>
        }
      }
      else
      {
        /* PLL is already used as System core clock */
        return HAL_ERROR;
 800132a:	2301      	movs	r3, #1
 800132c:	e000      	b.n	8001330 <HAL_RCC_OscConfig+0x7bc>
      }
    }
  }
  return HAL_OK;
 800132e:	2300      	movs	r3, #0
}
 8001330:	4618      	mov	r0, r3
 8001332:	3720      	adds	r7, #32
 8001334:	46bd      	mov	sp, r7
 8001336:	bd80      	pop	{r7, pc}
 8001338:	40021000 	.word	0x40021000
 800133c:	f99d808c 	.word	0xf99d808c

08001340 <HAL_RCC_ClockConfig>:
  *         HPRE[3:0] bits to ensure that HCLK not exceed the maximum allowed frequency
  *         (for more details refer to section above "Initialization/de-initialization functions")
  * @retval None
  */
HAL_StatusTypeDef HAL_RCC_ClockConfig(RCC_ClkInitTypeDef  *RCC_ClkInitStruct, uint32_t FLatency)
{
 8001340:	b580      	push	{r7, lr}
 8001342:	b084      	sub	sp, #16
 8001344:	af00      	add	r7, sp, #0
 8001346:	6078      	str	r0, [r7, #4]
 8001348:	6039      	str	r1, [r7, #0]
  uint32_t hpre = RCC_SYSCLK_DIV1;
#endif
  HAL_StatusTypeDef status;

  /* Check Null pointer */
  if(RCC_ClkInitStruct == NULL)
 800134a:	687b      	ldr	r3, [r7, #4]
 800134c:	2b00      	cmp	r3, #0
 800134e:	d101      	bne.n	8001354 <HAL_RCC_ClockConfig+0x14>
  {
    return HAL_ERROR;
 8001350:	2301      	movs	r3, #1
 8001352:	e0c8      	b.n	80014e6 <HAL_RCC_ClockConfig+0x1a6>
  /* To correctly read data from FLASH memory, the number of wait states (LATENCY)
    must be correctly programmed according to the frequency of the CPU clock
    (HCLK) and the supply voltage of the device. */

  /* Increasing the number of wait states because of higher CPU frequency */
  if(FLatency > __HAL_FLASH_GET_LATENCY())
 8001354:	4b66      	ldr	r3, [pc, #408]	; (80014f0 <HAL_RCC_ClockConfig+0x1b0>)
 8001356:	681b      	ldr	r3, [r3, #0]
 8001358:	f003 0307 	and.w	r3, r3, #7
 800135c:	683a      	ldr	r2, [r7, #0]
 800135e:	429a      	cmp	r2, r3
 8001360:	d910      	bls.n	8001384 <HAL_RCC_ClockConfig+0x44>
  {
    /* Program the new number of wait states to the LATENCY bits in the FLASH_ACR register */
    __HAL_FLASH_SET_LATENCY(FLatency);
 8001362:	4b63      	ldr	r3, [pc, #396]	; (80014f0 <HAL_RCC_ClockConfig+0x1b0>)
 8001364:	681b      	ldr	r3, [r3, #0]
 8001366:	f023 0207 	bic.w	r2, r3, #7
 800136a:	4961      	ldr	r1, [pc, #388]	; (80014f0 <HAL_RCC_ClockConfig+0x1b0>)
 800136c:	683b      	ldr	r3, [r7, #0]
 800136e:	4313      	orrs	r3, r2
 8001370:	600b      	str	r3, [r1, #0]

    /* Check that the new number of wait states is taken into account to access the Flash
    memory by reading the FLASH_ACR register */
    if(__HAL_FLASH_GET_LATENCY() != FLatency)
 8001372:	4b5f      	ldr	r3, [pc, #380]	; (80014f0 <HAL_RCC_ClockConfig+0x1b0>)
 8001374:	681b      	ldr	r3, [r3, #0]
 8001376:	f003 0307 	and.w	r3, r3, #7
 800137a:	683a      	ldr	r2, [r7, #0]
 800137c:	429a      	cmp	r2, r3
 800137e:	d001      	beq.n	8001384 <HAL_RCC_ClockConfig+0x44>
    {
      return HAL_ERROR;
 8001380:	2301      	movs	r3, #1
 8001382:	e0b0      	b.n	80014e6 <HAL_RCC_ClockConfig+0x1a6>
    }
  }

  /*------------------------- SYSCLK Configuration ---------------------------*/
  if(((RCC_ClkInitStruct->ClockType) & RCC_CLOCKTYPE_SYSCLK) == RCC_CLOCKTYPE_SYSCLK)
 8001384:	687b      	ldr	r3, [r7, #4]
 8001386:	681b      	ldr	r3, [r3, #0]
 8001388:	f003 0301 	and.w	r3, r3, #1
 800138c:	2b00      	cmp	r3, #0
 800138e:	d04c      	beq.n	800142a <HAL_RCC_ClockConfig+0xea>
  {
    assert_param(IS_RCC_SYSCLKSOURCE(RCC_ClkInitStruct->SYSCLKSource));

    /* PLL is selected as System Clock Source */
    if(RCC_ClkInitStruct->SYSCLKSource == RCC_SYSCLKSOURCE_PLLCLK)
 8001390:	687b      	ldr	r3, [r7, #4]
 8001392:	685b      	ldr	r3, [r3, #4]
 8001394:	2b03      	cmp	r3, #3
 8001396:	d107      	bne.n	80013a8 <HAL_RCC_ClockConfig+0x68>
    {
      /* Check the PLL ready flag */
      if(READ_BIT(RCC->CR, RCC_CR_PLLRDY) == 0U)
 8001398:	4b56      	ldr	r3, [pc, #344]	; (80014f4 <HAL_RCC_ClockConfig+0x1b4>)
 800139a:	681b      	ldr	r3, [r3, #0]
 800139c:	f003 7300 	and.w	r3, r3, #33554432	; 0x2000000
 80013a0:	2b00      	cmp	r3, #0
 80013a2:	d121      	bne.n	80013e8 <HAL_RCC_ClockConfig+0xa8>
      {
        return HAL_ERROR;
 80013a4:	2301      	movs	r3, #1
 80013a6:	e09e      	b.n	80014e6 <HAL_RCC_ClockConfig+0x1a6>
#endif
    }
    else
    {
      /* HSE is selected as System Clock Source */
      if(RCC_ClkInitStruct->SYSCLKSource == RCC_SYSCLKSOURCE_HSE)
 80013a8:	687b      	ldr	r3, [r7, #4]
 80013aa:	685b      	ldr	r3, [r3, #4]
 80013ac:	2b02      	cmp	r3, #2
 80013ae:	d107      	bne.n	80013c0 <HAL_RCC_ClockConfig+0x80>
      {
        /* Check the HSE ready flag */
        if(READ_BIT(RCC->CR, RCC_CR_HSERDY) == 0U)
 80013b0:	4b50      	ldr	r3, [pc, #320]	; (80014f4 <HAL_RCC_ClockConfig+0x1b4>)
 80013b2:	681b      	ldr	r3, [r3, #0]
 80013b4:	f403 3300 	and.w	r3, r3, #131072	; 0x20000
 80013b8:	2b00      	cmp	r3, #0
 80013ba:	d115      	bne.n	80013e8 <HAL_RCC_ClockConfig+0xa8>
        {
          return HAL_ERROR;
 80013bc:	2301      	movs	r3, #1
 80013be:	e092      	b.n	80014e6 <HAL_RCC_ClockConfig+0x1a6>
        }
      }
      /* MSI is selected as System Clock Source */
      else if(RCC_ClkInitStruct->SYSCLKSource == RCC_SYSCLKSOURCE_MSI)
 80013c0:	687b      	ldr	r3, [r7, #4]
 80013c2:	685b      	ldr	r3, [r3, #4]
 80013c4:	2b00      	cmp	r3, #0
 80013c6:	d107      	bne.n	80013d8 <HAL_RCC_ClockConfig+0x98>
      {
        /* Check the MSI ready flag */
        if(READ_BIT(RCC->CR, RCC_CR_MSIRDY) == 0U)
 80013c8:	4b4a      	ldr	r3, [pc, #296]	; (80014f4 <HAL_RCC_ClockConfig+0x1b4>)
 80013ca:	681b      	ldr	r3, [r3, #0]
 80013cc:	f003 0302 	and.w	r3, r3, #2
 80013d0:	2b00      	cmp	r3, #0
 80013d2:	d109      	bne.n	80013e8 <HAL_RCC_ClockConfig+0xa8>
        {
          return HAL_ERROR;
 80013d4:	2301      	movs	r3, #1
 80013d6:	e086      	b.n	80014e6 <HAL_RCC_ClockConfig+0x1a6>
      }
      /* HSI is selected as System Clock Source */
      else
      {
        /* Check the HSI ready flag */
        if(READ_BIT(RCC->CR, RCC_CR_HSIRDY) == 0U)
 80013d8:	4b46      	ldr	r3, [pc, #280]	; (80014f4 <HAL_RCC_ClockConfig+0x1b4>)
 80013da:	681b      	ldr	r3, [r3, #0]
 80013dc:	f403 6380 	and.w	r3, r3, #1024	; 0x400
 80013e0:	2b00      	cmp	r3, #0
 80013e2:	d101      	bne.n	80013e8 <HAL_RCC_ClockConfig+0xa8>
        {
          return HAL_ERROR;
 80013e4:	2301      	movs	r3, #1
 80013e6:	e07e      	b.n	80014e6 <HAL_RCC_ClockConfig+0x1a6>
      }
#endif

    }

    MODIFY_REG(RCC->CFGR, RCC_CFGR_SW, RCC_ClkInitStruct->SYSCLKSource);
 80013e8:	4b42      	ldr	r3, [pc, #264]	; (80014f4 <HAL_RCC_ClockConfig+0x1b4>)
 80013ea:	689b      	ldr	r3, [r3, #8]
 80013ec:	f023 0203 	bic.w	r2, r3, #3
 80013f0:	687b      	ldr	r3, [r7, #4]
 80013f2:	685b      	ldr	r3, [r3, #4]
 80013f4:	493f      	ldr	r1, [pc, #252]	; (80014f4 <HAL_RCC_ClockConfig+0x1b4>)
 80013f6:	4313      	orrs	r3, r2
 80013f8:	608b      	str	r3, [r1, #8]

    /* Get Start Tick*/
    tickstart = HAL_GetTick();
 80013fa:	f7ff f865 	bl	80004c8 <HAL_GetTick>
 80013fe:	60f8      	str	r0, [r7, #12]

    while(__HAL_RCC_GET_SYSCLK_SOURCE() != (RCC_ClkInitStruct->SYSCLKSource << RCC_CFGR_SWS_Pos))
 8001400:	e00a      	b.n	8001418 <HAL_RCC_ClockConfig+0xd8>
    {
      if((HAL_GetTick() - tickstart) > CLOCKSWITCH_TIMEOUT_VALUE)
 8001402:	f7ff f861 	bl	80004c8 <HAL_GetTick>
 8001406:	4602      	mov	r2, r0
 8001408:	68fb      	ldr	r3, [r7, #12]
 800140a:	1ad3      	subs	r3, r2, r3
 800140c:	f241 3288 	movw	r2, #5000	; 0x1388
 8001410:	4293      	cmp	r3, r2
 8001412:	d901      	bls.n	8001418 <HAL_RCC_ClockConfig+0xd8>
      {
        return HAL_TIMEOUT;
 8001414:	2303      	movs	r3, #3
 8001416:	e066      	b.n	80014e6 <HAL_RCC_ClockConfig+0x1a6>
    while(__HAL_RCC_GET_SYSCLK_SOURCE() != (RCC_ClkInitStruct->SYSCLKSource << RCC_CFGR_SWS_Pos))
 8001418:	4b36      	ldr	r3, [pc, #216]	; (80014f4 <HAL_RCC_ClockConfig+0x1b4>)
 800141a:	689b      	ldr	r3, [r3, #8]
 800141c:	f003 020c 	and.w	r2, r3, #12
 8001420:	687b      	ldr	r3, [r7, #4]
 8001422:	685b      	ldr	r3, [r3, #4]
 8001424:	009b      	lsls	r3, r3, #2
 8001426:	429a      	cmp	r2, r3
 8001428:	d1eb      	bne.n	8001402 <HAL_RCC_ClockConfig+0xc2>
      }
    }
  }

  /*-------------------------- HCLK Configuration --------------------------*/
  if(((RCC_ClkInitStruct->ClockType) & RCC_CLOCKTYPE_HCLK) == RCC_CLOCKTYPE_HCLK)
 800142a:	687b      	ldr	r3, [r7, #4]
 800142c:	681b      	ldr	r3, [r3, #0]
 800142e:	f003 0302 	and.w	r3, r3, #2
 8001432:	2b00      	cmp	r3, #0
 8001434:	d008      	beq.n	8001448 <HAL_RCC_ClockConfig+0x108>
  {
    assert_param(IS_RCC_HCLK(RCC_ClkInitStruct->AHBCLKDivider));
    MODIFY_REG(RCC->CFGR, RCC_CFGR_HPRE, RCC_ClkInitStruct->AHBCLKDivider);
 8001436:	4b2f      	ldr	r3, [pc, #188]	; (80014f4 <HAL_RCC_ClockConfig+0x1b4>)
 8001438:	689b      	ldr	r3, [r3, #8]
 800143a:	f023 02f0 	bic.w	r2, r3, #240	; 0xf0
 800143e:	687b      	ldr	r3, [r7, #4]
 8001440:	689b      	ldr	r3, [r3, #8]
 8001442:	492c      	ldr	r1, [pc, #176]	; (80014f4 <HAL_RCC_ClockConfig+0x1b4>)
 8001444:	4313      	orrs	r3, r2
 8001446:	608b      	str	r3, [r1, #8]
    }
  }
#endif

  /* Decreasing the number of wait states because of lower CPU frequency */
  if(FLatency < __HAL_FLASH_GET_LATENCY())
 8001448:	4b29      	ldr	r3, [pc, #164]	; (80014f0 <HAL_RCC_ClockConfig+0x1b0>)
 800144a:	681b      	ldr	r3, [r3, #0]
 800144c:	f003 0307 	and.w	r3, r3, #7
 8001450:	683a      	ldr	r2, [r7, #0]
 8001452:	429a      	cmp	r2, r3
 8001454:	d210      	bcs.n	8001478 <HAL_RCC_ClockConfig+0x138>
  {
    /* Program the new number of wait states to the LATENCY bits in the FLASH_ACR register */
    __HAL_FLASH_SET_LATENCY(FLatency);
 8001456:	4b26      	ldr	r3, [pc, #152]	; (80014f0 <HAL_RCC_ClockConfig+0x1b0>)
 8001458:	681b      	ldr	r3, [r3, #0]
 800145a:	f023 0207 	bic.w	r2, r3, #7
 800145e:	4924      	ldr	r1, [pc, #144]	; (80014f0 <HAL_RCC_ClockConfig+0x1b0>)
 8001460:	683b      	ldr	r3, [r7, #0]
 8001462:	4313      	orrs	r3, r2
 8001464:	600b      	str	r3, [r1, #0]

    /* Check that the new number of wait states is taken into account to access the Flash
    memory by reading the FLASH_ACR register */
    if(__HAL_FLASH_GET_LATENCY() != FLatency)
 8001466:	4b22      	ldr	r3, [pc, #136]	; (80014f0 <HAL_RCC_ClockConfig+0x1b0>)
 8001468:	681b      	ldr	r3, [r3, #0]
 800146a:	f003 0307 	and.w	r3, r3, #7
 800146e:	683a      	ldr	r2, [r7, #0]
 8001470:	429a      	cmp	r2, r3
 8001472:	d001      	beq.n	8001478 <HAL_RCC_ClockConfig+0x138>
    {
      return HAL_ERROR;
 8001474:	2301      	movs	r3, #1
 8001476:	e036      	b.n	80014e6 <HAL_RCC_ClockConfig+0x1a6>
    }
  }

  /*-------------------------- PCLK1 Configuration ---------------------------*/
  if(((RCC_ClkInitStruct->ClockType) & RCC_CLOCKTYPE_PCLK1) == RCC_CLOCKTYPE_PCLK1)
 8001478:	687b      	ldr	r3, [r7, #4]
 800147a:	681b      	ldr	r3, [r3, #0]
 800147c:	f003 0304 	and.w	r3, r3, #4
 8001480:	2b00      	cmp	r3, #0
 8001482:	d008      	beq.n	8001496 <HAL_RCC_ClockConfig+0x156>
  {
    assert_param(IS_RCC_PCLK(RCC_ClkInitStruct->APB1CLKDivider));
    MODIFY_REG(RCC->CFGR, RCC_CFGR_PPRE1, RCC_ClkInitStruct->APB1CLKDivider);
 8001484:	4b1b      	ldr	r3, [pc, #108]	; (80014f4 <HAL_RCC_ClockConfig+0x1b4>)
 8001486:	689b      	ldr	r3, [r3, #8]
 8001488:	f423 62e0 	bic.w	r2, r3, #1792	; 0x700
 800148c:	687b      	ldr	r3, [r7, #4]
 800148e:	68db      	ldr	r3, [r3, #12]
 8001490:	4918      	ldr	r1, [pc, #96]	; (80014f4 <HAL_RCC_ClockConfig+0x1b4>)
 8001492:	4313      	orrs	r3, r2
 8001494:	608b      	str	r3, [r1, #8]
  }

  /*-------------------------- PCLK2 Configuration ---------------------------*/
  if(((RCC_ClkInitStruct->ClockType) & RCC_CLOCKTYPE_PCLK2) == RCC_CLOCKTYPE_PCLK2)
 8001496:	687b      	ldr	r3, [r7, #4]
 8001498:	681b      	ldr	r3, [r3, #0]
 800149a:	f003 0308 	and.w	r3, r3, #8
 800149e:	2b00      	cmp	r3, #0
 80014a0:	d009      	beq.n	80014b6 <HAL_RCC_ClockConfig+0x176>
  {
    assert_param(IS_RCC_PCLK(RCC_ClkInitStruct->APB2CLKDivider));
    MODIFY_REG(RCC->CFGR, RCC_CFGR_PPRE2, ((RCC_ClkInitStruct->APB2CLKDivider) << 3U));
 80014a2:	4b14      	ldr	r3, [pc, #80]	; (80014f4 <HAL_RCC_ClockConfig+0x1b4>)
 80014a4:	689b      	ldr	r3, [r3, #8]
 80014a6:	f423 5260 	bic.w	r2, r3, #14336	; 0x3800
 80014aa:	687b      	ldr	r3, [r7, #4]
 80014ac:	691b      	ldr	r3, [r3, #16]
 80014ae:	00db      	lsls	r3, r3, #3
 80014b0:	4910      	ldr	r1, [pc, #64]	; (80014f4 <HAL_RCC_ClockConfig+0x1b4>)
 80014b2:	4313      	orrs	r3, r2
 80014b4:	608b      	str	r3, [r1, #8]
  }

  /* Update the SystemCoreClock global variable */
  SystemCoreClock = HAL_RCC_GetSysClockFreq() >> (AHBPrescTable[READ_BIT(RCC->CFGR, RCC_CFGR_HPRE) >> RCC_CFGR_HPRE_Pos] & 0x1FU);
 80014b6:	f000 f825 	bl	8001504 <HAL_RCC_GetSysClockFreq>
 80014ba:	4602      	mov	r2, r0
 80014bc:	4b0d      	ldr	r3, [pc, #52]	; (80014f4 <HAL_RCC_ClockConfig+0x1b4>)
 80014be:	689b      	ldr	r3, [r3, #8]
 80014c0:	091b      	lsrs	r3, r3, #4
 80014c2:	f003 030f 	and.w	r3, r3, #15
 80014c6:	490c      	ldr	r1, [pc, #48]	; (80014f8 <HAL_RCC_ClockConfig+0x1b8>)
 80014c8:	5ccb      	ldrb	r3, [r1, r3]
 80014ca:	f003 031f 	and.w	r3, r3, #31
 80014ce:	fa22 f303 	lsr.w	r3, r2, r3
 80014d2:	4a0a      	ldr	r2, [pc, #40]	; (80014fc <HAL_RCC_ClockConfig+0x1bc>)
 80014d4:	6013      	str	r3, [r2, #0]

  /* Configure the source of time base considering new system clocks settings*/
  status = HAL_InitTick(uwTickPrio);
 80014d6:	4b0a      	ldr	r3, [pc, #40]	; (8001500 <HAL_RCC_ClockConfig+0x1c0>)
 80014d8:	681b      	ldr	r3, [r3, #0]
 80014da:	4618      	mov	r0, r3
 80014dc:	f7fe ffa4 	bl	8000428 <HAL_InitTick>
 80014e0:	4603      	mov	r3, r0
 80014e2:	72fb      	strb	r3, [r7, #11]

  return status;
 80014e4:	7afb      	ldrb	r3, [r7, #11]
}
 80014e6:	4618      	mov	r0, r3
 80014e8:	3710      	adds	r7, #16
 80014ea:	46bd      	mov	sp, r7
 80014ec:	bd80      	pop	{r7, pc}
 80014ee:	bf00      	nop
 80014f0:	40022000 	.word	0x40022000
 80014f4:	40021000 	.word	0x40021000
 80014f8:	0800174c 	.word	0x0800174c
 80014fc:	20000000 	.word	0x20000000
 8001500:	20000004 	.word	0x20000004

08001504 <HAL_RCC_GetSysClockFreq>:
  *
  *
  * @retval SYSCLK frequency
  */
uint32_t HAL_RCC_GetSysClockFreq(void)
{
 8001504:	b480      	push	{r7}
 8001506:	b089      	sub	sp, #36	; 0x24
 8001508:	af00      	add	r7, sp, #0
  uint32_t msirange = 0U, sysclockfreq = 0U;
 800150a:	2300      	movs	r3, #0
 800150c:	61fb      	str	r3, [r7, #28]
 800150e:	2300      	movs	r3, #0
 8001510:	61bb      	str	r3, [r7, #24]
  uint32_t pllvco, pllsource, pllr, pllm;    /* no init needed */
  uint32_t sysclk_source, pll_oscsource;

  sysclk_source = __HAL_RCC_GET_SYSCLK_SOURCE();
 8001512:	4b3e      	ldr	r3, [pc, #248]	; (800160c <HAL_RCC_GetSysClockFreq+0x108>)
 8001514:	689b      	ldr	r3, [r3, #8]
 8001516:	f003 030c 	and.w	r3, r3, #12
 800151a:	613b      	str	r3, [r7, #16]
  pll_oscsource = __HAL_RCC_GET_PLL_OSCSOURCE();
 800151c:	4b3b      	ldr	r3, [pc, #236]	; (800160c <HAL_RCC_GetSysClockFreq+0x108>)
 800151e:	68db      	ldr	r3, [r3, #12]
 8001520:	f003 0303 	and.w	r3, r3, #3
 8001524:	60fb      	str	r3, [r7, #12]

  if((sysclk_source == RCC_CFGR_SWS_MSI) ||
 8001526:	693b      	ldr	r3, [r7, #16]
 8001528:	2b00      	cmp	r3, #0
 800152a:	d005      	beq.n	8001538 <HAL_RCC_GetSysClockFreq+0x34>
 800152c:	693b      	ldr	r3, [r7, #16]
 800152e:	2b0c      	cmp	r3, #12
 8001530:	d121      	bne.n	8001576 <HAL_RCC_GetSysClockFreq+0x72>
     ((sysclk_source == RCC_CFGR_SWS_PLL) && (pll_oscsource == RCC_PLLSOURCE_MSI)))
 8001532:	68fb      	ldr	r3, [r7, #12]
 8001534:	2b01      	cmp	r3, #1
 8001536:	d11e      	bne.n	8001576 <HAL_RCC_GetSysClockFreq+0x72>
  {
    /* MSI or PLL with MSI source used as system clock source */

    /* Get SYSCLK source */
    if(READ_BIT(RCC->CR, RCC_CR_MSIRGSEL) == 0U)
 8001538:	4b34      	ldr	r3, [pc, #208]	; (800160c <HAL_RCC_GetSysClockFreq+0x108>)
 800153a:	681b      	ldr	r3, [r3, #0]
 800153c:	f003 0308 	and.w	r3, r3, #8
 8001540:	2b00      	cmp	r3, #0
 8001542:	d107      	bne.n	8001554 <HAL_RCC_GetSysClockFreq+0x50>
    { /* MSISRANGE from RCC_CSR applies */
      msirange = READ_BIT(RCC->CSR, RCC_CSR_MSISRANGE) >> RCC_CSR_MSISRANGE_Pos;
 8001544:	4b31      	ldr	r3, [pc, #196]	; (800160c <HAL_RCC_GetSysClockFreq+0x108>)
 8001546:	f8d3 3094 	ldr.w	r3, [r3, #148]	; 0x94
 800154a:	0a1b      	lsrs	r3, r3, #8
 800154c:	f003 030f 	and.w	r3, r3, #15
 8001550:	61fb      	str	r3, [r7, #28]
 8001552:	e005      	b.n	8001560 <HAL_RCC_GetSysClockFreq+0x5c>
    }
    else
    { /* MSIRANGE from RCC_CR applies */
      msirange = READ_BIT(RCC->CR, RCC_CR_MSIRANGE) >> RCC_CR_MSIRANGE_Pos;
 8001554:	4b2d      	ldr	r3, [pc, #180]	; (800160c <HAL_RCC_GetSysClockFreq+0x108>)
 8001556:	681b      	ldr	r3, [r3, #0]
 8001558:	091b      	lsrs	r3, r3, #4
 800155a:	f003 030f 	and.w	r3, r3, #15
 800155e:	61fb      	str	r3, [r7, #28]
    }
    /*MSI frequency range in HZ*/
    msirange = MSIRangeTable[msirange];
 8001560:	4a2b      	ldr	r2, [pc, #172]	; (8001610 <HAL_RCC_GetSysClockFreq+0x10c>)
 8001562:	69fb      	ldr	r3, [r7, #28]
 8001564:	f852 3023 	ldr.w	r3, [r2, r3, lsl #2]
 8001568:	61fb      	str	r3, [r7, #28]

    if(sysclk_source == RCC_CFGR_SWS_MSI)
 800156a:	693b      	ldr	r3, [r7, #16]
 800156c:	2b00      	cmp	r3, #0
 800156e:	d10d      	bne.n	800158c <HAL_RCC_GetSysClockFreq+0x88>
    {
      /* MSI used as system clock source */
      sysclockfreq = msirange;
 8001570:	69fb      	ldr	r3, [r7, #28]
 8001572:	61bb      	str	r3, [r7, #24]
    if(sysclk_source == RCC_CFGR_SWS_MSI)
 8001574:	e00a      	b.n	800158c <HAL_RCC_GetSysClockFreq+0x88>
    }
  }
  else if(sysclk_source == RCC_CFGR_SWS_HSI)
 8001576:	693b      	ldr	r3, [r7, #16]
 8001578:	2b04      	cmp	r3, #4
 800157a:	d102      	bne.n	8001582 <HAL_RCC_GetSysClockFreq+0x7e>
  {
    /* HSI used as system clock source */
    sysclockfreq = HSI_VALUE;
 800157c:	4b25      	ldr	r3, [pc, #148]	; (8001614 <HAL_RCC_GetSysClockFreq+0x110>)
 800157e:	61bb      	str	r3, [r7, #24]
 8001580:	e004      	b.n	800158c <HAL_RCC_GetSysClockFreq+0x88>
  }
  else if(sysclk_source == RCC_CFGR_SWS_HSE)
 8001582:	693b      	ldr	r3, [r7, #16]
 8001584:	2b08      	cmp	r3, #8
 8001586:	d101      	bne.n	800158c <HAL_RCC_GetSysClockFreq+0x88>
  {
    /* HSE used as system clock source */
    sysclockfreq = HSE_VALUE;
 8001588:	4b23      	ldr	r3, [pc, #140]	; (8001618 <HAL_RCC_GetSysClockFreq+0x114>)
 800158a:	61bb      	str	r3, [r7, #24]
  else
  {
    /* unexpected case: sysclockfreq at 0 */
  }

  if(sysclk_source == RCC_CFGR_SWS_PLL)
 800158c:	693b      	ldr	r3, [r7, #16]
 800158e:	2b0c      	cmp	r3, #12
 8001590:	d134      	bne.n	80015fc <HAL_RCC_GetSysClockFreq+0xf8>
    /* PLL used as system clock  source */

    /* PLL_VCO = (HSE_VALUE or HSI_VALUE or MSI_VALUE) * PLLN / PLLM
    SYSCLK = PLL_VCO / PLLR
    */
    pllsource = READ_BIT(RCC->PLLCFGR, RCC_PLLCFGR_PLLSRC);
 8001592:	4b1e      	ldr	r3, [pc, #120]	; (800160c <HAL_RCC_GetSysClockFreq+0x108>)
 8001594:	68db      	ldr	r3, [r3, #12]
 8001596:	f003 0303 	and.w	r3, r3, #3
 800159a:	60bb      	str	r3, [r7, #8]

    switch (pllsource)
 800159c:	68bb      	ldr	r3, [r7, #8]
 800159e:	2b02      	cmp	r3, #2
 80015a0:	d003      	beq.n	80015aa <HAL_RCC_GetSysClockFreq+0xa6>
 80015a2:	68bb      	ldr	r3, [r7, #8]
 80015a4:	2b03      	cmp	r3, #3
 80015a6:	d003      	beq.n	80015b0 <HAL_RCC_GetSysClockFreq+0xac>
 80015a8:	e005      	b.n	80015b6 <HAL_RCC_GetSysClockFreq+0xb2>
    {
    case RCC_PLLSOURCE_HSI:  /* HSI used as PLL clock source */
      pllvco = HSI_VALUE;
 80015aa:	4b1a      	ldr	r3, [pc, #104]	; (8001614 <HAL_RCC_GetSysClockFreq+0x110>)
 80015ac:	617b      	str	r3, [r7, #20]
      break;
 80015ae:	e005      	b.n	80015bc <HAL_RCC_GetSysClockFreq+0xb8>

    case RCC_PLLSOURCE_HSE:  /* HSE used as PLL clock source */
      pllvco = HSE_VALUE;
 80015b0:	4b19      	ldr	r3, [pc, #100]	; (8001618 <HAL_RCC_GetSysClockFreq+0x114>)
 80015b2:	617b      	str	r3, [r7, #20]
      break;
 80015b4:	e002      	b.n	80015bc <HAL_RCC_GetSysClockFreq+0xb8>

    case RCC_PLLSOURCE_MSI:  /* MSI used as PLL clock source */
    default:
      pllvco = msirange;
 80015b6:	69fb      	ldr	r3, [r7, #28]
 80015b8:	617b      	str	r3, [r7, #20]
      break;
 80015ba:	bf00      	nop
    }
    pllm = (READ_BIT(RCC->PLLCFGR, RCC_PLLCFGR_PLLM) >> RCC_PLLCFGR_PLLM_Pos) + 1U ;
 80015bc:	4b13      	ldr	r3, [pc, #76]	; (800160c <HAL_RCC_GetSysClockFreq+0x108>)
 80015be:	68db      	ldr	r3, [r3, #12]
 80015c0:	091b      	lsrs	r3, r3, #4
 80015c2:	f003 0307 	and.w	r3, r3, #7
 80015c6:	3301      	adds	r3, #1
 80015c8:	607b      	str	r3, [r7, #4]
    pllvco = (pllvco * (READ_BIT(RCC->PLLCFGR, RCC_PLLCFGR_PLLN) >> RCC_PLLCFGR_PLLN_Pos)) / pllm;
 80015ca:	4b10      	ldr	r3, [pc, #64]	; (800160c <HAL_RCC_GetSysClockFreq+0x108>)
 80015cc:	68db      	ldr	r3, [r3, #12]
 80015ce:	0a1b      	lsrs	r3, r3, #8
 80015d0:	f003 037f 	and.w	r3, r3, #127	; 0x7f
 80015d4:	697a      	ldr	r2, [r7, #20]
 80015d6:	fb02 f203 	mul.w	r2, r2, r3
 80015da:	687b      	ldr	r3, [r7, #4]
 80015dc:	fbb2 f3f3 	udiv	r3, r2, r3
 80015e0:	617b      	str	r3, [r7, #20]
    pllr = ((READ_BIT(RCC->PLLCFGR, RCC_PLLCFGR_PLLR) >> RCC_PLLCFGR_PLLR_Pos) + 1U ) * 2U;
 80015e2:	4b0a      	ldr	r3, [pc, #40]	; (800160c <HAL_RCC_GetSysClockFreq+0x108>)
 80015e4:	68db      	ldr	r3, [r3, #12]
 80015e6:	0e5b      	lsrs	r3, r3, #25
 80015e8:	f003 0303 	and.w	r3, r3, #3
 80015ec:	3301      	adds	r3, #1
 80015ee:	005b      	lsls	r3, r3, #1
 80015f0:	603b      	str	r3, [r7, #0]
    sysclockfreq = pllvco / pllr;
 80015f2:	697a      	ldr	r2, [r7, #20]
 80015f4:	683b      	ldr	r3, [r7, #0]
 80015f6:	fbb2 f3f3 	udiv	r3, r2, r3
 80015fa:	61bb      	str	r3, [r7, #24]
  }

  return sysclockfreq;
 80015fc:	69bb      	ldr	r3, [r7, #24]
}
 80015fe:	4618      	mov	r0, r3
 8001600:	3724      	adds	r7, #36	; 0x24
 8001602:	46bd      	mov	sp, r7
 8001604:	f85d 7b04 	ldr.w	r7, [sp], #4
 8001608:	4770      	bx	lr
 800160a:	bf00      	nop
 800160c:	40021000 	.word	0x40021000
 8001610:	0800175c 	.word	0x0800175c
 8001614:	00f42400 	.word	0x00f42400
 8001618:	007a1200 	.word	0x007a1200

0800161c <RCC_SetFlashLatencyFromMSIRange>:
            voltage range.
  * @param  msirange  MSI range value from RCC_MSIRANGE_0 to RCC_MSIRANGE_11
  * @retval HAL status
  */
static HAL_StatusTypeDef RCC_SetFlashLatencyFromMSIRange(uint32_t msirange)
{
 800161c:	b580      	push	{r7, lr}
 800161e:	b086      	sub	sp, #24
 8001620:	af00      	add	r7, sp, #0
 8001622:	6078      	str	r0, [r7, #4]
  uint32_t vos;
  uint32_t latency = FLASH_LATENCY_0;  /* default value 0WS */
 8001624:	2300      	movs	r3, #0
 8001626:	613b      	str	r3, [r7, #16]

  if(__HAL_RCC_PWR_IS_CLK_ENABLED())
 8001628:	4b2a      	ldr	r3, [pc, #168]	; (80016d4 <RCC_SetFlashLatencyFromMSIRange+0xb8>)
 800162a:	6d9b      	ldr	r3, [r3, #88]	; 0x58
 800162c:	f003 5380 	and.w	r3, r3, #268435456	; 0x10000000
 8001630:	2b00      	cmp	r3, #0
 8001632:	d003      	beq.n	800163c <RCC_SetFlashLatencyFromMSIRange+0x20>
  {
    vos = HAL_PWREx_GetVoltageRange();
 8001634:	f7ff fa3a 	bl	8000aac <HAL_PWREx_GetVoltageRange>
 8001638:	6178      	str	r0, [r7, #20]
 800163a:	e014      	b.n	8001666 <RCC_SetFlashLatencyFromMSIRange+0x4a>
  }
  else
  {
    __HAL_RCC_PWR_CLK_ENABLE();
 800163c:	4b25      	ldr	r3, [pc, #148]	; (80016d4 <RCC_SetFlashLatencyFromMSIRange+0xb8>)
 800163e:	6d9b      	ldr	r3, [r3, #88]	; 0x58
 8001640:	4a24      	ldr	r2, [pc, #144]	; (80016d4 <RCC_SetFlashLatencyFromMSIRange+0xb8>)
 8001642:	f043 5380 	orr.w	r3, r3, #268435456	; 0x10000000
 8001646:	6593      	str	r3, [r2, #88]	; 0x58
 8001648:	4b22      	ldr	r3, [pc, #136]	; (80016d4 <RCC_SetFlashLatencyFromMSIRange+0xb8>)
 800164a:	6d9b      	ldr	r3, [r3, #88]	; 0x58
 800164c:	f003 5380 	and.w	r3, r3, #268435456	; 0x10000000
 8001650:	60fb      	str	r3, [r7, #12]
 8001652:	68fb      	ldr	r3, [r7, #12]
    vos = HAL_PWREx_GetVoltageRange();
 8001654:	f7ff fa2a 	bl	8000aac <HAL_PWREx_GetVoltageRange>
 8001658:	6178      	str	r0, [r7, #20]
    __HAL_RCC_PWR_CLK_DISABLE();
 800165a:	4b1e      	ldr	r3, [pc, #120]	; (80016d4 <RCC_SetFlashLatencyFromMSIRange+0xb8>)
 800165c:	6d9b      	ldr	r3, [r3, #88]	; 0x58
 800165e:	4a1d      	ldr	r2, [pc, #116]	; (80016d4 <RCC_SetFlashLatencyFromMSIRange+0xb8>)
 8001660:	f023 5380 	bic.w	r3, r3, #268435456	; 0x10000000
 8001664:	6593      	str	r3, [r2, #88]	; 0x58
  }

  if(vos == PWR_REGULATOR_VOLTAGE_SCALE1)
 8001666:	697b      	ldr	r3, [r7, #20]
 8001668:	f5b3 7f00 	cmp.w	r3, #512	; 0x200
 800166c:	d10b      	bne.n	8001686 <RCC_SetFlashLatencyFromMSIRange+0x6a>
  {
    if(msirange > RCC_MSIRANGE_8)
 800166e:	687b      	ldr	r3, [r7, #4]
 8001670:	2b80      	cmp	r3, #128	; 0x80
 8001672:	d919      	bls.n	80016a8 <RCC_SetFlashLatencyFromMSIRange+0x8c>
    {
      /* MSI > 16Mhz */
      if(msirange > RCC_MSIRANGE_10)
 8001674:	687b      	ldr	r3, [r7, #4]
 8001676:	2ba0      	cmp	r3, #160	; 0xa0
 8001678:	d902      	bls.n	8001680 <RCC_SetFlashLatencyFromMSIRange+0x64>
      {
        /* MSI 48Mhz */
        latency = FLASH_LATENCY_2; /* 2WS */
 800167a:	2302      	movs	r3, #2
 800167c:	613b      	str	r3, [r7, #16]
 800167e:	e013      	b.n	80016a8 <RCC_SetFlashLatencyFromMSIRange+0x8c>
      }
      else
      {
        /* MSI 24Mhz or 32Mhz */
        latency = FLASH_LATENCY_1; /* 1WS */
 8001680:	2301      	movs	r3, #1
 8001682:	613b      	str	r3, [r7, #16]
 8001684:	e010      	b.n	80016a8 <RCC_SetFlashLatencyFromMSIRange+0x8c>
        latency = FLASH_LATENCY_1; /* 1WS */
      }
      /* else MSI < 8Mhz default FLASH_LATENCY_0 0WS */
    }
#else
    if(msirange > RCC_MSIRANGE_8)
 8001686:	687b      	ldr	r3, [r7, #4]
 8001688:	2b80      	cmp	r3, #128	; 0x80
 800168a:	d902      	bls.n	8001692 <RCC_SetFlashLatencyFromMSIRange+0x76>
    {
      /* MSI > 16Mhz */
      latency = FLASH_LATENCY_3; /* 3WS */
 800168c:	2303      	movs	r3, #3
 800168e:	613b      	str	r3, [r7, #16]
 8001690:	e00a      	b.n	80016a8 <RCC_SetFlashLatencyFromMSIRange+0x8c>
    }
    else
    {
      if(msirange == RCC_MSIRANGE_8)
 8001692:	687b      	ldr	r3, [r7, #4]
 8001694:	2b80      	cmp	r3, #128	; 0x80
 8001696:	d102      	bne.n	800169e <RCC_SetFlashLatencyFromMSIRange+0x82>
      {
        /* MSI 16Mhz */
        latency = FLASH_LATENCY_2; /* 2WS */
 8001698:	2302      	movs	r3, #2
 800169a:	613b      	str	r3, [r7, #16]
 800169c:	e004      	b.n	80016a8 <RCC_SetFlashLatencyFromMSIRange+0x8c>
      }
      else if(msirange == RCC_MSIRANGE_7)
 800169e:	687b      	ldr	r3, [r7, #4]
 80016a0:	2b70      	cmp	r3, #112	; 0x70
 80016a2:	d101      	bne.n	80016a8 <RCC_SetFlashLatencyFromMSIRange+0x8c>
      {
        /* MSI 8Mhz */
        latency = FLASH_LATENCY_1; /* 1WS */
 80016a4:	2301      	movs	r3, #1
 80016a6:	613b      	str	r3, [r7, #16]
      /* else MSI < 8Mhz default FLASH_LATENCY_0 0WS */
    }
#endif
  }

  __HAL_FLASH_SET_LATENCY(latency);
 80016a8:	4b0b      	ldr	r3, [pc, #44]	; (80016d8 <RCC_SetFlashLatencyFromMSIRange+0xbc>)
 80016aa:	681b      	ldr	r3, [r3, #0]
 80016ac:	f023 0207 	bic.w	r2, r3, #7
 80016b0:	4909      	ldr	r1, [pc, #36]	; (80016d8 <RCC_SetFlashLatencyFromMSIRange+0xbc>)
 80016b2:	693b      	ldr	r3, [r7, #16]
 80016b4:	4313      	orrs	r3, r2
 80016b6:	600b      	str	r3, [r1, #0]

  /* Check that the new number of wait states is taken into account to access the Flash
     memory by reading the FLASH_ACR register */
  if(__HAL_FLASH_GET_LATENCY() != latency)
 80016b8:	4b07      	ldr	r3, [pc, #28]	; (80016d8 <RCC_SetFlashLatencyFromMSIRange+0xbc>)
 80016ba:	681b      	ldr	r3, [r3, #0]
 80016bc:	f003 0307 	and.w	r3, r3, #7
 80016c0:	693a      	ldr	r2, [r7, #16]
 80016c2:	429a      	cmp	r2, r3
 80016c4:	d001      	beq.n	80016ca <RCC_SetFlashLatencyFromMSIRange+0xae>
  {
    return HAL_ERROR;
 80016c6:	2301      	movs	r3, #1
 80016c8:	e000      	b.n	80016cc <RCC_SetFlashLatencyFromMSIRange+0xb0>
  }

  return HAL_OK;
 80016ca:	2300      	movs	r3, #0
}
 80016cc:	4618      	mov	r0, r3
 80016ce:	3718      	adds	r7, #24
 80016d0:	46bd      	mov	sp, r7
 80016d2:	bd80      	pop	{r7, pc}
 80016d4:	40021000 	.word	0x40021000
 80016d8:	40022000 	.word	0x40022000

080016dc <__libc_init_array>:
 80016dc:	b570      	push	{r4, r5, r6, lr}
 80016de:	4d0d      	ldr	r5, [pc, #52]	; (8001714 <__libc_init_array+0x38>)
 80016e0:	4c0d      	ldr	r4, [pc, #52]	; (8001718 <__libc_init_array+0x3c>)
 80016e2:	1b64      	subs	r4, r4, r5
 80016e4:	10a4      	asrs	r4, r4, #2
 80016e6:	2600      	movs	r6, #0
 80016e8:	42a6      	cmp	r6, r4
 80016ea:	d109      	bne.n	8001700 <__libc_init_array+0x24>
 80016ec:	4d0b      	ldr	r5, [pc, #44]	; (800171c <__libc_init_array+0x40>)
 80016ee:	4c0c      	ldr	r4, [pc, #48]	; (8001720 <__libc_init_array+0x44>)
 80016f0:	f000 f820 	bl	8001734 <_init>
 80016f4:	1b64      	subs	r4, r4, r5
 80016f6:	10a4      	asrs	r4, r4, #2
 80016f8:	2600      	movs	r6, #0
 80016fa:	42a6      	cmp	r6, r4
 80016fc:	d105      	bne.n	800170a <__libc_init_array+0x2e>
 80016fe:	bd70      	pop	{r4, r5, r6, pc}
 8001700:	f855 3b04 	ldr.w	r3, [r5], #4
 8001704:	4798      	blx	r3
 8001706:	3601      	adds	r6, #1
 8001708:	e7ee      	b.n	80016e8 <__libc_init_array+0xc>
 800170a:	f855 3b04 	ldr.w	r3, [r5], #4
 800170e:	4798      	blx	r3
 8001710:	3601      	adds	r6, #1
 8001712:	e7f2      	b.n	80016fa <__libc_init_array+0x1e>
 8001714:	0800178c 	.word	0x0800178c
 8001718:	0800178c 	.word	0x0800178c
 800171c:	0800178c 	.word	0x0800178c
 8001720:	08001790 	.word	0x08001790

08001724 <memset>:
 8001724:	4402      	add	r2, r0
 8001726:	4603      	mov	r3, r0
 8001728:	4293      	cmp	r3, r2
 800172a:	d100      	bne.n	800172e <memset+0xa>
 800172c:	4770      	bx	lr
 800172e:	f803 1b01 	strb.w	r1, [r3], #1
 8001732:	e7f9      	b.n	8001728 <memset+0x4>

08001734 <_init>:
 8001734:	b5f8      	push	{r3, r4, r5, r6, r7, lr}
 8001736:	bf00      	nop
 8001738:	bcf8      	pop	{r3, r4, r5, r6, r7}
 800173a:	bc08      	pop	{r3}
 800173c:	469e      	mov	lr, r3
 800173e:	4770      	bx	lr

08001740 <_fini>:
 8001740:	b5f8      	push	{r3, r4, r5, r6, r7, lr}
 8001742:	bf00      	nop
 8001744:	bcf8      	pop	{r3, r4, r5, r6, r7}
 8001746:	bc08      	pop	{r3}
 8001748:	469e      	mov	lr, r3
 800174a:	4770      	bx	lr
